:020000040800F2
:10000000580E0020C1010008593900089932000833
:1000100051380008050700087D4200080000000074
:100020000000000000000000000000009D390008F2
:10003000F90A0008000000007B390008453A000872
:10004000DB010008DB010008DB010008DB01000820
:10005000DB010008DB010008DB010008DB01000810
:10006000DB010008DB010008DB010008DB01000800
:100070000D0A0008DB010008190A0008250A00081B
:10008000DB010008310A0008DB010008DB01000881
:1000900009070008DB010008DB010008DB0100089C
:1000A000DB010008DB010008DB010008DB010008C0
:1000B000213B0008413B0008DB010008DB01000890
:1000C000DB010008DB010008DB010008DB010008A0
:1000D000DB0100086D420008DB010008DB010008BD
:1000E000FB0A0008DB010008DB010008DB01000857
:1000F000DB010008DB010008DB010008DB01000870
:10010000DB010008DB010008DB010008DB0100085F
:10011000DB010008DB010008DB010008DB0100084F
:10012000DB0100083D0A0008490A0008DB0100085D
:10013000DB010008DB010008DB010008DB0100082F
:1001400029070008DB010008DB010008DB010008CB
:10015000DB010008DB010008DB0100087942000830
:10016000DB010008DB010008DB010008DB010008FF
:10017000DB010008DB010008DB01000800000000D3
:10018000DB010008DB010008FB3D0008FF3D000823
:10019000DB010008DB010008DB010008DB010008CF
:1001A0000000000000000000DB010008DFF80CD0B8
:1001B00000F068F8004800479D420008580E0020F3
:1001C0000648804706480047FEE7FEE7FEE7FEE7F1
:1001D000FEE7FEE7FEE7FEE7FEE7FEE7CD3A0008B2
:1001E000AD01000840EA01039B0703D009E008C9FC
:1001F000121F08C0042AFAD203E011F8013B00F8EC
:10020000013B521EF9D27047D2B201E000F8012B37
:10021000491EFBD270470022F6E710B513460A4686
:1002200004461946FFF7F0FF204610BD00F00042DB
:1002300030F000400AD0C10D01F56071C0F3160026
:1002400042EA0151C20840071143704700200146AD
:100250007047000030B5041E71F1000404DB4FF05C
:100260000044404264EB0101141E73F1000405DBFD
:100270001C464FF00043524263EB04038B4208BF1D
:10028000824230BD064C074D06E0E06840F00103B5
:1002900094E8070098471034AC42F6D3FFF78AFF82
:1002A000704600089046000870B58C1810F8015B85
:1002B00015F0070301D110F8013B2A1106D110F8FF
:1002C000012B03E010F8016B01F8016B5B1EF9D103
:1002D0002B0705D40023521E0DD401F8013BFAE789
:1002E00010F8013BCB1A921C03E013F8015B01F8F4
:1002F000015B521EF9D5A142D8D3002070BD000089
:10030000D1ED1B0AF7EE001AC1ED100A828A52BA2B
:1003100000EE102A164AB8EE400A81ED1B0AC08A88
:1003200070EE600A40BA00B201EE100AA1F8700047
:1003300010EE900AB8EEC11A904281ED021A91EDCA
:10034000111A02D971EE210A09E010EE900A094A49
:10035000904202DCD1ED110A03E071EE610AC1EDB9
:10036000110A9FED051A00EE810A81ED120A70470D
:100370000080BBC50080BB450000004690ED000A30
:10038000D0ED020A30EE600A80ED070AD0ED060AD1
:1003900070EE800AC0ED060A91ED031AF4EEC10A70
:1003A000F1EE10FA02DAB0EE601A01E080ED061A02
:1003B000D1ED030AF1EE600AB4EEE01AF1EE10FAA4
:1003C00001D8C0ED060AD0ED080A70EE600AC0ED53
:1003D000090A80ED080A91ED001AD0ED061A21EE07
:1003E000000A91ED011A01EE210A91ED021A01EEC7
:1003F000200A80ED0B0AD1ED040AB4EEE00AF1EE1A
:1004000010FA02DCF0EE400A01E0C0ED0B0A91EDBB
:10041000040AB1EE400AF4EEC00AF1EE10FA01D27D
:1004200080ED0B0A7047000003480068C16841F086
:100430001001C16070470000F40300202DE9F0476F
:1004400004461A4D0020A5274FF05A084FF6FF79B1
:10045000E8602754E9681822214481F80180E8689F
:10046000261831461248FFF7BDFE308BA8804A4659
:1004700018210F4800F040FCA98888420FD1E86895
:100480001A2221180A481A38FFF7ACFE08481A3811
:1004900050F80F1F296141686961007AA870E86807
:1004A000401CE8602228D4DBBDE8F0870C00002067
:1004B0000E070020184808B500680168C943C9063E
:1004C00028D40168406800901448154A0068D11487
:1004D000904202D912484C3804E0124A904203D9A3
:1004E0000F485038016008E00E4B0E4A603BB83AA6
:1004F000984201D9D16000E09160074802F022FBE8
:1005000032220949044802F053FDBDE8084006487C
:10051000FFF794BF08BD0000F4030020140600207C
:1005200058640240B86002403207002070B5474D61
:10053000474C4FF000062DED028B2878800701D53F
:10054000667001E00120607000F098F84148007882
:10055000022836D194ED020AD4ED060AB8EEC00A9C
:10056000B4EE600AF1EE10FA2BD13B489FED3B8BC5
:100570000078012825D13B48C06DFFF757FE00EEFB
:10058000100A21F0004210EE101A42EC101B53EC3E
:10059000182B51EC100BFFF75DFE12D23248C06DE4
:1005A000FFF744FE00EE100A21F0004210EE101A90
:1005B00042EC101B53EC182B51EC100BFFF74AFECA
:1005C00002D32878400702D50220207000E0267070
:1005D00020789FED260A264A264920B1012808D016
:1005E00002281CD108E081ED000A4FF4FA70106077
:1005F00015E094ED050A10E0607810B101280CD0E8
:100600000DE04FF47A70106094ED030A81ED000A5A
:100610002878000703D594ED040A81ED000AE078FC
:1006200018B99FED150A81ED000AB1F9700000EECE
:10063000100A1048B8EEC00A81ED020A0449BDEC68
:10064000028B2031BDE87040FFF798BE0E000020FD
:1006500008010020440000200C00002000000000E1
:10066000000004400008002088070020000000006F
:10067000400C0040DC09002000007AC430B51D4960
:100680001B4A0024B1F97000157891ED000A01238E
:10069000B5B110EE101A184DA94204D010EE101A80
:1006A000164DA9420CD10A280ADCD169491CD16136
:1006B0001E2903DBD470C821D16108E0D37006E0A5
:1006C00010EE101A0E4DA94201D0D461F6E7B5EE36
:1006D000C00AF1EE10FA09D2002807DCD078002811
:1006E00004D1D069401ED06100D1D37030BD00006C
:1006F00008010020DC0900200000FA4400007A44D0
:1007000000007AC4FEE7000010B5064800F0A8F823
:10071000044800F0E1FDBDE810400021014800F070
:10072000B9BF00003C010020014800F0D5BD000029
:100730007C01002010B54FF4D872036802EB01125F
:100740009B5813F00404436B9C600468436BA458EB
:1007500056D0E4085C6003689A58436B02F00202CA
:10076000DA604FF4DA72036802EB01129B58446BB3
:1007700003F00F032361436B196203689A58436BBC
:10078000C2F30722DA614FF4DC72036802EB011254
:100790009B58446B237503689B58446B1B0A637515
:1007A00003689B58446B1B0CA37503689A58436BF2
:1007B000120EDA754FF4DE72036802EB01129B58D9
:1007C000446B237603689B58446B1B0A637603686B
:1007D0009B58446B1B0CA37603689A58436B120E0C
:1007E000DA762022002901680DD00A6101684A6981
:1007F00022F010024A6190F83810222909D021E035
:10080000640D1C60A7E7CA6001684A6922F0020211
:10081000F0E701684A6922F480724A6101684A6916
:1008200022F400724A6101684A6922F480624A61D6
:1008300001684A6922F400624A6101684A6922F447
:1008400000424A6190F83810322906D0012180F820
:10085000381000F061FF002010BD1221F7E7000002
:10086000406B0168A1F50071053906D0012906D059
:10087000022907D10449FFF743BD044900E00449B8
:1008800000F050B970470000DC090020000800208B
:1008900088070020234840F2FF11026B1160026BB1
:1008A00000219160026BD160026B082111611E4929
:1008B000036B91ED0B0ABDEEC00A10EE102A121266
:1008C0001A7591ED0B0A026BBCEEC00A10EE101AFD
:1008D00051751649036B91ED0B0ABDEEC00A10EE7F
:1008E000102A12129A7591ED0B0A026BBCEEC00A27
:1008F00010EE101AD1750E49036B91ED0B0ABDEE87
:10090000C00A10EE102A12121A7691ED0B0A006B33
:10091000BCEEC00A10EE101A41760A21014800F020
:10092000FDBE00003C0100200008002088070020D8
:10093000DC09002010B501684A6922F001024A6111
:1009400090F83810122918D101684A6922F480728F
:100950004A6101684A6922F400724A6101684A6981
:1009600022F480624A6101684A6922F400624A61A5
:1009700001684A6922F400424A6190F8381032292D
:1009800006D0012180F8381000F088FF002010BD4B
:100990002221F7E700B58BB000200121CDE9060147
:1009A0000090019002900390059004900E20CDE9F4
:1009B00008100648044901631C314163694600F090
:1009C00017FC0BB000BD0000740600203C010020A5
:1009D00000B58BB000200122CDE9060200900E2167
:1009E0000390CDE9040101900290CDE90821064869
:1009F000044901631C314163694600F0F9FB0BB007
:100A000000BD0000B40600207C010020014800F079
:100A10009FBF000054050020014800F099BF00006E
:100A200034040020014800F093BF0000B40500200A
:100A3000014800F08DBF000094040020014800F040
:100A400087BF000014060020014800F081BF0000AD
:100A5000F404002001681823CAB2103AB2FBF3F282
:100A6000054B6FF30901032A9B5CC36500D9091D7F
:100A700081650846704700006843000810B50146CC
:100A800000208B698A6A4FF0C07453B1B3F5005FE0
:100A900015D072B1012A0CD0022A0AD0032A09D13A
:100AA00004E01AB1012A06D0022A03D1C96AC90199
:100AB00000D5012010BDC96AA142FAD010BD002A9C
:100AC000F7D0012AF2D0022AF3D0032AF3D010BDC6
:100AD00030B50468256825F48025256004686360C6
:100AE0008368402B036803D099600068C26030BD02
:100AF0009A600068C16030BD70474FF4805001F0CB
:100B0000ABB87047B7EE001A054831EE601A21EE17
:100B1000000A90ED011A00EE810A80ED010A70478B
:100B200044000020828AF7EE001A52BA00EE102A22
:100B3000B8EE400A81ED1B0AC28A52BAA1F87020B1
:100B4000008B154A40BAA1F87200D1ED1D0A91ED53
:100B5000111A70EE600A10EE900A904202D971EEFE
:100B6000210A06E010EE900A0C4A904203DD71EE75
:100B7000610AC1ED110A91ED111ADFED091AF0EECB
:100B8000400A41EE210AC1ED120A81ED1D0A91EDE4
:100B9000020A81ED030A70470080BBC50060EA4588
:100BA0000000004690ED000AD0ED030A30EE600A26
:100BB00080ED0B0AD0ED090A70EE800AC0ED090A3B
:100BC00091ED031AF4EEC10AF1EE10FA02DAB0EE7A
:100BD000601A01E080ED091AD1ED030AF1EE600A16
:100BE000B4EEE01AF1EE10FA01D8C0ED090AD0ED2A
:100BF0000C0A70EE600AC0ED0D0A80ED0C0A91ED52
:100C0000001AD0ED091A21EE000A91ED011A01EE49
:100C1000210A91ED021A01EE200A80ED0A0AD1EDB7
:100C2000040AB4EEE00AF1EE10FA02DCF0EE400A3B
:100C300001E0C0ED0A0A91ED040AB1EE400AF4EEBB
:100C4000C00AF1EE10FA01D280ED0A0A704790ED69
:100C5000000AD0ED020A30EE600A80ED070AD0EDFE
:100C6000060A70EE800AC0ED060A91ED031AF4EE52
:100C7000C10AF1EE10FA02DAB0EE601A01E080ED7E
:100C8000061AD1ED030AF1EE600AB4EEE01AF1EEB5
:100C900010FA01D8C0ED060AD0ED080A70EE600A1D
:100CA000C0ED090A80ED080A91ED001AD0ED061A90
:100CB00021EE000A91ED011A01EE210A91ED021ACE
:100CC00001EE200A80ED0B0AD1ED040AB4EEE00A31
:100CD000F1EE10FA02DCF0EE400A01E0C0ED0B0A82
:100CE00091ED040AB1EE400AF4EEC00AF1EE10FAFA
:100CF00001D280ED0B0A704710B558B1084C491E5F
:100D00000BD310F8013B5340DBB234F8133083EAC5
:100D10001222F4E74FF6FF7010BD104610BD000020
:100D20007044000870B500F041F900F0D3F800F00D
:100D3000A1F8484D484AA5F11C0495ED000A02F1BE
:100D4000300082ED0C0A21789FED442A3C230229D1
:100D50004FD092ED1B0ADFED420A04F1240130EE80
:100D6000600AC0EE020AC2ED0F0AFFF71BFF92ED08
:100D7000160A04F1380182ED000AB2F9700090FB06
:100D8000F3F000EE100AB8EEC00A82ED020A324813
:100D9000FFF75DFF304A95ED010A783ADFED310A41
:100DA00082ED0C0A92ED1B0A02F1300030EE600A6F
:100DB000C0EE020AC2ED0F0A2178022932D025497D
:100DC0003031FFF7EFFE92ED160A224982ED000A5C
:100DD000B2F97000443190FBF3F000EE100AB8EE67
:100DE000C00A82ED020ABDE870401B487838FFF760
:100DF0002EBF1D4991ED000A1649B1EE400A82ED61
:100E00000F0A5831FFF7CEFE92ED160A174882ED11
:100E1000000A104990ED020A6C31B1EE400A82EDF1
:100E2000020AB4E70B498031FFF7BCFE92ED160AC7
:100E3000DFED0F0A82ED000AB2F97000054900EEFD
:100E4000100A9431B8EEC00A80EE201A82ED021A20
:100E5000C9E700006000002000080020780BB641C0
:100E60000088A74500A0C2453C0000207007002074
:100E700000007042124801781C3002290FD0114A3C
:100E80000168914203DBB3EE0E0A80ED000A0E4AC0
:100E90000168914203D3BBEE0E0A80ED000A0B4AB3
:100EA0004168914203DBB3EE040A80ED010A084A6F
:100EB0004168914203D3BAEE0E0A80ED010A7047F1
:100EC000440000200000F0410000F0C10000A041FB
:100ED000000070C12B4801232B4A0178012901D061
:100EE00049B111E029480078C0070DD002201070E8
:100EF0000020507009E01078022805D15078401C7D
:100F0000C0B25070C82800D313701F4B10781C3328
:100F100058B3012830D0022826D1012924D11C48F9
:100F20009FED1E1ADFED1E1A416800EE101A1949D6
:100F3000D1ED000A184930EE600A83ED000AD1EDC8
:100F40001B0A006870EEC10A80EEA11A00EE900A3A
:100F500001F1780071EE200AC3ED010AD0ED0F0A0D
:100F600030EE600A82ED030A70479FED0E0A83EDB2
:100F7000000A83ED010A70470B4801681960406858
:100F8000586070470C000020440000200E00002034
:100F9000260700203C0000208807002000A0C24552
:100FA000780BB641000000001C00002070B5834C97
:100FB0002DED028B9FED828A8248834DF0EE488AA8
:100FC00090ED000A8148B1EE400A85ED050AD0EDAA
:100FD000010A7F48C5ED060A0078012802D1287869
:100FE00002283CD00120207284ED538A84ED548A7B
:100FF00084ED550AC4ED560A00F02EFF20606060B3
:1010000084ED588A94ED570ADFED720A20EE200A2B
:1010100084ED570A10EE100AFFF708F900EE100AE7
:1010200021F0004210EE101A42EC101B9FED6A1BDB
:1010300051EC100B53EC112BFFF70CF901D284ED9E
:10104000578A002004EB8001401C81ED038AC0B266
:1010500081ED2B8A2828F5D3BDEC028B70BD207A58
:101060005F4E38B30020207284ED538A84ED548A99
:10107000706801EE100A31EE000A84ED550A3068FE
:1010800000EE100A30EE200A84ED560A00F0E4FE6D
:101090002060606084ED588A84ED578A002004EB5C
:1010A0008001401C81ED038AC0B281ED2B8A282883
:1010B000F5D3D1E700F0D0FE6060002004EB8001A2
:1010C000401C91ED040AC0B281ED030A91ED2C0A97
:1010D000272881ED2B0AF1D3D4E90010401A00EE45
:1010E000100AB8EE400ADFED3F0A7168D5ED051A27
:1010F00080EE201A00EE101A30EE210AD4ED551AB7
:1011000030EE610AC0EE011A00EE100AB8EE400A95
:1011100080EE201AC4ED2A1A3068D5ED060A00EEDA
:10112000100A002030EE200AD4ED560A30EE600A94
:10113000C0EE010AC4ED520A04EB8001401C91ED9F
:10114000030AC0B2282870EE288A91ED2B0A30EEEF
:10115000088AF1D3DFED240ADFED241A88EEA00A15
:1011600088EE201AF0EE610A84ED530A84ED541AD9
:1011700003F0E2F8B5EE001A85ED040A20EE010A4C
:10118000F0EE610A84ED570AFFF7BCFC84ED570AC4
:10119000606820607068D5ED050A00EE100A30EE38
:1011A000200A84ED550A3068D5ED060A00EE100AD3
:1011B00030EE200A84ED560A4EE700007808002041
:1011C000000000003C000020440000207C070020BC
:1011D0000C0000203333733F9A9999999999C93F2C
:1011E0002607002000007A44000020426666663F21
:1011F000F0B50A7D01209040344A136843F00103A2
:101200001360136823F47C53136013684C6A43EA39
:10121000042313602D4D1C352B6883432B602B4C0E
:101220002B4BCE690C34A6B92668864326608F897D
:101230004E6867F31F464F6903EBC707C7F8406660
:101240000F890E6867F31F464F6903EBC707C7F89E
:101250004466CE69012E14D12668064326600E88A6
:101260004C6866F31F444E6903EBC606C6F8404659
:101270000E89CC6866F31F444E6903EBC603C3F8BE
:101280004446124B8C691B1D002C1C6806D004437D
:101290001C600E4B0C69143314B104E08443F7E76F
:1012A0001C6884431C600C69012C02D11C68044337
:1012B0001C60096A012902D129680143296010686C
:1012C00020F0010010600020F0BD0000006600402A
:1012D000006000407047000010B504460068416996
:1012E000C943C90714D182685849914368D0002185
:1012F0008368574A9A4365D00022836855489843CB
:1013000062D000201143014302D02046FFF712FBB8
:101310002068C168406911F0030FC0F3400004D099
:1013200018B100212046FFF705FA206801694069DD
:1013300011F0030FC0F3001004D018B101212046B2
:10134000FFF7F8F9206881694269C1F30001436938
:10135000C2F30022C3F3C03329B122B11BB1E16B48
:1013600041F00101E1638169C1F3400241694369D0
:10137000C1F34021C3F3C0332AB121B11BB1E16BEA
:1013800041F00201E16381694269C1F38001C2F366
:1013900080234269C2F3C03229B123B11AB1E16B93
:1013A00041F00401E163816911F0700F0ED000215A
:1013B0004269C2F3C0234269C2F3C03241B127E09F
:1013C000012195E7012298E701209BE70121EFE742
:1013D000F3B1EAB1816901F07001402929D006DC3E
:1013E000102909D020290BD030290DD11DE050291A
:1013F00023D0602908D124E0E16B41F0080102E02C
:10140000E16B41F01001E163816921F070018161BC
:10141000E06B002808D0216804204860012084F88F
:1014200038002046FFF756FF10BDE16B41F0200168
:10143000E9E7E16B41F04001E5E7E16B41F0800154
:10144000E1E7E16B41F48071DDE700000300000497
:1014500000030008000003102DE9F041040004D04F
:1014600094F83800002518B107E00120BDE8F081AC
:1014700084F83950204600F091F8022084F83800B2
:101480002068016821F0020101602068016841F0D4
:101490000101016000F0E0FC0746032604E000F0D3
:1014A000DBFCC01B0A2862D820684068C007F6D061
:1014B00020684168C90767D0A169012901683FD048
:1014C00021F080010160E0690128206801683AD0BC
:1014D00021F040010160206A01282068016835D0B0
:1014E00021F020010160606A01282068016830D085
:1014F00021F010010160A06A0128206801682BD04A
:1015000021F008010160E06A01282068016826D006
:1015100021F004010160D4E902010843D4E9041276
:10152000114308436168491E08432168C861206867
:10153000016821F00101016000F08EFC07461BE00C
:1015400041F08001BEE741F04001C3E741F02001D6
:10155000C8E741F01001CDE741F00801D2E741F0C2
:101560000401D7E700F078FCC01B0A2804D904F86E
:10157000386F0320657079E720684068C007F1D1B3
:1015800020684068C00703D0042084F838006CE766
:10159000E563012084F83800002067E7F0B587B0E4
:1015A000044614216846FEF736FE3549354ADFF811
:1015B000CCE00868D4F800C0324B03240225092689
:1015C00010320027401CF44521D10860012807D1C2
:1015D000106840F000701060106800F00070059016
:1015E000186840F00800186018688DE8B00000F036
:1015F0000800CDE9046069460394234800F038FBF5
:1016000003220121142000F0CFFC142032E0DFF887
:101610007CE0F44530D1D2F800C04CF0806CC2F8C8
:1016200000C0D2F800C001280CF0806CCDF814C0C6
:10163000086007D1106840F000701060106800F07A
:1016400000700590186840F002001860186869463C
:1016500000F0020005904FF440508DE8A100CDE964
:1016600003460B4800F004FB03220121402000F058
:101670009BFC402000F08DFC07B0F0BD00640040F2
:101680000000002030380240000C0240006800409A
:101690000004024010B590F83820012A01D0122A27
:1016A00038D190F83920012A34D0012280F839202D
:1016B00090F83820122A28D0222280F838200023DF
:1016C000C3630268546944F48074546102685469C5
:1016D00044F4007454610268546944F480645461B1
:1016E0000268546944F4006454610268546944F423
:1016F0000044546180F8393000680029416906D0FF
:1017000041F010014161002010BD3222D5E741F0C7
:101710000201F7E7022010BD704700002DE9F05FDD
:101720000E46016804468868400105D488680001B7
:1017300002D48868C00068D594F8390001280FD019
:101740004FF0010884F8398094F8380022280AD034
:10175000122084F838008868400106D500250AE088
:101760000220BDE8F09F3220F3E78868000101D530
:10177000012500E002254FF4C07000EB05100A5867
:1017800002F001020A50216B8A68EAB323681F58ED
:101790001743CA68496842EAC1010F431F50216BD1
:1017A0000A7C02F00F020A614FF4C271226801EB59
:1017B0000511535823F00F03535022685358276BD9
:1017C0003F693B435350216B4FF4C47303EB051344
:1017D0000A7DD1F8151042EA01212268D150216B0F
:1017E0004FF4C67303EB05130A7ED1F8191042EAD1
:1017F00001212268D15021680A5842F001020A50A2
:1018000000F02AFB074601E007E03BE04FF000094B
:10181000DFF87CA0DFF87CB016E022681358CF68B0
:1018200009883B4343EA41511150B8E7701C0BD083
:1018300026B100F011FBC01BB04205D9032084F88B
:10184000380084F839908CE795B12068012D8168C3
:1018500013D0114888430028E8D194F83800322882
:101860000ED0404684F8380084F83990002078E79C
:10187000206881682AEA0100EDE72BEA0100EAE727
:101880002220EFE7042084F83800012069E70000F7
:1018900003000004000300080000031070472DE956
:1018A000F0410446876D00F0D7FA054694F83500FC
:1018B0000026022806D08020606584F8346001206C
:1018C000BDE8F0812068016821F016010160206800
:1018D000416921F080014161206C08B9A06C20B100
:1018E0002068016821F0080101602068016821F08A
:1018F000010101600BE000F0AFFA401B052806D99A
:101900002020606504F8346F03206070D8E72068F9
:101910000068C007EFD194F85C103F208840B860A1
:1019200004F8346F012060700020C9E790F835108A
:10193000022903D08021416501207047052180F8EC
:1019400035100068016821F0010101600020704736
:101950002DE9F84304464FF00008CDF800806448B4
:101960004FF41651A56D0068B0FBF1F72E6894F89E
:101970005C00082202FA00F1314210D020680168B0
:1019800049070CD5016821F00401016094F85C005E
:1019900002FA00F1A960606D40F00100606594F802
:1019A0005C1054488840304208D0216849690906D3
:1019B00004D5A860606D40F0020060654D4894F861
:1019C0005C10C01C8840304208D021680968890733
:1019D00004D5A860606D40F00400606594F85C1068
:1019E00010208840304218D021680968090714D5B2
:1019F000A86020680168490304D50068000308D581
:101A0000A16C07E00168C90503D4016821F0080151
:101A10000160216C09B12046884794F85C102020B1
:101A2000884030424FF0010631D021680968C9066C
:101A30002DD5A86094F8350005282068016806D0E7
:101A4000490347D5006800031DD4616C1CE021F0F8
:101A5000160101602068416921F080014161206C1C
:101A600008B9A06C20B12068016821F0080101606C
:101A700094F85C103F208840A86084F8348084F893
:101A80003560216D1FE0E16B09B120468847606D2C
:101A900000282BD0606DC00714D0052084F83500D5
:101AA0002068016821F0010101600098401C00904D
:101AB000B84203D820680068C007F6D184F83480A3
:101AC00084F83560E16C002910D001B02046BDE8F3
:101AD000F04308470168C905D5D4016821F0100119
:101AE000016084F8348084F83560CCE7BDE8F88381
:101AF00008000020010080002DE9F041044600F0BC
:101B0000ABF905465CB1002684F83460022084F805
:101B100035002068016821F0010101600DE001201D
:101B2000BDE8F08100F098F9401B052805D9202078
:101B30006065032084F83500F2E720680068C0077C
:101B4000F0D121680A681F480240D4E90103184314
:101B5000D4E903352B43184363691843A369184339
:101B6000E3691843236A18431043626A042A03D1C5
:101B7000D4E90B231A431043086020684069656A62
:101B800020F0070128460D43012704280AD1A06A46
:101B900005432046FEF772FF20B14020606584F8BF
:101BA0003570BCE7206845612046FEF753FF94F886
:101BB0005C203F2191408160666584F8357000208B
:101BC000AEE700003F8010F02DE9F0410446866D3D
:101BD00090F83400002501280DD0012084F834004D
:101BE00094F835700020012F07D084F834000225C6
:101BF0002846BDE8F0810220FBE7022784F8357013
:101C000060652046FEF764FF94F85C103F20884032
:101C1000B0602068016841F01601016020684169E8
:101C200041F080014161206C20B12068016841F0E1
:101C3000080101602068016841F001010160D7E7F7
:101C400031B500F009F9044600F006F90099001BCF
:101C50008842F9D338BD7047044910B50A6802427A
:101C600002D00860FFF7F7FF10BD0000143C0140F0
:101C70002DE9F84FDFF8A091002209F1040A0AF1DA
:101C8000040B4FF00F080BF1040E01260B68964071
:101C90003340B34271D14C68022C01D0122C11D1C7
:101CA000D40800EB84073D6A5407E40E08FA04FCEC
:101CB00025EA0C05D1F810C00CFA04FC4CEA050C1E
:101CC000C7F820C007685400032591F804C0A54058
:101CD0000CF0030CAF430CFA04FC4CEA070CC0F800
:101CE00000C04F68012F05D0022F03D0112F01D063
:101CF000122F11D18768D1F80CC0AF430CFA04FC45
:101D00004CEA070CC0F808C04768B7430E79C6F321
:101D1000001696403E434660C668AE438D68A540B7
:101D20003543C5604C68E4006FD53C4C256845F4EC
:101D300080452560246822F0030504F48044009463
:101D4000374C2E19D6F808789407250F08FA05F4B1
:101D5000A743344CA04201D100242EE0324CA042D3
:101D600001D1012429E0314CA04201D1022424E018
:101D70002F4CA04202D103241FE046E02D4CA0428C
:101D800001D1042419E02C4CA04201D1052414E017
:101D90002A4CA04201D106240FE0294CA04201D1D7
:101DA00007240AE0274CA04201D1082405E0264C74
:101DB000A04201D1092400E00A24AC403C43C6F80B
:101DC0000848D9F800404D464E689C43F60300D5BC
:101DD0001C432C60DAF8004055464E689C43B6031D
:101DE00000D51C432C60DBF800405D464E689C43E8
:101DF000F60200D51C432C60DEF8004075464E68A4
:101E00009C43B60200D51C432C60521C102AFFF4E0
:101E10003CAFBDE8F88F0000003C01404438024070
:101E2000003001400000024000040240000802406F
:101E3000000C024000100240001402400018024052
:101E4000001C024000200240002402400AB18161CF
:101E500070470904FBE70000014800687047000074
:101E60000400002002480168491C0160704700001E
:101E7000040000200B4810B5016841F400710160B6
:101E8000016841F480610160016841F48071016082
:101E9000032000F0A9F8002000F006F800F018F880
:101EA000002010BD003C024010B5044607484FF426
:101EB0007A710068B0FBF1F000F038FB0022214697
:101EC000501E00F071F8002010BD00000800002036
:101ED0000B4882B0016841F480410160006800F461
:101EE000804000900648001F016841F08051016069
:101EF000006800F080500090052002B000F074B837
:101F0000443802402DE9F04116460F46040004D043
:101F100094F83900002518B107E00120BDE8F081F0
:101F200084F83850204600F0C3FE242084F839009D
:101F30002068C16821F40051C160204602F00EF80B
:101F40002068016921F4904101612068416921F014
:101F50002A0141612068016921F00F0101612068B7
:101F60000169394301612068C16821F40061C160E1
:101F70002068C1683143C1602068C16841F40051E4
:101F8000C160E563202084F8390084F83A0000201D
:101F9000C4E700F01F02012191404009800000F1D8
:101FA000E020C0F800117047F0B40E4B1B68C3F37B
:101FB0000223C3F10704042C00D904241D1D072D9E
:101FC00001D2002300E0DB1E012606FA04F56D1E97
:101FD0000D409D409E40761E164045EA0601F0BC2D
:101FE00001F0BBBC0CED00E0064A00F007011068F0
:101FF0004FF6FF03184040EA0120034908431060F0
:10200000704700000CED00E00000FA052DE9F047F4
:10201000DFF85C9104460E46D9F8000000F00F018D
:10202000F0B28046B14207D289F80000D9F800002A
:1020300000F00F00B04271D120784E4F800705D5D7
:102040003868A16820F0F000084338602078C007A5
:1020500056D048496068083901281AD002281BD098
:10206000032819D009688907002957DA396821F04F
:10207000030101433960FFF7EFFE0546606841F256
:102080008831012811D002281CD003288A4625D087
:1020900032E009688903E7E709688901E4E7FFF7A7
:1020A000DBFE411B514501D923E08A463868C0F365
:1020B00081000128F3D123E0FFF7CEFE411B5145FB
:1020C00001D916E08A463868C0F381000228F3D1AE
:1020D00016E0FFF7C1FE411B51450AD83868C0F32E
:1020E00081000328F5D10BE0FFF7B6FE411B5145F7
:1020F00002D90320BDE8F087386810F00C0FF3D147
:10210000D9F80010484601F00F01B14208D980F813
:102110000080006800F00F00B04201D00120E9E724
:102120002078400705D53868E16820F4E05008437E
:1021300038602078000706D53868216920F46040AF
:1021400040EAC100386000F04BF83968F02292FA9A
:10215000A2F201F0F001B2FA82F2D140064A515CDB
:10216000C840064908600020FFF79EFE0020C1E736
:10217000003C024008380240584300080800002094
:1021800008480949006809684FF4E05292FAA2F23F
:1021900001F4E051B2FA82F2D140044A515CC840E5
:1021A000704700000800002008380240584300082B
:1021B00008480949006809684FF4604292FAA2F29F
:1021C00001F46041B2FA82F2D140044A515CC84045
:1021D00070470000080000200838024058430008FB
:1021E00030B51948006810F00C01184812D0184C8E
:1021F00004290ED008290DD1134A121F1168136843
:1022000001F03F015D0247F6C07304D5B4FBF1F065
:1022100003E0204630BDB0FBF1F01168194093FA9D
:10222000A3F3B3FA83F3D940484311684FF4403223
:1022300092FAA2F201F44031B2FA82F2D140491C82
:102240004900B0FBF1F030BD083802400024F40032
:10225000001BB7002DE9F84F04460078DFF8B8926C
:10226000AE4DC00735D0D9F800104846C1F3810102
:10227000012908D00068C0F3810002280AD1281D76
:102280000068400206D52868800322D560680028CF
:102290007AD01EE0A1492079891C0870606860B17D
:1022A000FFF7DAFD064604E0FFF7D6FD801B642841
:1022B0006BD828688003F7D50BE0FFF7CDFD064605
:1022C00004E0FFF7C9FD801B6428F1D8286880036B
:1022D000F7D42078924F80074FF0010B4FF00008A1
:1022E00042D5D9F80010484611F00C0F4FF0F80A0B
:1022F00009D00068C0F3810002280BD18648001F76
:102300000068400206D42868800713D5E0680128D9
:102310003AD10FE0E068C8B1C7F800B0FFF79CFD04
:10232000064604E0FFF798FD801B0228C0D8286805
:102330008007F7D528689AFAAAF22169B2FA82F2E0
:1023400020F0F8009140084328600DE0C7F80080B5
:10235000FFF782FD064604E0FFF77EFD801B0228A2
:1023600013D828688007F7D42078000727D5DFF82E
:10237000A8A16C4861690AF16C0A89B1C0F800B083
:10238000FFF76AFD064606E0C3E076E0FFF764FD6E
:10239000801B022871D8DAF800008007F6D50EE01D
:1023A000C0F80080FFF758FD064604E0FFF754FD33
:1023B000801B022861D8DAF800008007F6D4207864
:1023C000400746D554483830016841F080510160DB
:1023D0000068DFF854A100F080500090DAF8001097
:1023E00041F48071CAF80010FFF736FD064604E09C
:1023F000FFF732FD801B02283FD8DAF80000C00545
:10240000F6D5DFF814A1207A0AF1680A8AF80000EC
:10241000A06878B1FFF720FD064606E0FFF71CFD37
:10242000811B41F2883081426BD8DAF800008007C6
:10243000F4D50EE0FFF710FD064606E0FFF70CFDB1
:10244000811B41F2883081425BD8DAF800008007B6
:10245000F4D4A069F0B3D9F80010C1F381010229C6
:1024600057D00228C7F8608003D0FFF7F5FC044678
:102470004AE0FFF7F1FC064605E042E0FFF7ECFC1E
:10248000801B02283DD828688001F7D4D4E90701D1
:10249000084347F6C07292FAA2F2616AB2FA82F277
:1024A0009140A26A4FF0FF3303EB52024FF44033E6
:1024B00093FAA3F3B3FA83F39A40114308434FF01E
:1024C000706292FAA2F2E16AB2FA82F29140084393
:1024D000114900E01BE0091F0860C7F860B0FFF772
:1024E000BBFC044604E0FFF7B7FC001B022808D839
:1024F00028688001F7D50AE0FFF7AEFC001B022830
:1025000002D90320BDE8F88F28688001F4D40020A8
:10251000F8E70120F6E700000838024000380240E2
:1025200000004742800E47420070004010B5401E38
:10253000B0F1807F01D3012010BD4FF0E024606135
:102540000F21601701F009FA0020A0610720206127
:10255000002010BD7047704730B590F83820012A30
:1025600019D0012400F8384F02224270D1E900232B
:102570001A43D1E902352B431A430B691A434B69BD
:1025800089691A430A4350F8381C4A644470002190
:102590000170084630BD022030BD30B590F83820BB
:1025A000012A20D0012380F83830022280F8392017
:1025B0000268546824F070045460026854680D681E
:1025C0002C4354600268946824F08004946002688C
:1025D000946849680C43946080F83930002180F891
:1025E0003810084630BD022030BD10B5040003D0BD
:1025F00094F8390010B107E0012010BD002084F8E4
:102600003800204600F00CF8022084F83900211D23
:10261000206801F09BFA012084F83900002010BDE9
:1026200008B5214B026821499A4207D10A6842F055
:1026300008020A600A6802F00802009200681C4A58
:1026400090420AD11948001D016841F00101016062
:10265000006800F00100009008BDB0F1804F14D078
:10266000144A9042F8D1086840F0020008600868F7
:10267000012200F00200009011461D20FFF794FC9B
:102680001D20BDE80840FFF784BC086840F0010049
:1026900008600868022200F00100009001211C205F
:1026A000FFF782FC1C20ECE7000C004040380240A1
:1026B00000000140000400400168CA6842F00102C5
:1026C000CA600068016841F00101016000207047A4
:1026D00070B5044690F83800012817D0012584F819
:1026E0003850022084F839002068826822F077028E
:1026F00022F47F4282600868502836D00DDC202802
:1027000058D005DC80B3102840D150E0022070BDC5
:10271000302852D0402839D13EE060282DD0702892
:102720000BD0B0F5805F03D0B0F5005F2ED110E084
:102730002068816821F0070109E0CB68D1E9012117
:10274000206801F06EFA2068816841F077018160AD
:102750001CE0CB68D1E90121206801F062FA206811
:10276000816841F48041F2E71EE0CA684968206848
:1027700001F020FB5021206806E0CA684968206803
:1027800001F029FB6021206801F055FA84F83950E6
:10279000002084F8380070BDCA684968206801F0DC
:1027A00009FB40212068EFE700212068ECE71021B9
:1027B0002068E9E720212068E6E730212068E3E788
:1027C000704770B50446006801694FF00005C943C1
:1027D000890715D4C168C943890711D4E91E01616D
:1027E00001202076206880698007204602D0FFF70C
:1027F000E7FF04E000F002F9204600F084F92576B6
:1028000020680169C943490717D4C168C94349070A
:1028100013D46FF0040101610220207620688069E2
:1028200010F4407F204602D0FFF7CAFF04E000F01A
:10283000E5F8204600F067F9257620680169C9436C
:10284000090716D4C168C943090712D46FF00801FB
:102850000161042020762068C0698007204602D0EC
:10286000FFF7AEFF04E000F0C9F8204600F04BF996
:10287000257620680169C943C90617D4C168C943D0
:10288000C90613D46FF0100101610820207620687A
:10289000C06910F4407F204602D0FFF791FF04E0AA
:1028A00000F0ACF8204600F02EF92576206801698A
:1028B000C943C90708D1C168C943C90704D1891EE2
:1028C0000161204600F03CF920680169C94309060E
:1028D00009D4C168C943090605D46FF080010161BC
:1028E0002046FFF737FE20680169C943490609D42D
:1028F000C168C943490605D46FF040010161204613
:1029000000F01FF920680169C94389060BD4C1682A
:10291000C943890607D46FF0200101612046BDE854
:102920007040FFF718BE70BD70B586B00446142124
:102930006846FDF770FC2A4A2168002429480225D0
:102940000126914222D1016841F001010160016834
:1029500001F001010591016841F01001016000687A
:10296000694600F01000059050150090CDE9015423
:10297000CDE903461C48FFF77BF928030090CDE919
:102980000154CDE903466946184824E0184A9142AB
:1029900023D1016841F480710160016801F4807104
:1029A0000591016841F08001016000680096CDE961
:1029B000015400F08000CDE90450694603940D48AD
:1029C000FFF756F94FF480500090CDE90154694665
:1029D0000948CDE90345FFF74BF906B070BD00008B
:1029E0000000014030380240000002400010024068
:1029F000000C004000200240001C0240704770B5EF
:102A0000044690F838000D4601280DD0012684F8C0
:102A10003860022084F8390042B1042A18D0082A0C
:102A20002AD00C2A4DD139E0022070BD206801F077
:102A30000BF92068816941F0080181612068816992
:102A400021F004018161206881692A69114311E044
:102A5000206801F025F92068816941F400618161F5
:102A60002068816921F480618161206881692A6917
:102A700041EA0221816124E0206801F043F92068E5
:102A8000C16941F00801C1612068C16921F00401F8
:102A9000C1612068C1692A69114311E0206801F011
:102AA00061F92068C16941F40061C1612068C169B0
:102AB00021F48061C1612068C1692A6941EA02216B
:102AC000C16184F83960002084F8380070BD10B509
:102AD000040003D094F8390010B107E0012010BDC4
:102AE000002084F83800204600F00CF8022084F81A
:102AF0003900211D206801F029F8012084F83900EF
:102B0000002010BD7047704710B5044600680122D0
:102B100001F07CF808482168814202D007488142D0
:102B200003D1486C40F4004048642068016841F0DB
:102B300001010160002010BD0000014000040140BF
:102B40007047704710B504460068416994F8392011
:102B5000C1F3C011212A0BD151B1416921F080018B
:102B60004161206B08B1FEF79AFE204601F0A7F9FB
:102B70002068416994F83A20C1F38011222A0BD1D0
:102B800051B1416921F040014161606B08B1FEF72C
:102B900086FE204601F085F9002010BD7047000038
:102BA00070B5026804461068D168536910F00F0FC1
:102BB00050D003F0010501F4907635435DD0C20793
:102BC00005D0CA0503D5E26B42F00102E263420779
:102BD00005D5DA0703D0E26B42F00202E263820716
:102BE00005D5DA0703D0E26B42F00402E263020784
:102BF00005D5DA0703D0E26B42F00802E263E26B2C
:102C0000002A33D0800604D5880602D5204601F07C
:102C10005FF920684069E16BC0F38010090700D4B8
:102C200028B3204601F03DF92068416949061AD5CC
:102C3000416921F040014161606BA0B11B49016510
:102C4000606BFEF773FE002810D0606B016DBDE86D
:102C500070400847830610D58B060ED52046BDE888
:102C6000704001F035B92046FFF798FF70BD20464F
:102C7000FFF794FF0020E06370BD030606D50B0646
:102C800004D52046BDE8704001F0BEBA4006F3D539
:102C90004806F1D5D168204621F04001D1602021BD
:102CA00084F8391000F0CCF970BD0000033E000834
:102CB0002DE9F04F87B0044614216846FDF7ABFAC2
:102CC000AE48DFF8B4821038D4F800C0AB4B022213
:102CD00003210827DFF8A8A2002506154FF0C00E33
:102CE0004FF02069C44535D1D3F800C04CF0804C7A
:102CF000C3F800C01B6803F080430593036843F0EA
:102D0000200303600068CDE9025100F02000CDE906
:102D10000470CDE900E269465046FEF7A9FF9A4FDC
:102D200098483860C7E90195C7E903567D61BD61E0
:102D3000FD613D6238467D62FEF7DEFE08B1FDF7BB
:102D4000E0FE6763002201215220BC63FFF72CF9EB
:102D5000522039E0DFF83482C4453AD1D3F800C0BC
:102D60004CF0004CC3F800C01B6803F0004305930F
:102D7000036843F010030360006800F01000059042
:102D80008DE82600CDE9031769465046FEF770FF2F
:102D90007D4F7C48603748303860C7E90195C7E906
:102DA00003567D61BD61FD613D6238467D62FEF77F
:102DB000A3FE08B1FDF7A5FE6763002201215320A1
:102DC000BC63FFF7F1F85320FFF7E3F807B0BDE865
:102DD000F08FDFF8BC81DFF8A4A14FF0070B0AF1F8
:102DE000040AC44539D1DAF8007047F01007CAF870
:102DF0000070DAF8003003F010030593036843F025
:102E0000020303600068CDE9025100F00200CDE941
:102E100004B0CDE900E269465E48FEF729FF5A4F4B
:102E20005D48C03738604FF00060C7E90105C7E969
:102E300003567D61BD61FD613D6238467D62FEF7EE
:102E40005BFE08B1FDF75DFE6763032201212520CB
:102E5000BC63FFF7A9F82520B6E7DFF84081C44539
:102E60004CD11F6847F480271F601B6803F4802340
:102E70000593036843F0080303600068CDE902513D
:102E800000F0080005904FF44070CDE90002CDF845
:102E900010B069464248FEF7EBFE3A48414F3038E1
:102EA00038604FF00060C7E90105C7E903567D614E
:102EB000BD61FD613D6238467D62FEF71DFE08B1D1
:102EC000FDF71FFE6763BC63364F2E48603718302E
:102ED00038604005786007F10801402081E8610012
:102EE0007D61BD61FD613D6238467D62FEF704FE95
:102EF00008B1FDF706FE2763BC6367E72A4B9C45D4
:102F0000FBD1DAF800C04CF0200CCAF800C0DAF8A7
:102F1000003003F020030593036843F0400303608F
:102F20000068CDE9025100F0400005904FF4844064
:102F3000CDE90002049769461C48FEF799FE194F37
:102F40001548C03718383860C7E90195C7E90356F6
:102F50007D61BD61FD613D6238467D62FEF7CCFD5D
:102F600008B1FDF7CEFD6763002201214720BC6355
:102F7000FFF71AF8472027E7007800404038024062
:102F8000001002405860024034040020007C0040E1
:102F9000001001400004024040640240004800402C
:102FA000000C0240540500200014014000180240AB
:102FB00037B5044690F83A001346202836D1019AD6
:102FC0008AB383B394F8380001282FD0012084F805
:102FD0003800A262A3850025E563222084F83A0028
:102FE000616B1348C863616B12480864616B1248D7
:102FF000C864606B05652168606B091DFEF7E4FD20
:103000002068C16841F48071C1602068416941F065
:10301000010141612068416941F04001416184F84A
:10302000385000203EBDFFE70120FBE70220F9E712
:103030005D3E0008993E0008133E00087047704747
:10304000704700002DE9F0436D4B00249FED6D1A91
:10305000DFF8B491A3F10806015D5A297ED1011968
:103060004A78A52A7AD1B1F80280A6F80680898824
:1030700071800025A8F10508ADE001448F79C02FCB
:1030800047D008DC902F0FD0A02F42D0A52F40D0E2
:10309000B02F0AD10BE0D02F3DD0D12F7ED0D92F29
:1030A0007DD0F02F01D1A9E0521CB28092E0CF79FF
:1030B0001F700F7A5F70B3F9007000EE107A524FF4
:1030C000B8EEC00A0C3F20EE010A87ED000A91F825
:1030D00009C083F800C091F80AC083F801C0B3F9B1
:1030E00000C000EE10CAB8EEC00A20EE010A87ED5B
:1030F000010A91F80BC083F800C0097B5970B3F93D
:10310000001000EE101AB8EEC00A20EE010A87ED9A
:10311000020A921DC9E7CF791F700F7A5F70B3F969
:10312000007000EE107AF8EEC00A9FED380A60EEEB
:10313000800AC9ED000A91F809C083F800C091F82F
:103140000AC083F801C0B3F900C000EE90CAF8EEDF
:10315000E00A20EE800A89ED010A00E044E091F8DF
:103160000BC083F800C0097B5970B3F90010DFED84
:10317000280A00EE101A921DB280B8EEC00A254A45
:1031800020EE010A30EE200A89ED020AD6ED040A8B
:1031900070EE600A10EE901A914201E02CE029E0F6
:1031A00002D97169491C06E010EE901A1A4A914240
:1031B00002DD7169491E7161D6ED050A9FED172A7E
:1031C000F8EEE01AF0EE400A41EE820AC6ED060A79
:1031D00086ED040A6D1CB288A11829448F1D47454D
:1031E0007FF74BAF0022B280641C282CFFF634AF6F
:1031F000BDE8F0830C3258E7103256E7121D54E751
:103200002C000020CDCCCC3D7C0700200AD7233CED
:1032100000003443000096C3000096430000B4430E
:10322000184808B500680168C943C90629D401686F
:10323000406800901448154A4FF40011006890420D
:1032400002D912484C3804E0114A904203D90F4881
:103250005038016008E00E4B0D4A603BB83A984286
:1032600001D9D16000E091600648FFF76BFC28228D
:1032700008490448FFF79CFEBDE808400548FFF7F1
:10328000E1BE08BD340300209404002058640240CD
:10329000B8600240CB020020FEE70000054800684D
:1032A000C16841F01001C160282203490148FFF7BD
:1032B0007FBE000034030020CB020020104810B570
:1032C0000E4901600321416000214FF4002281601A
:1032D000C0E903124FF44012C0E90521C161016247
:1032E000416281620121C162FEF7B6F8002803D075
:1032F000BDE81040FDF705BC10BD000000640040B3
:103300003C010020104810B50E49016003214160C6
:1033100000214FF400228160C0E903124FF44012F3
:10332000C0E90521C1610162416281620121C1627E
:10333000FEF792F8002803D0BDE81040FDF7E1BB8E
:1033400010BD0000006800407C010020214808B545
:10335000016841F480010160016801F4800100917D
:10336000016841F4001101600068002200F40010BF
:10337000009011460C20FEF717FE0C20FEF709FE08
:10338000002211460E20FEF70FFE0E20FEF701FE72
:10339000002211460F20FEF707FE0F20FEF7F9FD71
:1033A000002211461120FEF7FFFD1120FEF7F1FD6E
:1033B000002211463920FEF7F7FD3920FEF7E9FD1E
:1033C000002211463A20FEF7EFFDBDE808403A2002
:1033D000FEF7DFBD30380240F0B587B014216846F3
:1033E000FCF719FF35480024016841F01001016025
:1033F000016801F010010591016841F04001016090
:10340000016801F040010591016841F0020101608D
:10341000016801F002010591016841F008010160B5
:10342000016801F008010591016841F001010160A6
:10343000016801F001010591016841F0800101601E
:10344000016801F080010591016841F020010160EF
:103450000068012200F02000194E5503059029460E
:103460003046FEF7F3FC174F012230213846FEF7B5
:10347000EDFC00950125CDE90154694630460394E1
:10348000FEF7F6FB30200090CDE90154694638463E
:103490000394FEF7EDFB280300900B48CDE90104EF
:1034A00069460A48FEF7E4FB012211462820FEF790
:1034B0007BFD2820FEF76DFD07B0F0BD30380240DF
:1034C00000180240001C024000001110000C0240D5
:1034D00010B594B000240E940F941094119412948B
:1034E0001C2168461394FCF796FE1C2107A8FCF7E4
:1034F00092FE2D482B490160A721C0E9011440F23A
:10350000CF71C0E903144461FFF76FF808B1FDF70C
:10351000F8FA4FF480500E900EA92348FFF7D8F820
:1035200008B1FDF7EEFA2048FFF7D1FA08B1FDF730
:10353000E8FA129412A91C481394FFF72EF808B168
:10354000FDF7DFFA6020009040F2E730CDE901049A
:103550000394049405940422694613480694FFF7E3
:103560004EFA08B1FDF7CDFA082269460E48FFF77A
:1035700046FA08B1FDF7C5FA0794089409944FF488
:1035800000500A94CDE90B4007A907480D94FEF7B7
:10359000E3FF08B1FDF7B5FA0348FFF7C5F914B02A
:1035A00010BD000000000140BC01002010B586B035
:1035B00000241648009401940294039404944FF05C
:1035C00080410594016042F2CF01C0E90114272136
:1035D000C0E90314FFF709F808B1FDF792FA4FF4B8
:1035E0008050009069460948FFF772F808B1FDF76E
:1035F00088FA049404A905480594FEF7CEFF002834
:1036000001D0FDF77EFA06B010BD0000F8010020E1
:1036100010B586B0002416480094019402940394D7
:10362000049412490594016042F2CF01C0E90114EB
:103630002721C0E90314FEF7D8FF08B1FDF761FAAE
:103640004FF48050009069460948FFF741F808B1EF
:10365000FDF757FA049404A905480594FEF79DFF69
:10366000002801D0FDF74DFA06B010BD000400405F
:103670003402002010B58EB00024079408940994F9
:103680000A940B941C2168460C94FCF7C4FD234853
:10369000214901605321C0E9011444F61F61C0E9CA
:1036A0000314FEF7A2FF08B1FDF72BFA4FF4805088
:1036B000079007A91948FFF70BF808B1FDF721FAA1
:1036C0001648FFF704FA08B1FDF71BFA0B940BA993
:1036D00012480C94FEF761FF08B1FDF712FA602062
:1036E00000904FF4FA70CDE90104082269460B48B6
:1036F0000494FFF784F908B1FDF703FA0C22694638
:103700000648FFF77CF908B1FDF7FBF90348FFF71E
:103710000BF90EB010BD0000000C0040700200203C
:103720000D4810B50B4901604FF461314160002133
:1037300081600C22C160C0E9041281610A46C16146
:10374000FEF7E0FB002803D0BDE81040FDF7D9B933
:1037500010BD000000780040F40200200D4810B5B4
:103760000B4901604FF4E131416000218160042286
:10377000C160C0E9041281610A46C161FEF7C2FB63
:10378000002803D0BDE81040FDF7BBB910BD000014
:10379000007C0040340300200D4810B50B49016047
:1037A0000C49416000214FF480628160C0E903123E
:1037B0000422C0E905210A46C161FEF7A3FB0028E7
:1037C00003D0BDE81040FDF79CB910BD00100140CA
:1037D00074030020A08601000D4810B50B4901605C
:1037E0004FF4E1314160002181600C22C160C0E9E9
:1037F000041281610A46C161FEF784FB002803D0F0
:10380000BDE81040FDF77DB910BD00000048004044
:10381000B40300200D4810B50B4901604FF4E131AD
:103820004160002181600C22C160C0E90412816105
:103830000A46C161FEF766FB002803D0BDE81040D0
:10384000FDF75FB910BD000000140140F403002033
:10385000FEE7000070B506460021705CA52822D165
:10386000721850785A281ED1114B52F8114F9FED03
:10387000111A43F8324F5068586095689D6000EE09
:10388000105A0B4BC0EE010A323300EE104A10EE14
:10389000900ADFED0A0A9860074803784370127BAC
:1038A000027000F06BF8491C1F29D6DB70BD0000C8
:1038B000F406002000007A440C0000206666663F93
:1038C000184808B500680168C943C90629D40168C9
:1038D000406800901448154A4FF00061006890421B
:1038E00002D912484C3804E0114A904203D90F48DB
:1038F0005038016008E00E4B0D4A603BB83A9842E0
:1039000001D9D16000E091600648FFF71BF91F2242
:1039100008490448FFF74CFBBDE808400548FFF79D
:1039200099BF08BDF402002034040020586402400E
:10393000B8600240AC02002005480068C16841F050
:103940001001C1601F2203490148FFF731BB00008D
:10395000F4020020AC02002070470907090E00287D
:1039600006DA00F00F0000F1E02080F8141D704727
:1039700000F1E02080F8001470477047B7EE001A9D
:10398000054831EE601A21EE000A90ED021A00EEB1
:10399000810A80ED020A70470C000020704710B5C4
:1039A000FCF7C4FDBDE81040AFF300802248234976
:1039B0000078C20701D1400701D5012000E00020B6
:1039C000887010F0FF0002D001282ED104E04FF4DF
:1039D0007A704860886028E04868401D00EE100A50
:1039E0004860B8EEC01A91ED060AFDEEC00AB4EECA
:1039F000C01AF1EE10FA01DBC1ED010A91ED011AD6
:103A0000B8EEC11AB4EE401AF1EE10FA0DD1886882
:103A1000401D01EE100A8860B8EEC11AB4EEC01A5B
:103A2000F1EE10FA01DBC1ED020A05484A68826333
:103A30008968C163704700000E0000200801002063
:103A400000000140FEF70EBA30B593B03021684651
:103A5000FCF7E1FB14210CA8FCF7DDFB194800255D
:103A6000016841F080510160006800F080501190C1
:103A70001548016841F4404101600068022400F4E7
:103A8000404011900120009001908005CDE9064052
:103A900006200890A820CDE9090404200B90684670
:103AA000FEF7D8FB0CA90F2081E831004FF4A0509D
:103AB0000F90E002109005210CA8FEF7A7FA13B0B2
:103AC00030BD0000403802400070004010480168DE
:103AD00041F4700101600F48016841F0010101608B
:103AE0000C4A00210832116002680B4B1A40026038
:103AF000031D0A4A1A60026822F480220260054807
:103B00000C30016002495806803908607047000097
:103B100088ED00E000380240FFFFF6FE1030002480
:103B200010B5FFF73CFFFDF7FDF8FCF7FFFCFCF7D5
:103B3000B1FEBDE810400148FEF743BEF801002089
:103B40000148FEF73EBE000034020020F0B50268D6
:103B5000234D244E244FDFF894C0254B4FF0804E68
:103B6000A84209D0704507D0B04205D0B84203D072
:103B7000604501D0984203D122F070044A68224384
:103B8000A8421BD0704519D0B04217D0B84215D00A
:103B9000604513D0984211D0164CA0420ED0164C5E
:103BA000A0420BD0154CA04208D0154CA04205D025
:103BB000144CA04202D0144CA04203D122F4407411
:103BC000CA68224302608A68C2620A688262A842A6
:103BD00001D0984201D10969016301214161F0BD21
:103BE000000001400004004000080040000C0040BC
:103BF00000040140004001400044014000480140F1
:103C000000180040001C00400020004010B50123B7
:103C1000046A8B409C430462036A8A401343036234
:103C200010BD10B5846842EA032224F47F440A439D
:103C30002243826010BD826822F070020A4342F083
:103C4000070181607047000030B5026A22F001026E
:103C50000262056A426883690C6823F073031C439F
:103C60008B6825F002052B430B4DA84202D00B4D6B
:103C7000A8420BD123F00805CB6822F440722B43F5
:103C80004D6923F0040315438A692A434260846125
:103C900049684163036230BD0000014000040140F7
:103CA00030B5026A22F010020262036A4268846937
:103CB0000D6824F4E64444EA05248D6823F02003CB
:103CC00043EA05130D4DA84202D00D4DA8420ED176
:103CD000CD6823F0800343EA05134D6922F4406266
:103CE00042EA85028D6923F0400342EA8502426080
:103CF000846149688163036230BD000000000140B7
:103D00000004014030B5026A22F480720262036A44
:103D10004268C46923F4007324F073050C682C43D3
:103D20008D6843EA05230D4DA84202D00C4DA842F0
:103D30000ED1CD6823F4006343EA05234D6922F4D4
:103D4000405242EA05128D6923F4806342EA05126B
:103D50004260C4614968C163036230BD0000014034
:103D60000004014030B5026A22F480520262036A04
:103D70004268C4690D6824F4E64444EA05248D6869
:103D800023F4005343EA0533084DA84202D0084DFE
:103D9000A84204D14D6922F4804242EA8512426071
:103DA000C46149680164036230BD00000000014045
:103DB0000004014010B5046A036A23F001030362A2
:103DC000836923F0F00343EA021324F00A020A4352
:103DD0008361026210BD10B5036A23F01003036211
:103DE0008469036A24F4704444EA023223F0A00395
:103DF00043EA01118261016210BDFFF761BDFFF767
:103E00000FBA10B5806B0021C185C184FEF7C6FED4
:103E100010BD70B5846B2068406994F83910C0F308
:103E2000C0100025212904D118B1E584204600F0F6
:103E300046F82068406994F83A10C0F380102229AF
:103E400004D118B1E585204600F02BF8E06B40F076
:103E50001000E0632046FEF7A1FE70BD10B50146DC
:103E6000806B09680968C90513D40021C185016800
:103E7000CA6822F48072CA6001684A6922F00102AD
:103E80004A6101684A6922F040024A61202180F8B3
:103E90003A10FFF7D3F810BD10B5806BFFF7CFF8DD
:103EA00010BD0168CA6822F49072CA6001684A694C
:103EB00022F001024A61202180F83A10704701681F
:103EC000CA6822F0C002CA60202180F83910704709
:103ED00010B590F83A10222901D0022010BD816857
:103EE000B1F5805F11D00169002901681FD04968D0
:103EF00001F07F03816A4A1C82620B70C18D491EEA
:103F00000904090CC18518D026E00269816A002ADB
:103F10000268526805D0D2B20A80816A491C816267
:103F2000ECE7C2F308020A80816A891CF7E74A6855
:103F3000816A4B1C83620A70E0E70168CA6822F458
:103F40009072CA6001684A6922F001024A61202128
:103F500080F83A10FFF772F8002010BD2DE9F0410B
:103F600004460068016921F44052E168114301618F
:103F70002068C16849F20C6291432369A268E5692F
:103F80001A4363692B431A430A43C260206841699C
:103F9000A26921F440710A434261E0696425B0F5E9
:103FA000004F974A974920684FF032083FD0884227
:103FB00001D090427CD1FEF7FBF800EBC00101EB91
:103FC000001061688900B0FBF1F6FEF7F1F800EB34
:103FD000C00101EB001061688900B0FBF1F0B0FB9B
:103FE000F5F06FF01801484306EB800108EB011073
:103FF000B0FBF5F000F0F006FEF7DAF800EBC001D8
:1040000001EB001061688900B0FBF1F0B0FBF5F046
:1040100006EB0016FEF7CCF800EBC00101EB001038
:1040200061688900B0FBF1F7FEF7C2F8D2E0884280
:1040300001D090423DD1FEF7BBF800EBC00101EB8F
:10404000001061684900B0FBF1F0B0FBF5F006012B
:10405000FEF7AEF800EBC00101EB0010616849000B
:10406000B0FBF1F7FEF7A4F800EBC00101EB001084
:1040700061684900B0FBF1F0B0FBF5F06FF018019A
:10408000484307EB800108EBC100B0FBF5F000F0FE
:10409000F80006EB4006FEF78BF800EBC00101EBE1
:1040A000001061684900B0FBF1F7FEF781F83CE0D1
:1040B00055E0FEF765F800EBC00101EB0010616808
:1040C0004900B0FBF1F0B0FBF5F00601FEF758F83F
:1040D00000EBC00101EB001061684900B0FBF1F793
:1040E000FEF74EF800EBC00101EB001061684900DB
:1040F000B0FBF1F0B0FBF5F06FF01801484307EBAF
:10410000800108EBC100B0FBF5F000F0F80006EB11
:104110004006FEF735F800EBC00101EB00106168C6
:104120004900B0FBF1F7FEF72BF800EBC00101EB03
:10413000001061684900B0FBF1F0B0FBF5F06FF0E2
:104140001801484307EB800108EBC100B0FBF5F014
:1041500000F00700216830448860BDE8F081FEF778
:104160000FF800EBC00101EB001061688900B0FBA3
:10417000F1F6FEF705F800EBC00101EB00106168F5
:104180008900B0FBF1F0B0FBF5F06FF01801484387
:1041900006EB800108EB0110B0FBF5F000F0F00633
:1041A000FDF7EEFF00EBC00101EB00106168890034
:1041B000B0FBF1F0B0FBF5F006EB0016FDF7E0FF09
:1041C00000EBC00101EB001061688900B0FBF1F762
:1041D000FDF7D6FF00EBC00101EB0010616889001C
:1041E000B0FBF1F0B0FBF5F06FF01801484307EBBE
:1041F000800108EB0110B0FBF5F000F00F00A9E71B
:10420000001401400010014090F83910212901D01C
:10421000022070478168B1F5805F016A0BD04A1CAB
:104220000262026809785160C18C491E0904090CB8
:10423000C1840ED017E009880268C1F308015160FB
:1042400001690029016A02D0491C0162ECE7891C5E
:10425000FBE70168CA6822F08002CA600068C16892
:1042600041F04001C1600020704700000148FEF7A6
:1042700097BC000074030020FCF71CB9FEE702E0C5
:1042800008C8121F08C1002AFAD1704770470020E1
:1042900001E001C1121F002AFBD17047FDF7EAFDC2
:1042A000FFF7D2FBFFF798F8FFF750F8FFF706F893
:1042B000FFF728F8FFF77AF9FFF7AAF9FFF7DAF91D
:1042C000FFF76AFAFFF704F9FFF786FAFFF7A2FA99
:1042D000FFF726FAFFF742FAFCF75CFBFCF778FBE6
:1042E00011480068416941F002014161FEF7D6FFC3
:1042F00040F6B830FDF7A4FC04210C48FEF704FC9E
:1043000008210A48FEF700FC08210948FEF7FCFBDB
:104310000C210748FEF7F8FB0648FEF7CDF9FCF73D
:1043200083F8FFF709FBFEE73C010020BC010020F9
:1043300070020020F8010020B7EE001A054831EEA7
:10434000601A21EE000A90ED021A00EE810A80ED5B
:10435000020A70474400002000000000010203042C
:1043600001020304060708090006101600061016CD
:10437000005EBCE2613FDD83C29C7E20A3FD1F4145
:104380009DC3217FFCA2401E5F01E3BD3E6082DC35
:10439000237D9FC1421CFEA0E1BF5D0380DE3C6225
:1043A000BEE0025CDF81633D7C22C09E1D43A1FF15
:1043B0004618FAA427799BC584DA3866E5BB590705
:1043C000DB856739BAE406581947A5FB7826C49AF5
:1043D000653BD987045AB8E6A7F91B45C6987A24E5
:1043E000F8A6441A99C7257B3A6486D85B05E7B9D5
:1043F0008CD2306EEDB3510F4E10F2AC2F7193CDC5
:10440000114FADF3702ECC92D38D6F31B2EC0E50B4
:10441000AFF1134DCE90722C6D33D18F0C52B0EEA4
:10442000326C8ED0530DEFB1F0AE4C1291CF2D7394
:10443000CA947628ABF517490856B4EA6937D58B84
:104440005709EBB536688AD495CB2977F4AA481674
:10445000E9B7550B88D6346A2B7597C94A14F6A864
:10446000742AC896154BA9F7B6E80A54D7896B3554
:104470000000891112239B322446AD573665BF7464
:10448000488CC19D5AAFD3BE6CCAE5DB7EE9F7F814
:104490008110080193331A22A5562C47B7753E6444
:1044A000C99C408DDBBF52AEEDDA64CBFFF976E8F4
:1044B00002218B30100299132667AF763444BD5524
:1044C0004AADC3BC588ED19F6EEBE7FA7CC8F5D9D4
:1044D00083310A2091121803A7772E66B5543C4504
:1044E000CBBD42ACD99E508FEFFB66EAFDD874C9B4
:1044F00004428D5316619F702004A9153227BB36E4
:104500004CCEC5DF5EEDD7FC6888E1997AABF3BA93
:1045100085520C4397711E60A1142805B3373A26C3
:10452000CDDE44CFDFFD56ECE9986089FBBB72AA73
:1045300006638F7214409D512225AB343006B917A3
:104540004EEFC7FE5CCCD5DD6AA9E3B8788AF19B53
:1045500087730E6295501C41A3352A24B116380783
:10456000CFFF46EEDDDC54CDEBB962A8F99A708B33
:10457000088481951AA793B62CC2A5D33EE1B7F063
:104580004008C919522BDB3A644EED5F766DFF7C13
:10459000899400859BB712A6ADD224C3BFF136E043
:1045A000C1184809D33B5A2AE55E6C4FF77D7E6CF3
:1045B0000AA583B4188691972EE3A7F23CC0B5D123
:1045C0004229CB38500AD91B666FEF7E744CFD5DD3
:1045D0008BB502A499961087AFF326E2BDD034C103
:1045E000C3394A28D11A580BE77F6E6EF55C7C4DB3
:1045F0000CC685D71EE597F42880A1913AA3B3B2E3
:10460000444ACD5B5669DF78600CE91D722FFB3E92
:104610008DD604C79FF516E4A9902081BBB332A2C2
:10462000C55A4C4BD7795E68E11C680DF33F7A2E72
:104630000EE787F61CC495D52AA1A3B03882B193A2
:10464000466BCF7A5448DD59622DEB3C700EF91F52
:104650008FF706E69DD414C5ABB122A0B992308382
:10466000C77B4E6AD5585C49E33D6A2CF11E780F32
:1046700090460008000000203C010000A80200084D
:10468000044700083C0100201C0D00008E42000879
:1046900091035F24F4672041CDCCCC3D23C8422355
:1046A00096431AA008B12460EA462A40281A3E1C04
:1046B0004A41282316440A115C281A702063803F5F
:1046C0001A484C292C4EA042CDCC4C144C401C46D0
:1046D000284BA040505AF05029781AF0641A4C1414
:1046E0001A20144BFA4328214BE70304113C803B6A
:1046F00045781B80BB041AA280412A5034895C197A
:0447000004000000B1
:04000005080001AD41
:00000001FF
