:020000040800F2
:10000000A0180020C1010008516300082D4E00080F
:10001000E16000082D110008417F00080000000089
:100020000000000000000000000000000572000851
:10003000B51C00080000000073630008E9740008A4
:10004000DB010008DB010008DB010008DB01000820
:10005000DB010008DB010008B91C0008DB01000817
:10006000DB010008DB010008DB010008DB01000800
:10007000D9190008DB010008E5190008DB010008B8
:10008000DB010008F1190008750C0008DB0100080D
:1000900031110008DB010008DB010008E51C000845
:1000A000DB010008DB010008DB010008DB010008C0
:1000B0001D76000855760008DB010008DB0100080A
:1000C000DB010008DB010008DB010008DB010008A0
:1000D000DB010008237F0008DB010008277F000800
:1000E000CD1C0008DB010008DB010008DB01000873
:1000F000DB010008DB010008DB010008DB01000870
:10010000DB010008DB010008DB010008DB0100085F
:10011000DB010008DB010008DB0100086D76000848
:10012000FD190008091A0008151A0008DB0100086B
:10013000DB010008DB010008DB010008DB0100082F
:1001400051110008DB010008DB010008DB01000899
:10015000DB010008211A0008DB0100082D7F0008E0
:10016000DB010008DB010008DB010008DB010008FF
:10017000DB010008DB010008DB01000800000000D3
:10018000DB010008DB010008C1790008C57900081F
:10019000DB010008DB010008DB010008DB010008CF
:1001A0000000000000000000DB010008DFF80CD0B8
:1001B00000F0E2FC00480047F58C0008A018002081
:1001C0000648804706480047FEE7FEE7FEE7FEE7F1
:1001D000FEE7FEE7FEE7FEE7FEE7FEE781750008C3
:1001E000AD0100082DE9F05F0546002092469B46D0
:1001F00088460646814640241BE02846414647463D
:10020000224600F0B2FB53465A46C01A914110D321
:1002100011461846224600F099FB2D1A67EB01089B
:100220004F4622460120002100F090FB17EB000909
:100230004E41201EA4F10104DFDC484631462A4627
:100240004346BDE8F09F40EA01039B0703D009E065
:1002500008C9121F08C0042AFAD203E011F8013BB2
:1002600000F8013B521EF9D27047D2B201E000F80B
:10027000012B491EFBD270470022F6E710B513464A
:100280000A4604461946FFF7F0FF204610BDF0B4B9
:1002900080EA0102D40F4200B2EB410F02D20246C3
:1002A000084611464A0042D0C30DDDB2C1F3C75221
:1002B000AD1A202D35DAC1F3160141F4000204B164
:1002C0005242C5F1200602FA06F12A411044B3EB6E
:1002D000D05F23D0C4B1012DA0EBC35009DCF0BC2A
:1002E0004FF0004202EAC352DBB200F5000000F01A
:1002F00067BB400000F1807000EBC350A0F180703C
:1003000040EAD170490009E0490841EAC071A0EB18
:10031000C35000F50000400800EBC350F0BC00F0F3
:1003200046BB6142012202EB4101001BF6E7F0BC33
:10033000704781F00041AAE780F00040A7E780EA1B
:10034000010210B502F00043400022D04A001FD045
:10035000010E01EB1261C0F35600C2F3560240F4E5
:10036000000042F40002A0FB022000047F391404C4
:1003700000D0401C50EA124001D44000491EC2B2D5
:100380000C0604EBD010401C4008802A02D003E089
:10039000002010BD20F00100002900DA00201843E1
:1003A00010BD30B480EA010202F0004530F0004296
:1003B00021F0004013D090B1C30DD40DC2F316014B
:1003C000C0F31600E41A41F4000140F400027D3449
:1003D000914201D3641C00E04900002C02DA30BCD9
:1003E000002070474FF400000023914201D3891A86
:1003F000034340084FEA4101F7D151B1914202D184
:100400004FF0004105E002D24FF0010101E06FF032
:10041000010103EBC450284430BC00F0C8BA4200CC
:1004200005D0C0F3C7525242914201DC0020704710
:1004300000EBC15070472DE9FE4F804681EA030072
:10044000C00F0C46009021F0004123F00045B8EBAE
:100450000200A94105D24046214690461C460B4663
:10046000024623F00040104347D0270DC7F30A008F
:10047000C3F30A510290401A019040286BDAC3F38B
:10048000130040F4801B0098924620B10023D2EB69
:10049000030A63EB0B0B01985946C0F1400250462A
:1004A00000F054FA06460D4650465946019A00F0AF
:1004B0006CFA10EB08006141002487EA115284EACB
:1004C000E7731A4340D0009A62B3019A012A4FEAB7
:1004D000075215DC001B61EB02014FF0004202EAFB
:1004E0000752CDE90042001C41F5801132462B46EF
:1004F00000F0A3FA03B0BDE8F08F40462146F9E7CB
:10050000001B61EB0201001C41F5801300185B41E8
:100510002018A2F5001747EB030140EAD570B61981
:100520006D4111E06D084FEA360645EAC0754FEAA5
:100530000752001B61EB0201001C41F580114908C4
:100540004FEA30000019514132462B4603B0BDE856
:10055000F04F00F063BA0098012240000023D0EB76
:10056000020263EBE073009821464FEAE074B8EBB7
:10057000000061EB0401E9E783F000435BE781F0F1
:10058000004158E72DE9FE4F81EA030404F00044DE
:1005900021F0004100944FF0000B23F0004350EA9B
:1005A00001045ED052EA03045BD0C3F30A54C1F3E2
:1005B0000A552C44A4F2F3340194A0FB0254C1F375
:1005C000130141F48011C3F3130343F4801301FBBF
:1005D000024400FB034E840A970A44EA815447EA26
:1005E0008357A4FB076802958D0A05FB07854FEA30
:1005F000932C04FB0C542705029D4FEA065847EA4A
:100600001637B5EB08056EEB070C870E920E47EA1E
:10061000811742EA8312A7FB0201B6EB0B0164EBE0
:1006200000042B0D43EA0C335E1844EB1C50DA46F1
:100630005146E7FB0201C5F313044FEA0B3343EACB
:1006400014534FEA0432019C43EA0603A4F10C045C
:100650000294009CCDE900B400F0EFF903B0BDE8CE
:10066000F08F00200146F9E72DE9F04D81EA0304FF
:1006700004F0004B21F0004514464FF0000A23F02F
:10068000004150EA050220D054EA01021DD0C5F312
:100690000A570246C5F31303C1F31300C1F30A5608
:1006A00040F4801543F48013A7EB0608101BD646D0
:1006B00008F2FD3873EB050002D308F1010801E0F0
:1006C00092185B41B8F1000F03DA00200146BDE843
:1006D000F08D00204FF48011064684460EE0171B73
:1006E00073EB050705D3121B63EB050306434CEAC6
:1006F000010C49084FEA300092185B4150EA0107AB
:10070000EDD152EA030012D082EA040083EA050127
:10071000084305D0101BAB4106D20122002306E09E
:1007200000224FF0004302E06FF0010253101AEB79
:1007300006004CEB085110EB0A0041EB0B01BDE841
:10074000F04D00F06BB970B521F0004303430CD0BD
:10075000C1F30A550024D5EB040564EB0403D61756
:10076000AD1AB34102DB0020014670BD201841EBF9
:10077000025170BDC10F80EAE0700844CA07962399
:10078000002100F01DB996230022114600F018B98F
:100790000EB5C10F80EAE0700844CA07002140F29C
:1007A00033438DE80E000A460B4600F046F903B0CD
:1007B00000BD0EB540F2334102910021CDE9001198
:1007C0000A460B4600F039F903B000BD00F00042C4
:1007D00020F00040C10DC0F3160040F400007F2956
:1007E00001DA00207047962903DCC1F19601C84068
:1007F00001E096398840002AF4D04042704720F04A
:100800000040C10DC0F3160040F400007F2901DA5A
:1008100000207047962903DCC1F19601C84070475B
:1008200096398840704770B5C1F30A5201F000450F
:100830000024C1F3130140F2FF3341F480119A42C6
:1008400001DA002070BD40F233439A42A2F23342F3
:1008500003DC524200F089F800E090402C43F1D0D4
:10086000404270BD00F0004230F000400AD0C10D9F
:1008700001F56071C0F3160042EA0151C208400759
:1008800011437047002001467047000030B5041E38
:1008900071F1000404DB4FF00044404264EB0101BD
:1008A000141E73F1000405DB1C464FF00043524256
:1008B00063EB04038B4208BF824230BD30B5041E97
:1008C00071F1000404DB4FF00044404264EB01018D
:1008D000141E73F1000405DB1C464FF00043524226
:1008E00063EB0403994208BF904230BD01F000431E
:1008F00030B421F0004150EA010206D00A0DA2F501
:100900006072C1F31301002A02DC30BC0020704782
:10091000440F44EAC104C100E01830BC00EBC250EF
:1009200000F045B8002801DBC0F10040002901DBE0
:10093000C1F1004181427047002801DBC0F1004055
:10094000002901DBC1F1004188427047202A04DB05
:10095000203A00FA02F1002070479140C2F12003D2
:1009600020FA03F3194390407047202A04DB203A11
:1009700021FA02F00021704721FA02F3D040C2F1BF
:1009800020029140084319467047202A06DBCB1706
:10099000203A41FA02F043EAE07306E041FA02F33A
:1009A000D040C2F120029140084319467047002907
:1009B000A8BF7047401C490008BF20F001007047E5
:1009C00010B4B0FA80FC00FA0CF050EA010404BF45
:1009D00010BC704749B1CCF1200421FA04F411FA9B
:1009E0000CF118BF012121430843A3EB0C01CB1DDF
:1009F0004FEA00614FEA102042BF002010BC704750
:100A000000EBC35010440029A4BF10BC7047401C29
:100A1000490008BF20F0010010BC704710B5141E3B
:100A200073F1000408DA401C41F1000192185B41A7
:100A30001A4301D120F0010010BD2DE9F04D92467E
:100A40009B4611B1B1FA81F202E0B0FA80F2203295
:100A50009046FFF77BFF04460F4640EA0A0041EA52
:100A60000B0153465A46084313D0114653EA01007E
:100A700019D0C8F140025046FFF777FF05460E46F1
:100A8000504659464246FFF761FF084305D0012012
:100A900004E020463946BDE8F08D0020054346EAD3
:100AA000E0762C4337430A986305E40AA0EB08007C
:100AB0000022FD0A44EA47540A3002D500200146CC
:100AC000E9E7010510196941DDE9084500196941A7
:100AD000BDE8F04DA2E72DE9F04D00231A461B1AA0
:100AE0008A4103DB00200146BDE8F08DC1F30A52C4
:100AF000C1F3130141F480154FF0000BD10702D16F
:100B000000186D41521E0027044640F2FF1138467E
:100B100001EB620A3E468046024600204FF48011F7
:100B2000FFF723FFC2197141BB1846EB0100B4EB7C
:100B3000030C75EB000C04D3E41A65EB00051746B3
:100B40000E46241908F101006D4180463428E3DD8A
:100B5000F91946EB0600091BA84103D24FF0FF32FA
:100B6000134601E0002213461BEB070046EB0A5137
:100B7000BDE8F04DFFF752BF064C074D06E0E068B8
:100B800040F0010394E8070098471034AC42F6D3D4
:100B9000FFF710FB009300082093000870B58C1835
:100BA00010F8015B15F0070301D110F8013B2A1181
:100BB00006D110F8012B03E010F8016B01F8016B6E
:100BC0005B1EF9D12B0705D40023521E0DD401F86A
:100BD000013BFAE710F8013BCB1A921C03E013F833
:100BE000015B01F8015B521EF9D5A142D8D3002068
:100BF00070BD10B50146886B026C12F0500F05D025
:100C0000806BC26CBDE8104008461047016C41F48F
:100C10000071016401688A6812F0405F17D182692F
:100C2000AAB9CA6A12F4700F02D08A6852050ED4AB
:100C30004A6822F020024A60016C21F4807101644C
:100C4000016CC90403D4016C41F00101016401F09D
:100C50000FFC10BD10B5806B40210164416C41F068
:100C60000401416401F06FFC10BD10B5806B01F010
:100C700069FC10BD014801F067BC00008003002042
:100C800010B54C490A6822F440320A600A68436889
:100C90001A430A6001684A6822F480724A60016857
:100CA0004A68036942EA03224A6001684A6822F0FE
:100CB00040724A6001684A6883681A434A60016862
:100CC0008A6822F400628A6001688A68C3681A43ED
:100CD0008A60816A6FF07062D14214D001688A68BC
:100CE00022F070628A6001688A68836A1A438A60A7
:100CF00001688A6822F040528A6001688A68C36A83
:100D00001A438A6009E001688A6822F070628A608A
:100D100001688A6822F040528A6001688A6822F07D
:100D200002028A6001688A68836942EA43028A6033
:100D3000016AB9B101684A6842F400624A60016818
:100D40004A6822F460424A6001684B68426A4FF484
:100D5000604494FAA4F4521EB4FA84F4A2401343FB
:100D60004B6004E001684A6822F400624A6001684E
:100D7000CA6A22F47002CA620168CB6A828B521E70
:100D800043EA0252CA6201688A6822F400728A60E9
:100D900001688A68036B42EA43228A6001688A68B4
:100DA00022F480628A6001688A68406942EA802091
:100DB000886010BD042301402DE9F04118484568C2
:100DC0001848016828460F46FFF7B3FA16498842CB
:100DD00021DA1648174E8468154884420EDD2946EC
:100DE0001548FFF7A6FA3946FFF751FA4FF0FF31E1
:100DF000FFF715FB2146FFF7D4FA00E03046B0427A
:100E000001DD304603E0B0F5000F00DA0020BDE858
:100E1000F04106F0F9B9BDE8F041002006F0F4B960
:100E20000C1100201C00002000008C42AC010020AE
:100E30000000A0409A99993F0000964270B5194C65
:100E400040F2FF10216B0860216B00208860216B4D
:100E5000C860216B082008611348144D00780028F1
:100E600002D001280CD016E0E86AFFF7AFFC216B36
:100E700000120876E86AFFF7C2FC216B48760AE0A8
:100E8000A86DFFF7A3FC216B00120876A86DFFF791
:100E9000B6FC216B4876BDE870400A21014801F09C
:100EA000E7BF0000680400204D0200208C0F0020E6
:100EB0002DE9F04105460C46E76B2764687D297DE6
:100EC00040EA0120FFF75FFC0646E066E87DA97D69
:100ED00040EA012001B2A4F87010687E2A7E40EA40
:100EE0000220A4F87200E6630846FFF743FCA06006
:100EF00039463046FFF71DFA0E49626C4FF07E53BB
:100F0000884205D919461046FFF7C1F9606407E029
:100F10000949884204DD19461046FFF70AFA606461
:100F20000D21606CFFF77BFA3146FFF7B0F9A06442
:100F3000BDE8F0810080BBC50080BB4570B50F4C9B
:100F400040F2FF10216B0860216B00208860216B4C
:100F5000C860216B08200861094DE86AFFF736FC7C
:100F6000216B00128876E86AFFF749FC216BC8768E
:100F70002046BDE870400A2101F07ABF68040020D5
:100F8000041000202DE9F04105460C46E06E206477
:100F9000204EA06C3060687D297D40EA0120FFF77B
:100FA000F2FB8046E066E87DA97D40EA0120A4F8D6
:100FB00070000FB9C4F840804046216CFFF7B9F9C2
:100FC0001549626C4FF07E53884205D91946104688
:100FD000FFF75DF9606407E01049884204DD1946B7
:100FE0001046FFF7A6F960640D21606CFFF717FA51
:100FF0004146FFF74CF9A06407B930603168FFF74C
:1010000098F9A063E26B01461046FFF740F9E063F0
:10101000BDE8F0812C0300200080BBC50080BB45EB
:1010200070B501211C4802F09DFB1C4CE07060690A
:10103000052804DB012060710520606101E00020CB
:1010400060716079164D10B101280AD016E0E06891
:10105000FFF790FB286011491148543106F071FFE9
:101060000CE0A07920B90F49A86CFFF710F92863AC
:101070000A490B486831303005F0B4F96079A07145
:10108000E078207105490648403106F05AFFBDE876
:101090007040FFF7D3BE000000000240480200206D
:1010A0008C0F002000000C4310B51A4800211A4A8A
:1010B0000078012805D0D1719170D079174CB0B16A
:1010C00016E0907838B10128F7D1506968B15078AE
:1010D000012802D009E0D171EFE71148114B0068F7
:1010E000984202DD0120D071E7E79170E5E72160C9
:1010F000012801D10C482060B4F97000FFF73AFBD9
:10110000A06005490548543106F01BFFBDE81040BA
:10111000FFF714BFC802002048020020041000207E
:10112000CC0200200000C8420000FAC4FEE7000024
:1011300010B5064800F0B6F8044801F039FCBDE8E7
:1011400010400021014801F049BE000028040020A1
:1011500010B5064800F0A6F8044801F029FCBDE8E7
:1011600010400021014801F039BE00006804002051
:1011700010B54FF4D872036802EB01129B5803F0CC
:101180000404436B9C60436B002C55D00468A45846
:10119000E4085C6003689A58436B02F00202DA606C
:1011A0004FF4DA72036802EB01129B58446B03F0B0
:1011B0000F03236103689A58436BC2F30722DA6175
:1011C0004FF4DC72036802EB01129B58446B2375E9
:1011D00003689B58446B1B0A637503689B58446BF8
:1011E0001B0CA37503689A58436B120EDA754FF403
:1011F000DE72036802EB01129B58446B237603688E
:101200009B58446B1B0A637603689B58446B1B0C0A
:10121000A37603689A58436B120EDA76202281B1C6
:1012200001680A6101684A6922F010024A6190F877
:10123000381022290DD025E00468A458640D1C60E4
:10124000A8E70168CA6001684A6922F002024A619F
:10125000EDE701684A6922F480724A6101684A69CF
:1012600022F400724A6101684A6922F480624A618C
:1012700001684A6922F400624A6101684A6922F4FD
:1012800000424A6190F83810322906D0012180F8D6
:10129000381001F0EBFD002010BD122180F838104D
:1012A000F7E700001E4988421DD1486B0168A1F292
:1012B0000121082932D2DFE801F0040731310A0D9B
:1012C0001013184905F088BF174905F085BF174965
:1012D00000F0BEB8164900F0BBB8164900F0B8B827
:1012E000154900F0B5B81549884217D1486B016817
:1012F000A1F50071053908D0012909D002290AD0C9
:1013000003290BD10E49FFF73DBE0E4900F060BE28
:101310000D4900F067BD0D49FFF7CABD70470000D9
:10132000280400209C0E0020140F0020440C0020F4
:10133000BC0C0020340D0020AC0D002068040020FF
:1013400004100020200A0020A80900208C0F002093
:1013500010B501684A6922F001024A6190F838101C
:10136000122918D101684A6922F480724A61016821
:101370004A6922F400724A6101684A6922F4806273
:101380004A6101684A6922F400624A6101684A6957
:1013900022F400424A6190F83810322906D0012127
:1013A00080F8381001F03CFE002010BD222180F8AA
:1013B0003810F7E770B5214C40F2FF10216B086040
:1013C000216B00208860216BC860216B08200861B8
:1013D0001B4DE86AFFF7FAF9216B00120875E86AFD
:1013E000FFF70DFA216B4875164DE86AFFF7EEF925
:1013F000216B00128875E86AFFF701FA216BC87546
:10140000114DE86AFFF7E2F9216B00120876E86AED
:10141000FFF7F5F9216B48760C4DE86AFFF7D6F92E
:10142000216B00128876E86AFFF7E9F9216BC8762C
:101430002046BDE870400A2101F01ABD28040020B2
:10144000440C0020BC0C0020340D0020AC0D00200A
:1014500070B504460D46E07DA17D40EA012000B252
:10146000A5F87000FFF786F9A860607E217E40EA4B
:101470000120A5F8720070BD2DE9F05F3C4C3D4F96
:10148000002620883C4DDFF8F480002866D0608874
:10149000002863D0DFF8E8903A49D9F8080088427C
:1014A00001DA00F0D3FD2088FFF76DF98246364857
:1014B0004068FFF768F95146FEF73BFF3349FEF7F6
:1014C0003EFF6FF00B01FEF7AAFFDFF8C4A08346D2
:1014D000CAF800006088FFF756F904462A48806879
:1014E000FFF751F92146FEF724FF2849FEF727FFB1
:1014F0006FF00B01FEF793FFCAF804008246D9F89B
:1015000008004FF40001884206DB8B4504DB594696
:10151000FEF715FF286000E02E60D8F80040C8F8FC
:1015200004401C480088FFF72EF95146FEF707FFDC
:101530001949FEF736FF1949FEF7A9FE2968FEF79B
:10154000A6FEC8F8000014F1FF4F02D33E60BDE8CC
:10155000F09F2146FEF7EDFE3860F8E72E60D8F8E0
:101560000000C8F80400C8F800603E60EFE7000023
:1015700002000020100000201C00002008000020B5
:10158000AC0100200000F041740300200000044280
:10159000140000200C11002000007A443333D340A3
:1015A00000B58BB0002007900121089101900290B6
:1015B000039004900E220692059009910A90064825
:1015C000044901631C31416301A901F07BF90BB0AF
:1015D00000BD00001C1400202804002000B58BB0C2
:1015E000002007900121089101900290039004903F
:1015F00006220692059009910E200A90054804499A
:1016000001631C31416301A901F05CF90BB000BD1D
:101610005C140020680400202DE9F05F7348DFF8B7
:10162000E081734C027800257249DFF8CC91734F4A
:10163000D8F8480004F13006002A08D0DFF8C4A129
:10164000DFF8C4B1012A39D0022A61D089E08A4684
:10165000FEF7A7FE4946FEF76CFEE0636B49304695
:1016600005F0F0FC788A800501D4A06D2060B8F9FF
:101670007000FFF77FF86649FEF793FEA0605146C1
:10168000D8F84800FEF78DFE4946FEF752FEFFF7F8
:10169000E9F821F0004100225E4BFFF7F7F807D888
:1016A000206B10F0FF4F03D1788A800500D42560AD
:1016B00056494F48143105F011FD52E0564A226355
:1016C000FEF76FFE4946FEF734FEE0634F493046B1
:1016D00005F0B8FCA06D20605146E06BFEF729FED6
:1016E000FFF7C0F821F0004100225B46FFF7CEF87B
:1016F00000D82560B8F97000FFF73CF84449FEF7C0
:1017000050FEA06041493A48143105F0E7FC28E05A
:10171000424A2263FEF745FE4946FEF70AFEE063B1
:101720003A49304605F08EFCA06D20605146E06BD2
:10173000FEF7ADFDFFF796F821F0004100225B4671
:10174000FFF7A4F800D82560B8F97000FFF712F889
:101750002F49FEF726FEA0602C492548143105F0DC
:10176000BDFC2F48B0F90410B1F5967F10DD2D496E
:10177000097801290CD1B0F90010C82901DBC82172
:101780000180B0F900206FF0C7018A4200DC0180BF
:1017900000F050F82448254C0089282807D928381B
:1017A000C0EB00103C30FEF7E5FFA06001E02048F0
:1017B000A060787A012805D005F0FEFDBDE8F05F55
:1017C000FFF7F8BD1148283004F056FD0F48A0304F
:1017D00004F052FD0648F03804F04EFD0448783815
:1017E00004F04AFD06F0D0F8E8E70000720100209E
:1017F000240E0020780BB6410A576943E80B0020FD
:10180000200A002000002042000008401C0C00209C
:10181000000070420000144000003442000034C256
:10182000A4010020710100200C110020D80100202B
:101830000000A0422DE9F0472A4CB4F90400FEF75D
:1018400099FF2949FEF77BFD80460546B4F9020061
:10185000FEF790FF254E7168FEF771FD0746B4F95B
:1018600000008246FEF786FF31680E46FEF767FDF0
:1018700081463946FEF70BFD2946FEF708FD1C4C54
:101880002060CAF10000FEF775FF3146FEF757FDF4
:1018900006463946FEF7FBFC4146FEF7F8FC04F12C
:1018A0007805286039463046FEF743FD4146FEF78D
:1018B000EEFC04F1F006306039464846FEF739FD8B
:1018C0004146FEF7E4FC04F5B47108600948206164
:1018D0002861306108610848606168617061486131
:1018E000BDE8F087A40100200000E040D8010020FE
:1018F000440C0020000096430000344310B50A4811
:101900000A4C006820600A480068FEF733FF6060F8
:101910000020A0600D3C07490978012901D06076BC
:1019200010BDFF20607610BDB40100200D13002013
:101930005C0200204902002010B5FFF7DFFF0F48CE
:1019400000F5007149680160FF22042100F0B2FB3C
:101950000B4C20711A2221460848FEF774FC4FF602
:10196000FF721A21054800F08DFB60832146BDE817
:1019700010401C220148FEF766BC0000FC1000204D
:101980000013002010B507F007F9FFF7D5FF0A2371
:10199000BDE810401C220249024803F09DB8000037
:1019A000FC100020FC05002005F0FEBC10B5084826
:1019B000084B052100781A1D012802D119241C604A
:1019C0001160002802D119601320106010BD0000C2
:1019D00048020020340C0040014801F02BBC0000FC
:1019E0005C070020014801F025BC00003C060020F7
:1019F000014801F01FBC00009C060020014801F0D6
:101A000019BC0000C8030020014801F013BC00000D
:101A1000BC070020014801F00DBC0000FC060020BE
:101A2000014801F007BC00001C0800200168CAB290
:101A3000103A1823B2FBF3F2064B9B5CC3656FF3BD
:101A40000901032A02D9091D816500E08165806DC5
:101A500070470000D88E000810B5014600208A6A41
:101A60008B694FF0C074002B0ED0B3F5005F1FD010
:101A70008AB3012A32D0022A30D0032A03D1C96A9C
:101A8000C90100D5012010BD42B1012A0BD0022AA4
:101A9000F9D1C96AC901F6D5012010BDC96AC901C9
:101AA000FBD5012010BDC96AA142FBD1012010BDA8
:101AB00052B1012A0AD0022A0ED0032AF7D1C96AEC
:101AC000A142F4D1012010BD012010BDC96AC90195
:101AD000FBD5012010BD01E00120FBE70120F9E763
:101AE00030B50468256825F48025256004686360A6
:101AF0008368402B04D0036899600068C26030BDE1
:101B000003689A600068C16030BD00000A280DD8E3
:101B100060B11E4924220A700B2834D2DFE800F09D
:101B200033080C1014181C2024292E0000207047A4
:101B30000520487106207047092048720A20704726
:101B40000D2048730E2070471120487412207047F2
:101B50001520487516207047192048761A207047BE
:101B60001D2048771E207047212081F82100222067
:101B70007047252081F8250026207047292081F80C
:101B800029002A2070470020704700007C100020A8
:101B900003B50A2910D800290ED00B290CD2DFE892
:101BA00001F00B060C12181E242A30363C000122CC
:101BB0001D49684600F0DAF80CBD05221A4968464E
:101BC00000F0D4F80CBD09221749684600F0CEF8A1
:101BD0000CBD0D221449684600F0C8F80CBD112256
:101BE0001149684600F0C2F80CBD15220E4968463E
:101BF00000F0BCF80CBD19220B49684600F0B6F89D
:101C00000CBD1D220849684600F0B0F80CBD212229
:101C10000549684600F0AAF80CBD2522024968462D
:101C200000F0A4F80CBD00007C10002070B5194D28
:101C30006868401C686004282BD10520FFF766FF08
:101C4000FEF7A1FD0446144801218068FFF7A0FFBC
:101C500012488089FEF797FD0221FFF799FF10488F
:101C600003210068FFF794FF0E4804210068FFF786
:101C70008FFF0D4805210068FFF78AFF2046FEF719
:101C8000BEFD82B264230949094802F025FF002005
:101C9000686070BDDC020020041000200C110020E0
:101CA000CC020020D4020020D80200207C100020AA
:101CB0007C0500207047000003480168491C016052
:101CC000012001F053BC00005C02002010B54FF46D
:101CD000804001F04BFCBDE810404FF4004001F0A3
:101CE00045BC000070B50D48002404700C4908681C
:101CF000401E08600C4D0B4E31462868FEF719FB5C
:101D000028600A4884630A4C31462068FEF7BFFA0F
:101D10002060BDE87040802001F028BC4A0200200D
:101D20005C0200200000C842CC0200200410002009
:101D3000D0020020FEE700002DE9F04107460E46E4
:101D4000094C30462169FEF7FAFA054631464FF054
:101D50007E50FEF7EEFA3946FEF7F1FA2946FEF715
:101D600096FA2061BDE8F0813000002003788B54A2
:101D7000114443784B7082788A70C078C87070477D
:101D800070B5154C40F2FF10216B0860216B0020EC
:101D90008860216BC860216B082008610F4DE86ADC
:101DA000FEF714FD216B00120875E86AFEF727FDA7
:101DB000216B48750A4DE86AFEF708FD216B001299
:101DC0008875E86AFEF71BFD216BC8752046BDE8E3
:101DD00070400A2101F04CB868040020200A00205D
:101DE000A80900202DE9F04105460C46E66E266460
:101DF000687D297D40EA0120FEF7C5FC0746E066C4
:101E0000E97DAA7D41EA0221A4F872103146FEF76D
:101E100090FA1049626C4FF07E53884205D91946FA
:101E20001046FEF734FA606407E00B49884204DD8F
:101E300019461046FEF77DFA60640D21606CFEF7CE
:101E4000EEFA3946FEF723FA0449FEF7AAFAA0642F
:101E5000BDE8F0810080BBC50080BB45780BB64172
:101E60002DE9F04104460D4620686060E168FEF708
:101E700060FA0646E062626A01461046FEF707FA1B
:101E800060621C49884200DB61621B48616A8142D2
:101E900000D360623046216BFEF74BFA6063266325
:101EA000AA6801461046FEF74AFA0746616A686862
:101EB000FEF745FA804631462868FEF740FA41466B
:101EC000FEF7E5F93946FEF7E2F9A0622969FEF767
:101ED00033FD01D22869A0622869A16A80F0004020
:101EE000FEF72AFD03D2286980F00040A062BDE819
:101EF000F08100000060EA460060EAC62DE9F0418A
:101F000004460D4621692068FEF713FA6168FEF762
:101F100013FD05D221696068FEF7B9F960600FE032
:101F200061692068FEF7B3F96168FEF7FBFC05D232
:101F300061696068FEF7FDF9606001E0206860603B
:101F4000D4E90101FEF7F5F90646E061A269014610
:101F50001046FEF79CF9A0611B49884200DBA16195
:101F60001A48A169814200D3A0613046216AFEF778
:101F7000E0F960622662AA6801461046FEF7DFF9C2
:101F80000746A1696868FEF7DAF980463146286895
:101F9000FEF7D5F94146FEF77AF93946FEF777F9AB
:101FA000E0622969FEF7C8FC01D22869E06228696D
:101FB000E16A80F00040FEF7BFFC03D2286980F0A0
:101FC0000040E062BDE8F08100401C4600401CC6B5
:101FD00070B505460C46687D297D40EA0120FEF774
:101FE000D2FB0646E066E97DAA7D41EA0221A4F81B
:101FF0007010697E2A7E41EA0221A4F87210616F96
:10200000FEF797F90F49626C4FF07E53884205D96D
:1020100019461046FEF73BF9606407E00A4988421A
:1020200004DD19461046FEF784F960640D21606CEA
:10203000FEF7F5F93146FEF72AF9A0646667A06855
:10204000E06070BD0080BBC50060EA4510B508487F
:10205000084C00686060FEF796FB0749FEF76FF9D1
:102060000649FEF79EF90649FEF763F9A06010BD28
:102070005C030020AC0100200000D04100002A4594
:102080006666263F10B503461046002B01D0084C6B
:102090000AE04FF6FF7010BD13F8012B4240D2B298
:1020A00034F8122082EA1020491E4A1CF4D110BDD7
:1020B000E08F000810B5054C03E010F8013B5340D9
:1020C000E25C491E4B1CF8D1104610BDE08E0008A2
:1020D00010B50A48001D0EC8094805F09BFA0A48C9
:1020E000084901610949416100F024F804F042F90E
:1020F00006F012F8BDE81040FFF742BE30000020A5
:10210000B00B002000004842A809002000009644BF
:102110000548064902688A4200DB016004490268FA
:102120008A4200D301607047980A00200000D8411D
:10213000000094C12DE9F05F6A4C4FF00009CA46D7
:10214000694F6A4879690068FEF7F3F88346B86119
:10215000A4F59470816C6648FEF7EBF80546F861CB
:10216000644800260078012803D1634800780128DC
:102170001CD001202072C4F8AC60C4F8B060C4F870
:10218000B4B0C4F8B85001F0FBFA20606060C4F845
:10219000C060C4F8BC60002004EB8001CE60CE6556
:1021A000401CC0B21328F7D3BDE8F09F207ADFF8B7
:1021B0004C8118B3443404F83C6CA666E666584675
:1021C000D8F80410FEF763F820672846D8F8001006
:1021D000FEF75DF8606701F0D3FA44F8440C44F868
:1021E000400CE667A667443C002004EB8001CE600B
:1021F000CE65401CC0B21328F7D3D5E701F0C0FA72
:1022000060600020411C0A4604EB810104EB800061
:10221000CB68C360C96DC165D0B21328F2D3D4E9CD
:102220000006301AFEF7AFFA3549FEF7BAF8054650
:10223000D8F80410B869FEF72AF8D4F8B410FEF7FD
:1022400078F82946FEF7ADF8A065D8F80010F869CF
:10225000FEF71DF8D4F8B810FEF76BF82946FEF724
:10226000A0F8C4F8A800002504EB850B4846DBF86D
:102270000C10FEF70CF881465046DBF85C10FEF7B8
:1022800006F882466D1CEDB2142DEDD31D4D484667
:102290002946FEF786F844F8AC0F81462946504699
:1022A000FEF77FF8054660601749D8F80800FEF78A
:1022B00078F882464946FEF742F8206150462946A2
:1022C000FEF73DF8606144F8AC6CD8F80410B869CA
:1022D000FDF7DDFFA060D8F80010F869FDF7D7FF23
:1022E000E06061E7D00A00203000002010030020E9
:1022F000D7631B43E4020020C4020020B410002076
:1023000000007A440000A0410000C841704700006E
:1023100078B50024009490F83C20012A19D00122BD
:1023200080F83C200A680725092A14D90368DE686A
:102330000A3A02EB42029540AE43DE600A788B68AF
:102340000A3A02EB420293400268D5682B43D360FD
:1023500011E0022078BD03681E6902EB420295403D
:10236000AE431E610A788B6802EB4202934002681A
:1023700015692B4313614A681F25072A13D2036886
:102380005E6B521E02EB82029540AE435E630A888A
:1023900093B20A79521E02EB820293400268556B97
:1023A0002B43536328E00D2A13D203681E6BD21F00
:1023B00002EB82029540AE431E630A8893B20A790B
:1023C000D21F02EB820293400268156B2B4313630A
:1023D00012E00368DE6A0D3A02EB82029540AE43DA
:1023E000DE620A8893B20A790D3A02EB82029340C8
:1023F0000268D56A2B43D362194B02689A4208D10E
:102400000A68122A05D1D3F8042342F48002C3F8E3
:10241000042302689A421ED1124D0A68AA4201D0D2
:10242000112A18D1D3F8042342F40002C3F804237C
:102430000968A9420FD10C490C4A0968B1FBF2F1B5
:1024400001EB81014900009102E00099491E0091D1
:1024500000990029F9D180F83C40002078BD0000A7
:1024600000200140120000102C00002040420F000C
:102470002DE9F05F00682E49884257D12D4E3088F3
:10248000401C87B237800020DFF8ACC00025ACF1DB
:10249000180808EBC0015CF82030D1E90042E318CD
:1024A0006A41C1E90032401C0328F2DB642F3DD9A8
:1024B0000024DFF8849009F12409A9F10C0AA9F19C
:1024C000180608EBC4053A46D5E900010023FDF7DC
:1024D00089FE46F82400834600212960696059F886
:1024E00024004AF82400FEF74EF91449FDF727FFAF
:1024F00005465846FEF747F91149FDF720FF2946E2
:10250000FDF7C5FEFEF77BF949F82400641C032C97
:10251000D7DB084900200880881C018809B9B188E8
:1025200001804188002901D131894180BDE8F09FB7
:10253000002001400000002050030020D7A3703F7E
:102540008FC2753D7047704770B5044620680168BA
:10255000C1F340014268C2F3401200292AD04AB3B5
:10256000216CC90603D4216C41F400712164816897
:1025700011F0405F17D1A169A9B9C16A11F4700FB8
:1025800002D0816849050ED4416821F020014160E4
:10259000206C20F480702064206CC00403D4206C74
:1025A00040F0010020642046FFF762FF21686FF0D1
:1025B0001200086020680168C1F380014268C2F31C
:1025C000C01289B382B3216CC90603D4216C41F4D3
:1025D00000512164816811F4401F1ED1816B11F4F8
:1025E000401F02D08168490517D44168490514D4B9
:1025F000816811F0405F10D1A16971B9416821F083
:1026000080014160206C20F480502064206CC00563
:1026100003D4206C40F0010020642046FFF776FED2
:1026200021686FF00C00086020680168C1F30001A8
:102630004268C2F3801271B16AB10068C0070AD063
:10264000206C40F480302064204600F046F8216879
:102650006FF00100086020680168C1F34011426812
:10266000C2F3806200290DD0002A0BD0616C41F0CA
:10267000020161646FF0200505602046FFF763FFEB
:102680002068056070BD70B504460026002C03D09C
:10269000206C002510B107E0012070BD656484F84E
:1026A0003C50204600F01AF8206CC00610D4206C74
:1026B00020F4885040F0020020642046FEF7E0FA43
:1026C0006564206C20F0020040F00100206400E00E
:1026D000012684F83C50304670BD704770B586B016
:1026E0000646142101A8FDF7C7FD29493068884234
:1026F0004CD100252748016841F4807101600068D1
:1027000000F48070009023491439086840F00400F8
:102710000860086800F004000090086840F00200BB
:102720000860086800F00200009030200190032447
:102730000294039501A9184800F024FF012001909C
:102740000294039501A9154800F01CFF154C14488C
:1027500020606560A560E560001520618000606113
:102760008000A0618011E06125626562204600F072
:102770004DFE08B1FFF7DEFAB463A6630022012123
:10278000122001F0A7F8122001F098F806B070BDF1
:10279000002001404438024000080240000402408A
:1027A00010640240C8030020F8B504461346002216
:1027B000009294F83C00012807D0012084F83C00E6
:1027C00020688568ED0702D014E00220F8BD856816
:1027D00045F0010585603548354D0068B0FBF5F0E2
:1027E00000EB4000009002E00098401E009000982E
:1027F0000028F9D120688568ED0754D0256C40F297
:102800000166B54345F4807525644068400505D5EB
:10281000206C20F4005040F480502064206CC004F0
:1028200004D5606C20F00600606400E0626484F807
:102830003C20A26B1F48D063A26B1F481064A26BA0
:102840001E48D06422686FF0220010602068426841
:1028500042F0806242602068826842F48072826046
:1028600020680A464C30A56B0146284600F036FE2B
:102870001349D1F80403C00607D02068884212D15A
:10288000816811F0405F0AD00DE02068816811F086
:10289000405F08D1816841F08041816003E0816838
:1028A00041F0804181600020F8BD00002C00002034
:1028B00040420F00F30B00086B0C0008550C000899
:1028C00000200140F0B50A7D01209040354A136890
:1028D00043F001031360136823F47C5313601468FE
:1028E0004B6A44EA032313602E4D1C352B68834347
:1028F0002B602C4BCE690C332B4C002E14D11E6850
:1029000086431E608F894E6867F31F464F6904EB4C
:10291000C707C7F840660F890E6867F31F464F69FF
:1029200004EBC707C7F84466CE69012E14D11E68B0
:1029300006431E600E884B6866F31F434E6904EB26
:10294000C606C6F840360E89CB6866F31F434E694B
:1029500004EBC604C4F84436124B8C691B1D3CB111
:102960001C6804431C600F4B0C69143324B106E04F
:102970001C6884431C60F6E71C6884431C600C6977
:10298000012C02D11C6804431C60096A012902D190
:10299000296801432960106820F0010010600020C0
:1029A000F0BD00000066004000600040704700007D
:1029B00010B5044620684169C943C90714D182682B
:1029C0005A49914368D000218368594A9A4365D097
:1029D000002283685748984362D000201143014386
:1029E00002D02046FEF7B4FC2068C16801F0030164
:1029F0004069C0F3400021B118B100212046FEF724
:102A0000B7FB2068016901F003014069C0F30010C1
:102A100021B118B101212046FEF7AAFB2068816987
:102A2000C1F300014269C2F300224369C3F3C0331A
:102A300029B122B11BB1E16B41F00101E163816970
:102A4000C1F340014269C2F340224369C3F3C0337A
:102A500029B122B11BB1E16B41F00201E16381694F
:102A6000C1F380024169C1F380214369C3F3C033DC
:102A70002AB121B11BB1E16B41F00401E16381692D
:102A800011F0700F0ED000214269C2F3C0224369D9
:102A9000C3F3C03341B13CE0012195E7012298E73F
:102AA00001209BE70121EFE79AB393B3816901F01D
:102AB000700140291BD006DC102909D020290CD038
:102AC000302922D10EE0502916D060291DD118E0FE
:102AD000E16B41F00801E16317E0E16B41F01001A7
:102AE000E16312E0E16B41F02001E1630DE0E16B95
:102AF00041F04001E16308E0E16B41F08001E163F6
:102B000003E0E16B41F48071E163816921F07001C0
:102B10008161E06B002808D0216804204860012012
:102B200084F838002046FFF741FF10BD0300000481
:102B300000030008000003102DE9F0410446002CBA
:102B400004D094F83800002618B107E00120BDE851
:102B5000F08184F83960204600F0B0F8022084F853
:102B600038002068016821F00201016020680168D6
:102B700041F00101016000F003FE0546032709E072
:102B800000F0FEFD401B0A2804D904F8387F667067
:102B90000320DCE720684068C007F1D02068416866
:102BA000C90743D0A169012942D0016821F0800101
:102BB0000160E069012840D02068016821F04001EF
:102BC0000160206A01283ED02068016821F02001C0
:102BD0000160606A01283CD02068016821F0100182
:102BE0000160A06A01283AD02068016821F008013C
:102BF0000160E06A012838D02068016821F00401F2
:102C00000160D4E902010843D4E9041211430843E6
:102C10006168491E08432168C8612068016821F085
:102C20000101016000F0ACFD05462EE0002037E018
:102C3000016841F080010160BBE72068016841F054
:102C400040010160BDE72068016841F0200101609A
:102C5000BFE72068016841F010010160C1E720680A
:102C6000016841F008010160C3E72068016841F094
:102C700004010160C5E700F083FD401B0A2804D968
:102C800004F8387F6670032061E720684068C00759
:102C9000F1D120684068C00701D0002000E0012089
:102CA000012804D0042084F8380001204FE7E663AF
:102CB000012084F83800002049E700002DE9F041A8
:102CC00086B00446142101A8FDF7D6FA3D4B3E4AD2
:102CD000DFF8EC80186821683B4C03260227401C73
:102CE000103200254FF0090C41452DD11860012804
:102CF00007D1106840F000701060106800F000709C
:102D00000090206840F008002060206800F0080073
:102D100000900196029703950496CDF814C001A97E
:102D20002A4800F02FFC00220121142000F0D2FDDF
:102D3000142000F0C3FD26480068416941F00201FB
:102D4000416106B0BDE8F081DFF888804145F8D1E7
:102D5000116841F080611160116801F0806100919B
:102D60001860012807D1106840F0007010601068EA
:102D700000F000700090206840F0020020602068A1
:102D800000F0020000904FF440500190029703952C
:102D90000496CDF814C001A90F4800F0F3FB0122FE
:102DA0001146402000F096FD402000F087FD0848C5
:102DB00040300068416941F002014161C1E7000013
:102DC000006400402000002030380240000C024027
:102DD00028040020006800400004024010B590F86C
:102DE0003820012A03D0122A01D0022010BD90F809
:102DF0003920012A2DD0012280F8392090F838207E
:102E0000122A28D0222280F838200023C3630268C7
:102E1000546944F4807454610268546944F4007441
:102E200054610268546944F48064546102685469CE
:102E300044F4006454610268546944F400445461E9
:102E400080F8393059B10068416941F010014161A1
:102E50000AE0022010BD322280F83820D5E7006851
:102E6000416941F002014161002010BD704700003E
:102E70002DE9F05F04460E4622689068400105D4B3
:102E80009068000102D49068C00069D594F83900B8
:102E900001280ED0012784F8397094F838002228D0
:102EA0000AD0122084F838009068400108D5002527
:102EB0000CE00220BDE8F09F322084F83800F3E7F0
:102EC0009068000101D5012500E002254FF4C07093
:102ED00000EB0510115801F001011150216B8B68B6
:102EE000EBB3226852F800C04CEA030CCB68496887
:102EF00043EAC1014CEA010C42F800C0216B0A7C94
:102F000002F00F020A614FF4C271226801EB051151
:102F1000535823F00F03535022685358D4F830C04D
:102F2000DCF810C043EA0C035350216B0A7DCB7DC3
:102F300042EA03628B7D497D1B0443EA01210A4377
:102F40004FF4C473216803EB0513CA50216B0A7E4A
:102F5000CB7E42EA03628B7E497E1B0401E018E0CF
:102F600053E043EA01210A434FF4C673216803EB9F
:102F70000513CA5021680A5842F001020A5000F0B5
:102F8000FFFB80464FF00009DFF888A0DFF888B02B
:102F900019E022681358D1F80CC0098843EA0C03E1
:102FA00043EA41511150A9E7701C0CD02EB100F03A
:102FB000E7FBA0EB0800B04205D9032084F83800F5
:102FC00084F8399076E785B1012D14D020688168A6
:102FD00012488843E8D194F83800322811D084F898
:102FE000387084F83990002064E7206880683AEAF5
:102FF0000000F0D0D8E7206880683BEA0000EAD003
:10300000D2E7222084F83800EBE7042084F8380067
:1030100001204FE703000004000300080000031034
:10302000704770B54379012B1AD0012646710223EF
:10303000037103681D6840F6FE749440A543D1E90E
:1030400000410C4394402C431C6001680B68C02471
:103050009440A3430B60067100214171002070BDB4
:10306000022070BD70B50446002C03D020790025E5
:1030700010B105E0012070BD6571204600F008F830
:1030800002202071256101202071002070BD000008
:1030900010B586B00446142101A8FDF7EDF81149DA
:1030A000206888421CD100210F48026842F000527B
:1030B0000260006800F0005000900B481038026871
:1030C00042F001020260006800F001000090102050
:1030D000019003200290039101A9044800F052FAE4
:1030E00006B010BD007400404038024000000240AD
:1030F00018B50468009400680029104405D0143005
:10310000009000980360002018BD08300090F8E798
:1031100030B54279012A15D001244471022202718E
:103120000268136804FA01F52B43136061B101686A
:103130000A6802F480220B6803F46013B2F5802F52
:1031400012D018E0022030BD01680A6802F00402C3
:103150000B6803F03803042A0DD1382B0BD14A68D1
:1031600042F001024A6006E0B3F5601F03D14A68ED
:1031700042F002024A60047100214171002030BD1A
:103180002DE9F0410446A76D00F0FAFA054694F8DF
:1031900035000026022806D08020606584F834605F
:1031A0000120BDE8F0812068016821F0160101606E
:1031B0002068416921F080014161206C08B9A06C50
:1031C00020B12068016821F00801016020680168D1
:1031D00021F0010101600BE000F0D2FA401B05284C
:1031E00006D9202034342062267003206070D8E78E
:1031F00020680068C007EFD134343F2094F82810CD
:103200008840B8602670012060700020C9E790F8FF
:103210003510022903D08021416501207047052126
:1032200080F835100068016821F00101016000207C
:10323000704700002DE9F84304464FF00008CDF830
:10324000008070484FF416510068B0FBF1F7A56D8F
:103250002E6894F85C00082202FA00F1314210D086
:103260002068016849070CD5016821F0040101605C
:1032700094F85C0002FA00F1A960606D40F0010072
:10328000606594F85C1060488840304208D021683E
:103290004969090604D5A860606D40F002006065C8
:1032A000594894F85C10C01C8840304208D021680E
:1032B0000968890704D5A860606D40F00400606566
:1032C00094F85C1010208840304220D021680968B2
:1032D00009071CD5A8602068016849030CD500685F
:1032E000000304D4216C91B1204688470FE0A16C03
:1032F00069B1204688470AE00168C90503D401681E
:1033000021F008010160216C09B12046884794F83A
:103310005C102020884030424FF001064CD02168DC
:103320000968C90648D5A86094F8350005280BD06F
:1033300020680168490330D50068000328D4616C17
:1033400051B32046884737E02068016821F0160114
:1033500001602068416921F080014161206C08B959
:10336000A06C20B12068016821F00801016094F888
:103370005C103F208840A86084F8348084F8356071
:10338000216D00293BD001B02046BDE8F04308473D
:10339000E16B09B1204688470EE00168C90507D4F2
:1033A000016821F01001016084F8348084F83560F0
:1033B000E16B09B120468847606D00281FD0606D21
:1033C000C00714D0052084F835002068016821F07A
:1033D000010101600098401C0090B84203D82068A9
:1033E0000068C007F6D184F8348084F83560E16C59
:1033F000002904D001B02046BDE8F0430847BDE8ED
:10340000F88300002C000020010080002DE9F0412D
:10341000044600F0B5F905465CB1002684F8346036
:10342000022084F835002068016821F00101016064
:103430000DE00120BDE8F08100F0A2F9401B052855
:1034400005D920206065032084F83500F2E7206864
:103450000068C007F0D121680A681F480240D4E91B
:1034600001031843D4E903352B4318436369184318
:10347000A3691843E3691843236A18431043626A37
:10348000042A03D1D4E90B231A43104308602068AF
:10349000406920F00700656A294605430127042991
:1034A0000BD1A06A05432046FEF7D6FA28B140208A
:1034B000606584F835700120BCE7206845612046CE
:1034C000FEF7B4FA94F85C203F2191408160666574
:1034D00084F835700020ADE73F8010F02DE9F04111
:1034E00004460025A66D94F8340001280DD0012073
:1034F00084F8340094F835700020012F07D084F848
:10350000340002252846BDE8F0810220FBE70227AF
:1035100084F8357060652046FEF7E2FA94F85C1096
:103520003F208840B0602068016841F016010160CA
:103530002068416941F080014161206C20B1206820
:10354000016841F0080101602068016841F0010153
:103550000160D7E731B500F013F9044600F010F927
:103560000099001B8842F9D338BD704710B5044953
:103570000A68024202D00860FFF7F7FF10BD0000A2
:10358000143C01402DE9F84F0022DFF8A491DFF848
:10359000A08109F108094FF0010E4FF00F0C09F15D
:1035A000040A0EFA02F60B683340B34271D14C683C
:1035B000022C01D0122C11D1D40800EB84073D6AF3
:1035C0005407E40E0CFA04FB25EA0B05D1F810B001
:1035D0000BFA04FB4BEA050BC7F820B00768540050
:1035E0000325A540AF4391F804B00BF0030B0BFA91
:1035F00004FB4BEA070BC0F800B04F68012F05D061
:10360000022F03D0112F01D0122F11D18768AF43A1
:10361000D1F80CB00BFA04FB4BEA070BC0F808B06A
:103620004768B7430E79C6F3001696403E4346609E
:10363000C668AE438D68A5403543C5604C68E4005C
:103640006FD53C4C256845F480452560246804F41A
:1036500080440094384C22F003052544D5F80878BE
:103660009407260F0CFA06F4A743344CA04201D16C
:1036700000242EE0324CA04201D1012429E0314C3B
:10368000A04201D1022424E02F4CA04202D1032405
:103690001FE046E02D4CA04201D1042419E02C4C3F
:1036A000A04201D1052414E02A4CA04201D10624F5
:1036B0000FE0294CA04201D107240AE0274CA04288
:1036C00001D1082405E0264CA04201D1092400E0E4
:1036D0000A24B4403C43C5F80848D8F800409C434D
:1036E0004D68ED0300D51C43C8F80040104D2D1D5A
:1036F0002C689C434E68B60300D51C432C60D9F857
:1037000000409C434D68ED0200D51C43C9F80040C1
:10371000DAF800409C434D68AD0200D51C43CAF85E
:103720000040521C102AFFF43CAFBDE8F88F0000A7
:10373000003C01404438024000300140000002409B
:103740000004024000080240000C02400010024049
:103750000014024000180240001C024000200240F9
:10376000002402400069084201D001207047002077
:103770007047002A01D08161704709048161704758
:1037800001480068704700002800002002480168D6
:10379000491C0160704700002800002010B50B484C
:1037A000016841F400710160016841F480610160C9
:1037B000016841F480710160032000F0ABF8002043
:1037C00000F006F800F018F8002010BD003C0240A0
:1037D00010B5044607484FF47A720068B0FBF2F067
:1037E00000F06AFB00222146501E00F073F8002012
:1037F00010BD00002C00002082B00B48016841F48D
:1038000080410160006800F4804001900648001F7C
:10381000016841F080510160006800F08050019023
:10382000052002B000F076B8443802402DE9F0419E
:1038300004460E461746002C04D094F839000025A3
:1038400018B107E00120BDE8F08184F83850204627
:1038500000F004FF242084F839002068C16821F4B6
:103860000051C160204604F06DF92068016921F41F
:10387000904101612068416921F02A01416120687D
:10388000016921F00F010161206801693143016183
:103890002068C16821F40061C1602068C1683943B3
:1038A000C1602068C16841F40051C160E563202017
:1038B00084F8390084F83A000020C4E700F01F02C1
:1038C000012191404009800000F1E020C0F8001182
:1038D00070470000F0B40D460D4B1B68C3F3022384
:1038E000C3F10704042C00D90424191D072901D2AF
:1038F000002300E0DB1E012606FA04F1491E2940E0
:1039000099409E40761E16403143F0BC02F021BD26
:103910000CED00E000F00701054A10684FF6FF03C8
:10392000184040EA01200349084310607047000036
:103930000CED00E00000FA052DE9F04704460E46C4
:10394000DFF86891D9F8000006F0FF0800F00F00DA
:10395000B0420AD289F80080D9F8000000F00F00C8
:10396000B04202D00120BDE8F0872078504F800798
:1039700005D53868A16820F0F00008433860207849
:10398000C0075BD04A4960680839012808D002287E
:103990000BD0032809D0096889070BD40120E2E77E
:1039A0000968890306D40120DDE70968890101D48B
:1039B0000120D8E7396821F0030101433960FFF79E
:1039C000DFFE0546606841F2883A01280BD00228E4
:1039D00016D0032821D02DE0FFF7D2FE401B504522
:1039E00001D90320BFE73868C0F381000128F3D173
:1039F00024E0FFF7C5FE401B504501D90320B2E784
:103A00003868C0F381000228F3D117E0FFF7B8FE51
:103A1000401B504501D90320A5E73868C0F3810059
:103A20000328F3D10AE0FFF7ABFE401B504501D954
:103A3000032098E7386810F00C0FF4D1D9F8000093
:103A400000F00F00B04209D989F80080D9F80000D1
:103A500000F00F00B04201D0012084E72078400739
:103A600005D53868E16820F4E050084338602078D4
:103A7000000706D53868216920F4604040EAC1009B
:103A8000386000F04DF83968F02292FAA2F201F0A5
:103A9000F001B2FA82F2D140064A515CC8400649B0
:103AA00008600020FFF794FE00205CE7003C024025
:103AB00008380240C88E00082C0000200148006829
:103AC000704700002C00002000B5FFF7F7FF074902
:103AD00009684FF4E05292FAA2F201F4E051B2FA0E
:103AE00082F2D140024A515CC84000BD0838024011
:103AF000C88E000800B5FFF7E1FF074909684FF4D9
:103B0000604292FAA2F201F46041B2FA82F2D1402C
:103B1000024A515CC84000BD08380240C88E000807
:103B200030B51D48006810F00C011C481AD01C4C20
:103B3000042916D0082915D1174A121F116801F05F
:103B40003F0113685D0247F6C0730CD5B4FBF1F07A
:103B50001168194093FAA3F3B3FA83F3D9404843A9
:103B60000BE0204630BDB0FBF1F01168194093FA2C
:103B7000A3F3B3FA83F3D940484311684FF44032BA
:103B800092FAA2F201F44031B2FA82F2D140491C19
:103B90004900B0FBF1F030BD083802400024F400C9
:103BA000001BB7002DE9F84F0446DFF8FC822078AF
:103BB000A8F10407C007A7F1040539D0D8F8000020
:103BC000C0F38100012808D0D8F80000C0F38100BC
:103BD00002280AD13868400207D52868800327D513
:103BE000606828BB0120BDE8F88FAF492079891FA4
:103BF0000870606870B1FFF7C3FD064606E0FFF786
:103C0000BFFD801B642801D90320ECE728688003EE
:103C1000F5D50DE0FFF7B4FD064606E0FFF7B0FD71
:103C2000801B642801D90320DDE728688003F5D4D0
:103C30002078DFF8789280074FF0000A52D5D8F844
:103C400000004FF0F80B10F00C0F08D0D8F800006F
:103C5000C0F38100022816D13868400213D42868C6
:103C6000800704D5E068012801D00120BBE728685F
:103C70009BFAABF22169B2FA82F220F0F80091408F
:103C8000084328602EE0E068E0B10120C9F8000098
:103C9000FFF776FD064606E0FFF772FD801B02285F
:103CA00001D903209FE728688007F5D528689BFA8B
:103CB000ABF22169B2FA82F220F0F8009140084399
:103CC00028600FE0C9F800A0FFF75AFD064606E09D
:103CD000FFF756FD801B022801D9032083E72868DF
:103CE0008007F5D42078000729D5DFF8BCB17048EB
:103CF00061690BF16C0B89B101210160FFF740FD97
:103D0000064606E0FFF73CFD801B022801D9032090
:103D100069E7DBF800008007F4D510E0C0F800A0E8
:103D2000FFF72EFD064606E0FFF72AFD801B02285E
:103D300001D9032057E7DBF800008007F4D420788E
:103D400040074CD558483830016841F08051016037
:103D5000006800F080500090DFF858B1DBF80000F8
:103D600040F48070CBF80000FFF70AFD064606E03D
:103D7000FFF706FD801B022801D9032033E7DBF89B
:103D80000000C005F4D5DFF820B1207A0BF1680BF4
:103D90008BF80000A06888B1FFF7F2FC064608E047
:103DA000FFF7EEFC811B41F28830814201D90320EC
:103DB00019E7DBF800008007F2D510E0FFF7E0FC20
:103DC000064608E0FFF7DCFC811B41F288308142A7
:103DD00001D9032007E7DBF800008007F2D4A069CF
:103DE000F0B3D8F80010C1F3810102295AD002289B
:103DF00005D0C9F860A0FFF7C3FC04464DE0C9F840
:103E000060A0FFF7BDFC064606E0FFF7B9FC801B8B
:103E1000022801D90320E6E628688001F5D4D4E918
:103E20000701084347F6C07292FAA2F2616AB2FA39
:103E300082F29140A26A4FF0FF3303EB52024FF43B
:103E4000403393FAA3F3B3FA83F39A4011434FF04C
:103E50007062084392FAA2F2B2FA82F2E16A00E0DA
:103E60001EE09140084338600120C9F86000FFF768
:103E700087FC044606E0FFF783FC001B022801D9FB
:103E80000320B0E628688001F5D509E0FFF778FC4B
:103E9000001B022801D90320A5E628688001F5D47B
:103EA0000020A0E601209EE60838024000004742BC
:103EB000800E47420070004010B5401EB0F1807F78
:103EC00001D3012010BD4FF0E02460610F21601785
:103ED00002F03FFA0020A06107202061002010BD01
:103EE0007047704730B590F83820012A19D0012268
:103EF00000F8382F02234370D1E900342343D1E97D
:103F000002452C4323430C6923434C6989692343AD
:103F10000B4350F8381C4B644270002101700020A4
:103F200030BD022030BD30B590F83820012A20D0B5
:103F3000012380F83830022280F839200268546862
:103F400024F070045460026854680D682C43546077
:103F50000268946824F08004946002689468496858
:103F60000C43946080F83930002180F8381000202C
:103F700030BD022030BD10B50446002C03D094F8AB
:103F8000390010B107E0012010BD002084F838008E
:103F9000204600F00DF8022084F83900211D206829
:103FA00003F06EFB012084F83900002010BD0000F2
:103FB00008B500682C49B0F1804F14D02B4A9042CC
:103FC00023D1086840F002000860086800F0020091
:103FD0000090002201211D20FFF77CFCBDE8084075
:103FE0001D20FFF76BBC086840F0010008600868FE
:103FF00000F001000090012211461C20FFF76AFC2E
:10400000BDE808401C20FFF759BC194A904208D16E
:10401000086840F008000860086800F00800009098
:1040200008BD144A90420AD10F48001D016841F0B2
:1040300002010160006800F00200009008BD0E4A15
:104040009042FBD1086840F020000860086800F04A
:1040500020000090042201213720FFF73BFCBDE83F
:1040600008403720FFF72ABC4038024000040040D7
:10407000000C004000040140001400400168CA68C0
:1040800042F00102CA600068016841F0010101606C
:104090000020704770B5044694F83800012817D006
:1040A000012584F83850022084F83900206882689D
:1040B00022F0770222F47F428260086850283AD0CA
:1040C0000DDC20285FD005DCA0B3102864D155E0BA
:1040D000022070BD30285BD040285DD13FE06028D1
:1040E00033D070280CD0B0F5805F03D0B0F5005FFE
:1040F00052D113E02068816821F0070181604BE014
:10410000CB68D1E90121206803F027FB2068816892
:1041100021F0770141F0770181603DE0CB68D1E982
:104120000121206803F019FB2068816841F4804177
:10413000816031E01DE0CA684968206803F0E4FB53
:104140005021206803F013FB26E0CA684968206804
:1041500003F0EBFB6021206803F009FB1CE0CA6858
:104160004968206803F0D0FB4021206803F0FFFA83
:1041700012E00021206803F0FAFA0DE01021206817
:1041800003F0F5FA08E02021206803F0F0FA03E0DC
:104190003021206803F0EBFA38346570002020707D
:1041A00070BD704770B50446206801694FF0000586
:1041B000C943890716D4C168C943890712D4E91EC7
:1041C00001610120207620688069800703D02046A5
:1041D000FFF7E7FF05E0204600F0E0F8204600F09A
:1041E00068F9257620680169C943490718D4C16870
:1041F000C943490714D46FF00401016102202076FD
:104200002068806910F4407F03D02046FFF7C9FF83
:1042100005E0204600F0C2F8204600F04AF9257675
:1042200020680169C943090717D4C168C943090750
:1042300013D46FF008010161042020762068C06962
:10424000800703D02046FFF7ACFF05E0204600F0D2
:10425000A5F8204600F02DF9257620680169C943AC
:10426000C90618D4C168C943C90614D46FF0100137
:104270000161082020762068C06910F4407F03D0D7
:104280002046FFF78EFF05E0204600F087F8204625
:1042900000F00FF9257620680169C943C90708D1E4
:1042A000C168C943C90704D1891E0161204600F0D5
:1042B0001DF920680169C943090609D4C168C943C9
:1042C000090605D46FF0800101612046FFF708FE62
:1042D00020680169C943490609D4C168C943490630
:1042E00005D46FF040010161204600F000F920681C
:1042F0000169C94389060BD4C168C943890607D43B
:104300006FF0200101612046BDE87040FFF7E9BD74
:1043100070BD000010B586B00446142101A8FBF75B
:10432000ABFF2068184C002218490223A04214D188
:10433000086840F080000860086800F08000009085
:104340004FF440600190029303920492059301A9F7
:104350000F48FFF717F906B010BD0E4CA042FAD176
:10436000086840F480700860086800F4807000906D
:10437000602001900293039204920320059001A90A
:104380000548FFF7FFF8E6E7000C00403038024030
:10439000001C02400004014000200240704770B53C
:1043A00004460D4694F8380001280DD0012684F803
:1043B0003860022084F8390042B1042A1AD0082A51
:1043C0002DD00C2A53D13EE0022070BD2946206832
:1043D00003F0D6F92068816941F008018161206805
:1043E000816921F004018161206881692A69114392
:1043F00081613CE02946206803F0F2F92068816978
:1044000041F4006181612068816921F480618161EA
:10441000206881692A6941EA0221816127E02946F1
:10442000206803F013FA2068C16941F00801C161F6
:104430002068C16921F00401C1612068C1692A694D
:104440001143C16113E02946206803F033FA206864
:10445000C16941F40061C1612068C16921F48061D2
:10446000C1612068C1692A6941EA0221C161383409
:1044700066700020207070BD10B50446002C03D07B
:1044800094F8390010B107E0012010BD002084F835
:104490003800204600F00CF8022084F83900211D75
:1044A000206803F0EDF8012084F83900002010BDE9
:1044B0007047704710B504460122206803F042F9A6
:1044C00008482168814202D00748814203D1486CE4
:1044D00040F4004048642068016841F00101016037
:1044E000002010BD000001400004014070477047EB
:1044F00010B5044620684169C1F3C01194F8392011
:10450000212A0BD151B1416921F080014161206B19
:1045100008B1FEF735FE204603F0C1FA2068416974
:10452000C1F3801194F83A20222A0BD151B141698C
:1045300021F040014161606B08B1FEF721FE204689
:1045400003F092FA002010BD7047000070B50446D9
:1045500022681068D168526900F00F03002B08D15F
:10456000850606D58D0604D52046BDE8704003F0CB
:104570009FBA002B5ED002F0010301F490752B432B
:1045800058D0C30705D0CB0503D5E36B43F0010337
:10459000E363430705D5D30703D0E36B43F002037E
:1045A000E363830705D5D30703D0E36B43F004032C
:1045B000E363030705D5D20703D0E26B42F008029C
:1045C000E263E26B002A2AD0800604D5880602D571
:1045D000204603F06DFA20684069C0F38010E16B5B
:1045E000090700D400B3204603F03EFA2068416971
:1045F000490615D5416921F040014161606B58B110
:1046000015490165606BFEF702FE002807D0606B5C
:10461000016DBDE8704008472046FFF795FF70BD6B
:104620002046FFF791FF70BD2046FFF78DFF002069
:10463000E06370BD020606D50A0604D52046BDE833
:10464000704003F009BC4006F3D54806F1D520467A
:10465000BDE8704003F016BAC97900082DE9F04FA3
:1046600087B00446142102A8FBF706FEE749DFF8ED
:1046700098A310392068DFF894C302230322DFF8DF
:10468000908300250E154FF008094FF02067504524
:1046900049D1DCF8000040F08040CCF80000DCF8A4
:1046A000000000F080400190086840F010000860B1
:1046B000086800F010000190D00102900393049567
:1046C0000592CDF8189002A94046FEF75BFFDFF88F
:1046D0004883D048C8F80000C8F80470C8F80850EB
:1046E000C8F80C50C8F81060C8F81450C8F8185032
:1046F000C8F81C50C8F82050C8F824504046FEF7AF
:1047000085FE08B1FDF716FBC4F83480C8F83840C0
:10471000002201215220FFF7DDF85220FFF7CEF8EA
:1047200007B0BDE8F08FDFF8F4A2504549D1DCF8BE
:10473000000040F00040CCF80000DCF8000000F081
:1047400000400190086840F010000860086800F020
:10475000100001900292039304950592CDF81890F1
:1047600002A94046FEF70EFFDFF8AC82A94808F127
:1047700060084830C8F80000C8F80470C8F808504D
:10478000C8F80C50C8F81060C8F81450C8F8185091
:10479000C8F81C50C8F82050C8F824504046FEF70E
:1047A00035FE08B1FDF7C6FAC4F83480C8F83840C1
:1047B000022201215320FFF78DF85320FFF77EF8E6
:1047C000AEE7DFF85CE2DFF844A24FF0070B0AF136
:1047D000040A4FF0006870453CD1DAF8000040F060
:1047E0001000CAF80000DAF8000000F01000019094
:1047F000086840F002000860086800F002000190BC
:10480000C0200290039304950592CDF818B002A938
:104810008448FEF7B7FE804F8348C0373860C7F83A
:104820000480BD60FD603E617D61BD61FD613D62F2
:104830007D623846FEF7EAFD08B1FDF77BFA676353
:10484000BC63032201212520FFF744F82520FFF750
:1048500035F865E7DFF8D4E170451ED1DCF80000DB
:1048600040F40030CCF80000DCF8000000F4003028
:104870000190086840F008000860086800F008002F
:10488000019060200290039304950592CDF818B032
:1048900002A96748FEF776FE42E7DFF898E1704527
:1048A0003DD1DCF8000040F48020CCF80000DCF8BA
:1048B000000000F480200190086840F008000860C3
:1048C000086800F0080001904FF4407002900393D4
:1048D00004950592CDF818B002A95548FEF752FE8E
:1048E0004C48554F30383860C7F80480BD60FD60D3
:1048F0003E617D61BD61FD613D627D623846FEF7CE
:1049000085FD08B1FDF716FA6763BC630022114606
:104910002720FEF7DFFF2720FEF7D0FF00E7DFF8B4
:104920001CC1604595D1DAF8000040F02000CAF8BB
:104930000000DAF8000000F020000190086840F064
:1049400040000860086800F0400001904FF4844087
:104950000290039304950592CDF8189002A9384867
:10496000FEF710FEDFF8D0802F4808F160081838F5
:10497000C8F80000C8F80470C8F80850C8F80C500F
:10498000C8F81060C8F81450C8F81850C8F81C507F
:10499000C8F82050C8F824504046FEF737FD08B14B
:1049A000FDF7C8F9C4F83480C8F83840DFF88880CB
:1049B0001D4808F1C0086030C8F80000C8F804704D
:1049C0004020C8F80800C8F80C50C8F81060C8F8B3
:1049D0001450C8F81850C8F81C50C8F82050C8F82F
:1049E00024504046FEF712FD08B1FDF7A3F9C4F8C4
:1049F0003080C8F83840002201214720FEF76AFFC6
:104A00004720FEF75BFF8BE600780040403802400D
:104A100000100240586002403C060020007C00402C
:104A20000010014000040240406402400044004085
:104A3000000C0240004800405C07002000140140C8
:104A40000018024037B50446134694F83A0020286F
:104A500001D002203EBD019A8AB383B394F8380096
:104A600001282FD0012084F83800A262A3850025F8
:104A7000E563222084F83A00616B1348C863616BD8
:104A800012480864616B1248C864606B0565216850
:104A9000606B091DFEF722FD2068C16841F480713A
:104AA000C1602068416941F00101416120684169AC
:104AB00041F04001416184F8385000203EBDFFE7DD
:104AC0000120FBE70220F9E7237A00085F7A00085B
:104AD000D9790008704770472DE9F84304460D4620
:104AE00091461E4694F83900202802D00220BDE8E5
:104AF000F883B5B1B9F1000F13D094F8380001284C
:104B000011D0012084F838000027E763212084F8C1
:104B10003900FEF735FE8046A4F82490A4F82690CC
:104B20002CE00120E3E70220E1E7401EE084A068DA
:104B3000B0F5805F09D043460022802120460096D0
:104B400003F0BDF9B0B10320D1E743460022802134
:104B50002046009603F0B3F908B10320C7E7288880
:104B60002168C0F308004860206908B16D1C05E0A9
:104B7000AD1C03E0216815F8010B4860E08C0028AB
:104B8000D3D14346002240212046009603F097F9F6
:104B900008B10320ABE72020383460702770002074
:104BA000A5E770472DE9F84F82460027754EA6F11C
:104BB0000A091AF807005A283CD10AEB0700417885
:104BC000A52937D18178C27841EA02214A46A9F85D
:104BD00008100379407943EA002090804FF00008E4
:104BE000491F914600911AE000EB0A04A079C02801
:104BF0005ED008DC902822D0A02824D0A52826D07A
:104C0000B02808D127E0D02856D0D1287ED0D92886
:104C10007DD0F0287CD0A9F8065008F10108B9F839
:104C20000650009978194044821D8A42DCDD00213B
:104C3000A9F806107F1C282FBBDBBDE8F88F6D1C80
:104C4000A9F80650E9E7AD1DA9F80650E5E7AD1D46
:104C5000A9F80650E1E7E0793070207A7070B6F973
:104C60000000FBF787FD4849FBF769FBDFF81CB143
:104C7000CBF80000607A3070A07A7070B6F900004E
:104C8000FBF778FD4049FBF75AFBCBF80400E07ACC
:104C90003070207B7070B6F90000FBF76BFD3A496D
:104CA000FBF74DFBCBF80800AD1DA9F80650B4E7A3
:104CB000AD1DA9F80650B0E7E0793070207A707029
:104CC000B6F90000FBF756FD3149FBF738FBDFF87A
:104CD000BCB00BF10C0BCBF80000607A3070A07AFE
:104CE0007070B6F90000FBF745FD2949FBF727FB7B
:104CF000CBF80400E07A3070207B7070B6F90000C9
:104D0000FBF738FD2049FBF71AFB02E032E02DE00B
:104D100034E0AD1DA9F806501E49FBF7B8FA044669
:104D2000CBF80800D9F81010FBF703FB1A498842AA
:104D300005D9D9F81400401CC9F8140007E0174938
:104D4000884204DDD9F81400401EC9F81400D9F8CF
:104D50001400FBF70FFD1249FBF7F1FA2146FBF7B0
:104D600096FAC9F81800C9F8104056E70C35A9F8AA
:104D7000065052E71035A9F806504EE72D1DA9F848
:104D800006504AE702030020CDCCCC3DE4100020C1
:104D90000AD7233C00003443000096C3000096432A
:104DA0000000B44308B51B4800680168C943C90640
:104DB0002FD4016840680090174800681648001D0D
:104DC00000681648164A4FF000610068904203D907
:104DD00013484C3801600FE0124A904203D9104842
:104DE0005038016008E00F4B0E4A603BB83A9842D9
:104DF00001D9D16000E091600648FFF779FB2822D5
:104E000009490448FFF71EFEBDE808400648FFF7C1
:104E1000C9BE08BDBC040020007800403C0600204C
:104E200058640240B8600240F4130020FEE700001E
:104E30002DE9F05F184C0025E5612570174EDFF86D
:104E40006080DFF86090DFF860A0DFF860B040F6C7
:104E5000B8374146B06CFBF7A4FA4946FBF769FA4C
:104E6000FBF700FD21F0004152465B46FBF70EFDCB
:104E700003D2E069401CE06100E0E561E069B8420E
:104E800005DB0B480B498068086001202070207802
:104E90000028DED0BDE8F09FF8020020200A0020A4
:104EA000780BB6410A5769439A9999999999C93FDC
:104EB000F01000204400002010B50C480068C168C4
:104EC00041F01001C160282209490848FFF7BAFDE6
:104ED00008480068C16841F01001C16004492822F7
:104EE000BDE810403A310348FFF7ACBDFC04002098
:104EF000BA130020BC0400202DE9F05F074600250E
:104F0000DFF8F4B1DFF8F4816FF00E09785D552811
:104F10004CD17C196078512804D0522847D05328AE
:104F2000F6D18FE0A078E17840EA012000B2FBF7EB
:104F30002FFC4A46FBF707FC0422FBF704FCFBF7B7
:104F4000D5FC6F4E30602079617940EA012000B2D3
:104F5000FBF71EFC4A46FBF7F6FB0422FBF7F3FBCC
:104F6000FBF7C4FC7060A079E17940EA012000B24F
:104F7000FBF70EFC4A46FBF7E6FB0422FBF7E3FBDC
:104F8000FBF7B4FCB060207A617A40EA012000B2FD
:104F9000FBF7FEFB00225B46FBF766FB0022594B4A
:104FA000FBF749FAFBF7A2FCC8F80C009EE0A078DA
:104FB000E17840EA012000B2FBF7EAFB4A46FBF742
:104FC000C2FBDFF844A100225346FBF7DBFAFBF7F4
:104FD0008DFC4B4E0C3630602079617940EA01201F
:104FE00000B2FBF7D5FB4A46FBF7ADFB0022534668
:104FF000FBF7C8FAFBF77AFC7060A079E17940EA28
:10500000012000B2FBF7C4FB4A46FBF79CFB0022E1
:105010005346FBF7B7FAFBF769FCB060207A617A78
:1050200040EA012000B2FBF7B3FB00225B46FBF72E
:105030001BFB0022334BFBF7FEF9FBF757FCC8F8CC
:105040000C0053E0A078E17840EA012000B2FBF7C1
:105050009FFB4A46FBF777FBDFF8B0A000225346E0
:10506000FBF790FAFBF742FC254E183630602079AA
:10507000617940EA012000B2FBF78AFB4A46FBF760
:1050800062FB00225346FBF77DFAFBF72FFC7060B2
:105090002079617940EA01204FF4FA6110FB01F0B8
:1050A000A8F80200A079E17940EA012000B2FBF7FC
:1050B0006FFB4A46FBF747FB00225346FBF762FAB9
:1050C000FBF714FCB060207A617A40EA012000B25C
:1050D000FBF75EFB00225B46FBF7C6FA0022094B9A
:1050E000FBF7A9F9FBF702FCC8F80C006D1C282D92
:1050F000FFF60CAFBDE8F09F00407540F8020020BD
:10510000C01000200020424000409F4000806640C8
:1051100008B51B4800680168C943C9062FD4016857
:1051200040680090174800681648001D006816483F
:10513000164A4FF400110068904203D913484C38C6
:1051400001600FE0124A904203D9104850380160C4
:1051500008E00F4B0E4A603BB83A984201D9D16043
:1051600000E091600648FFF7C3F928220949044886
:10517000FFF768FCBDE808400648FFF7BDBE08BD64
:10518000FC040020007C00409C0600205864024083
:10519000B8600240BA1300202DE9F04F87B0FE4EF0
:1051A000FE4C4FF0010B708A4FF0000901040DD541
:1051B000A18909040AD4FA4A117811B1012903D04E
:1051C00004E082F800B001E082F80090F54DF64965
:1051D000F64AC70611D55B1C0F2B02DBF44B0B60A4
:1051E000136084F801B0F34BF34F1B68BB4208DC3B
:1051F0000D60156084F8019003E00D60156084F87F
:105200000190E649DFF894A3C207096A0AF1340A5B
:105210003ED0C2063CD411F0FF4F01D1E7482062D6
:105220004FF07E51206AFBF732F82062E449884251
:1052300000DB2162206AFBF7B4F8E249FBF77FF854
:105240004FF0FF31FBF7EBF8FBF70CFB03F056FCDC
:105250000022DD4BFBF793F90746206A884606904B
:10526000FBF700FB21F000460546D8490698FBF7FE
:1052700066F8FBF7F7FA2A463346FBF7F5F93A46A4
:105280004346FBF77FF9FBF7CEFAAAF8000050E09F
:1052900082073FD5C2063DD411F0FF4F01D1CC4863
:1052A00020624FF07E51206AFBF743F82062C94923
:1052B000884200D32162C249206AFBF772F8C149D3
:1052C000FBF73DF84FF0FF31FBF7A9F8FBF7CAFAFF
:1052D00003F014FC0022BC4BFBF751F90746206A8F
:1052E00088460590FBF7BEFA21F000460546B7490F
:1052F0000598FBF724F8FBF7B5FA2A463346FBF787
:10530000B3F93A464346FBF73DF9FBF78CFAAAF8A6
:1053100000000EE0A149112201F134018243B1F9EC
:1053200000100AD01222824314D0AAF80090C4F8C8
:1053300020909B480078C8B1AAE0C4F820900A31B8
:1053400008B2AAF800004FF42F718842F1DBAAF8E6
:105350000010EEE7C4F820900A3908B2AAF800005D
:105360009D498842E5DCAAF80010E2E78A48408AB5
:10537000410740D5C1063ED4606A10F0FF4F01D10D
:10538000964860624FF07E51606AFAF7D2FF606221
:105390009049884200D361628949606AFBF701F84D
:1053A0008849FAF7CCFF4FF0FF31FBF738F8FBF7ED
:1053B00059FA03F0A3FB0022834BFBF7E0F8074602
:1053C000606A88460490FBF74DFA21F000460546D6
:1053D00083490498FAF7B3FFFBF744FA2A463346A9
:1053E000FBF742F93A464346FBF7CCF8FBF71BFACA
:1053F000AAF802004CE001073FD5C1063DD4606A1F
:1054000010F0FF4F01D1774860624FF07E51606A23
:10541000FAF73DFF60626A49884200DB6162606AB8
:10542000FAF7BFFF6749FAF78AFF4FF0FF31FAF743
:10543000F6FFFBF717FA03F061FB0022624BFBF764
:105440009EF80746606A88460390FBF70BFA21F046
:105450000046054662490398FAF771FFFBF702FA26
:105460002A463346FBF700F93A464346FBF78AF8EB
:10547000FBF7D9F9AAF802000AE01421814315D0FC
:10548000C0F3C10003281FD0C4F82490AAF80290EA
:10549000414F55484FF00F017D8A4FF00502EB0652
:1054A00021D5036859630068826320E0C4F8249022
:1054B000BAF802000A3800B2AAF802004649884247
:1054C000E6DCAAF80210E3E7C4F82490BAF8020078
:1054D0000A3000B2AAF802004FF425718842D7DBE7
:1054E000AAF80210D4E703685A6300688163B7F929
:1054F0000C00FBF73FF93D49FAF721FF3C4E3168BC
:10550000FAF7C5FE3060B7F90A00FBF733F93949FD
:10551000FAF715FF7168FAF7BAFE70603648E905C8
:1055200002D580F800B001E080F80090A8056BD5A6
:105530003249224AC86B904201DDC4F830902449B8
:10554000884201D9C4F830B0256B4DB94FF07E5177
:10555000A06AFAF7EEFEA0622949884200D3A16250
:10556000284E012D08D14FF07E51A06AFAF78FFE28
:10557000A062B04200DBA6623146A06AFAF711FFD2
:105580001049FAF7DCFE4FF0FF31FAF748FFFBF75E
:1055900069F903F0B3FA38E0E80B0020700100204D
:1055A0003000002000004041D8010020DC01002034
:1055B0000000B041B401002000009C410000F04117
:1055C00000002043C3F548400000F03F0000B9430D
:1055D0000000F0C1000020C36CFDFFFF0000A0C16F
:1055E00000007A430000A0416C090020CDCC4CBDE6
:1055F000980A0020CDCCCCBD48020020240E00200B
:10560000000020C10000204129E00022AB4BFAF746
:10561000B6FF0746A06A88460290FBF723F921F0FF
:1056200000460546A6490298FAF789FEFBF71AF9E3
:105630002A463346FBF718F83A464346FAF7A2FFE4
:10564000FBF754F99F49086014229F499F48FAF7D5
:10565000FAFD14229E499F48FAF7F5FD0CE099489F
:10566000C0F8309014229C499848FAF7ECFD1422B7
:105670009A499848FAF7E7FD994F7D8A68050DD554
:10568000A08940050AD49749087810B1012803D0B1
:1056900004E081F800B001E081F800903E7C012E2A
:1056A00004D1606810B9904880F800B042F2200040
:1056B000A8430DD1A089800401D5A80608D4DFF83D
:1056C0002C828B49D8F80400FAF7E1FDC8F80400F1
:1056D000797C8848012910D080F80090A80615D55B
:1056E000207B800614D4A069401CA061824A02403D
:1056F000012A05D0C00706D00AE080F800B0EDE727
:1057000084F802B004E00220A07001E084F8029066
:1057100068040BD5A089400408D4E069012801D1B0
:10572000C4F81C90E06908B9C4F81CB06660A160B8
:10573000E560724806789EB97148816C7148FAF745
:10574000F8FD7149884202DC7049884208D95D48F9
:10575000C06AFBF73BF8AAF8040007B0BDE8F08F79
:10576000012EFAD16A4EBB4668070AD54FF07E512A
:10577000E06AFAF7DEFDE062664988420FD9E1622D
:105780000DE0280709D54FF07E51E06AFAF77FFD5A
:10579000E062B04203DDE66201E0C4F82C903146DD
:1057A000E06AFAF7FEFD5C49FAF7C9FD4FF0FF31F8
:1057B000FAF735FEFBF756F803F0A0F900223F4B4D
:1057C000FAF7DDFE0746E06A88460190FBF74AF8E3
:1057D00021F00046054651490198FAF7B0FDFBF764
:1057E00041F82A463346FAF73FFF3A464346FAF76E
:1057F000C9FEFBF718F8BBF80A10C1EB011100EB6A
:10580000410000B2AAF804004FF4C871884201DBDD
:10581000AAF80410BAF904104148814201DCAAF840
:105820000400BBF8120041060AD54FF07E51606AB1
:10583000FAF77FFD60623B49884210D361620EE057
:1058400000060AD54FF07E51606AFAF720FD6062CB
:105850003549884203DB616201E0C4F82490334992
:10586000606AFAF79EFD2C49FAF769FD4FF0FF31A7
:10587000FAF7D5FDFAF7F6FF03F040F900220F4BD7
:10588000FAF77DFE0546606A0E460446FAF7EAFF1F
:1058900021F00048074626492046FAF750FDFAF75E
:1058A000E1FF3A464346FAF7DFFE2A463346FAF767
:1058B00069FEFAF7B8FFAAF802004EE70000F03FD1
:1058C00000008242240E002034020020300C002010
:1058D0000C0200201C0C002020020020F8010020F7
:1058E000E80B0020490200204A020020980A00200C
:1058F0000000B442C40200200100008030000020FB
:10590000200A00200A5769430000A0400000A0C000
:1059100000007042000070C2C3F548400000E1433F
:1059200070FEFFFF0000C8C20000C8420000F04146
:1059300000007A437FB5002100910191029103910B
:105940001E481D4A02604FF400324260816001240B
:10595000046184610162C162194A8262C1600325E7
:10596000C56104634461FCF78EFE08B1FCF7E2F9FF
:105970000820009001940720029069460F48FCF728
:10598000C7FC08B1FCF7D6F90E2000900220019068
:1059900069460A48FCF7BCFC08B1FCF7CBF90F20BC
:1059A0000090019569460548FCF7B2FC002801D03B
:1059B000FCF7C0F97FBD00000020014080030020FB
:1059C0000100000F10B510480E490160032141602D
:1059D00000218160C1604FF4002202614FF4401247
:1059E00042618161C1610162416281620121C162E2
:1059F000FDF7A2F8002803D0BDE81040FCF79AB9E3
:105A000010BD0000006400402804002010B51048BC
:105A10000E4901600321416000218160C1604FF4A3
:105A2000002202614FF4401242618161C161016252
:105A3000416281620121C162FDF77EF8002803D036
:105A4000BDE81040FCF776B910BD000000680040CA
:105A5000680400201CB50024009401940B490A48F6
:105A600008600846FDF7FEFA08B1FCF763F90094F8
:105A700002200190002269460448FDF7D2FA00286E
:105A800001D0FCF757F91CBD00740040A8040020A9
:105A900008B52548016841F400110160016801F46E
:105AA00000110091016841F480010160006800F478
:105AB00080000090002211460C20FDF70BFF0C2007
:105AC000FDF7FCFE002211460E20FDF703FF0E201D
:105AD000FDF7F4FE002211461120FDF7FBFE112018
