:020000040800F2
:10000000B8190020C1010008D15E0008E54E0008C3
:10001000095C0008DD0F000899800008000000005E
:1000200000000000000000000000000095720008C1
:10003000F91A000800000000195F0008F5760008B2
:10004000DB010008DB010008DB010008DB01000820
:10005000DB010008DB010008FD1A0008DB010008D5
:10006000DB010008DB010008DB010008DB01000800
:10007000F1180008DB010008FD180008DB0100088A
:10008000DB0100080919000861090008DB0100080C
:10009000E10F0008DB010008DB0100085D1B000820
:1000A000DB010008DB010008DB010008DB010008C0
:1000B000E17700081578000829780008DB010008BE
:1000C000DB010008DB010008DB010008DB010008A0
:1000D000DB0100087B800008DB0100087F8000084E
:1000E000451B0008DB010008DB010008517800080F
:1000F000DB010008DB010008DB010008DB01000870
:10010000DB010008DB010008DB010008DB0100085F
:10011000DB010008DB010008DB0100083D78000876
:1001200015190008211900082D190008DB01000825
:10013000DB010008DB010008DB010008DB0100082F
:1001400001100008DB010008DB010008DB010008EA
:10015000DB01000839190008DB0100088580000870
:10016000DB010008DB010008DB010008DB010008FF
:10017000DB010008DB010008DB01000800000000D3
:10018000DB010008DB0100081B7B00081F7B000867
:10019000DB010008DB010008DB010008DB010008CF
:1001A0000000000000000000DB010008DFF80CD0B8
:1001B00000F058FB00480047D5850008B81900201A
:1001C0000648804706480047FEE7FEE7FEE7FEE7F1
:1001D000FEE7FEE7FEE7FEE7FEE7FEE78D770008B5
:1001E000AD0100082DE9F05F0546002092469B46D0
:1001F00088460646814640241BE02846414647463D
:10020000224600F078FA53465A46C01A914110D35C
:1002100011461846224600F05FFA2D1A67EB0108D6
:100220004F4622460120002100F056FA17EB000944
:100230004E41201EA4F10104DFDC484631462A4627
:100240004346BDE8F09F40EA01039B0703D009E065
:1002500008C9121F08C0042AFAD203E011F8013BB2
:1002600000F8013B521EF9D27047D2B201E000F80B
:10027000012B491EFBD270470022F6E710B513464A
:100280000A4604461946FFF7F0FF204610BD2DE947
:10029000FE4F804681EA0300C00F0C46009021F01B
:1002A000004123F00045B8EB0200A94105D24046C9
:1002B000214690461C460B46024623F00040104360
:1002C00047D0270DC7F30A00C3F30A510290401A22
:1002D000019040286BDAC3F3130040F4801B0098B0
:1002E000924620B10023D2EB030A63EB0B0B01987B
:1002F0005946C0F14002504600F0EEF906460D4660
:1003000050465946019A00F006FA10EB0800614188
:10031000002487EA115284EAE7731A4340D0009A16
:1003200062B3019A012A4FEA075215DC001B61EB08
:1003300002014FF0004202EA0752CDE90042001CE0
:1003400041F5801132462B4600F03DFA03B0BDE87E
:10035000F08F40462146F9E7001B61EB0201001CCB
:1003600041F5801300185B412018A2F5001747EBF8
:10037000030140EAD570B6196D4111E06D084FEAEE
:10038000360645EAC0754FEA0752001B61EB0201D1
:10039000001C41F5801149084FEA30000019514115
:1003A00032462B4603B0BDE8F04F00F0FDB900988F
:1003B000012240000023D0EB020263EBE0730098BF
:1003C00021464FEAE074B8EB000061EB0401E9E775
:1003D00083F000435BE781F0004158E72DE9FE4FD1
:1003E00081EA030404F0004421F0004100944FF03E
:1003F000000B23F0004350EA01045ED052EA0304EC
:100400005BD0C3F30A54C1F30A552C44A4F2F3346D
:100410000194A0FB0254C1F3130141F48011C3F312
:10042000130343F4801301FB024400FB034E840AD0
:10043000970A44EA815447EA8357A4FB0768029568
:100440008D0A05FB07854FEA932C04FB0C54270506
:10045000029D4FEA065847EA1637B5EB08056EEBE2
:10046000070C870E920E47EA811742EA8312A7FB18
:100470000201B6EB0B0164EB00042B0D43EA0C33D5
:100480005E1844EB1C50DA465146E7FB0201C5F307
:1004900013044FEA0B3343EA14534FEA0432019C2E
:1004A00043EA0603A4F10C040294009CCDE900B4D5
:1004B00000F089F903B0BDE8F08F00200146F9E7AC
:1004C0002DE9F04D81EA030404F0004B21F00045D2
:1004D00014464FF0000A23F0004150EA050220D0F4
:1004E00054EA01021DD0C5F30A570246C5F31303AF
:1004F000C1F31300C1F30A5640F4801543F480138E
:10050000A7EB0608101BD64608F2FD3873EB050072
:1005100002D308F1010801E092185B41B8F1000F25
:1005200003DA00200146BDE8F08D00204FF4801171
:10053000064684460EE0171B73EB050705D3121B16
:1005400063EB050306434CEA010C49084FEA30000F
:1005500092185B4150EA0107EDD152EA030012D034
:1005600082EA040083EA0501084305D0101BAB4171
:1005700006D20122002306E000224FF0004302E0F1
:100580006FF0010253101AEB06004CEB085110EB10
:100590000A0041EB0B01BDE8F04D00F005B90EB5C6
:1005A000C10F80EAE0700844CA07002140F23343DB
:1005B0008DE80E000A460B4600F005F903B000BDB9
:1005C0000EB540F2334102910021CDE900110A46F7
:1005D0000B4600F0F8F803B000BD70B5C1F30A5245
:1005E00001F000450024C1F3130140F2FF3341F450
:1005F00080119A4201DA002070BD40F233439A42E2
:10060000A2F2334203DC524200F075F800E0904061
:100610002C43F1D0404270BD00F0004230F0004069
:100620000AD0C10D01F56071C0F3160042EA015114
:10063000C208400711437047002001467047000080
:1006400030B5041E71F1000404DB4FF00044404259
:1006500064EB0101141E73F1000405DB1C464FF02E
:100660000043524263EB04038B4208BF824230BD19
:1006700030B5041E71F1000404DB4FF00044404229
:1006800064EB0101141E73F1000405DB1C464FF0FE
:100690000043524263EB0403994208BF904230BDCD
:1006A00001F0004330B421F0004150EA010206D0CD
:1006B0000A0DA2F56072C1F31301002A02DC30BCFE
:1006C00000207047440F44EAC104C100E01830BC68
:1006D00000EBC25000F031B8202A04DB203A00FAC7
:1006E00002F1002070479140C2F1200320FA03F389
:1006F000194390407047202A04DB203A21FA02F087
:100700000021704721FA02F3D040C2F1200291404B
:10071000084319467047202A06DBCB17203A41FAD6
:1007200002F043EAE07306E041FA02F3D040C2F17E
:10073000200291400843194670470029A8BF70471E
:10074000401C490008BF20F00100704710B4B0FA07
:1007500080FC00FA0CF050EA010404BF10BC7047A2
:1007600049B1CCF1200421FA04F411FA0CF118BFBC
:10077000012121430843A3EB0C01CB1D4FEA00618B
:100780004FEA102042BF002010BC704700EBC3505E
:1007900010440029A4BF10BC7047401C490008BF8A
:1007A00020F0010010BC704710B5141E73F1000456
:1007B00008DA401C41F1000192185B411A4301D153
:1007C00020F0010010BD2DE9F04D92469B4611B17D
:1007D000B1FA81F202E0B0FA80F220329046FFF7DF
:1007E0007BFF04460F4640EA0A0041EA0B015346EC
:1007F0005A46084313D0114653EA010019D0C8F1F4
:1008000040025046FFF777FF05460E4650465946D0
:100810004246FFF761FF084305D0012004E020466F
:100820003946BDE8F08D0020054346EAE0762C43CA
:1008300037430A986305E40AA0EB08000022FD0A8A
:1008400044EA47540A3002D500200146E9E7010591
:1008500010196941DDE9084500196941BDE8F04D0D
:10086000A2E70000064C074D06E0E06840F00103F7
:1008700094E8070098471034AC42F6D3FFF79AFC8F
:10088000388B0008588B000870B58C1810F8015B85
:1008900015F0070301D110F8013B2A1106D110F819
:1008A000012B03E010F8016B01F8016B5B1EF9D11D
:1008B0002B0705D40023521E0DD401F8013BFAE7A3
:1008C00010F8013BCB1A921C03E013F8015B01F80E
:1008D000015B521EF9D5A142D8D3002070BD10B5DE
:1008E0000146886B026C12F0500F05D0806BC26C11
:1008F000BDE8104008461047016C41F400710164E6
:1009000001688A6812F0405F17D18269AAB9CA6A81
:1009100012F4700F02D08A6852050ED44A6822F091
:1009200020024A60016C21F480710164016CC904E9
:1009300003D4016C41F00101016401F0DBFD10BD45
:1009400010B5806B40210164416C41F004014164A9
:1009500001F03BFE10BD10B5806B01F035FE10BDFF
:10096000014801F033BE0000F803002010B54C49E7
:100970000A6822F440320A600A6843681A430A602F
:1009800001684A6822F480724A6001684A68036913
:1009900042EA03224A6001684A6822F040724A60D3
:1009A00001684A6883681A434A6001688A6822F4C9
:1009B00000628A6001688A68C3681A438A60816A33
:1009C0006FF07062D14214D001688A6822F07062C0
:1009D0008A6001688A68836A1A438A6001688A6843
:1009E00022F040528A6001688A68C36A1A438A60AA
:1009F00009E001688A6822F070628A6001688A688A
:100A000022F040528A6001688A6822F002028A60FD
:100A100001688A68836942EA43028A60016AB9B15F
:100A200001684A6842F400624A6001684A6822F438
:100A300060424A6001684B68426A4FF4604494FA2D
:100A4000A4F4521EB4FA84F4A24013434B6004E0B1
:100A500001684A6822F400624A600168CA6A22F4A6
:100A60007002CA620168CB6A828B521E43EA02524C
:100A7000CA6201688A6822F400728A6001688A6822
:100A8000036B42EA43228A6001688A6822F480622A
:100A90008A6001688A68406942EA8020886010BDE7
:100AA0000423014070B52DED028B464C60789FED1C
:100AB000468AF2EE008A4FF08245012801D0F0B15B
:100AC00042E0002006F044FC012006F029FC94EDF1
:100AD000070A3E4910EE100A884202DB84ED058ABF
:100AE00032E010EE100AA84206DBDFED390A80EE94
:100AF000801A84ED051A27E0C4ED058A24E0012060
:100B000006F00EFC012006F023FC94ED070A3149A3
:100B100010EE100A884202DB84ED058A14E010EE24
:100B2000100AA8420EDBD4ED090A9FED2B1A60EEE5
:100B3000810AB7EE001A30EE010A80EE801A84EDC9
:100B4000051A01E0C4ED058A94ED050A10EE100ABD
:100B5000A84201DDB2EE000A84ED050A1F480089B3
:100B60003C2801D100212163DFED1D0A142804D2A5
:100B7000C4ED050A012020631CE0216BD1B93C289B
:100B800018D230EE600AB5EEC00AF1EE10FA01DCC0
:100B90009FED140A01EE100AF8EE411AB3EE0E1A98
:100BA00071EEC11A20EE210AC0EE011A31EEA00A40
:100BB00084ED050A94ED050ABDEC028BBDE870409A
:100BC00006F06ABBF4010020333333400000B84123
:100BD00000008E420000C44100008C42241300201B
:100BE00066662640000000001D4940F2FF100A6BB7
:100BF00010600A6B002090600A6BD0600A6B0820BE
:100C000010611848184A0078002802D0012812D034
:100C100022E092ED0B0A0B6BBDEEC00A10EE100A3B
:100C20000012187692ED0B0A096BBCEEC00A10EEAA
:100C3000100A487610E092ED160A0B6BBDEEC00A62
:100C400010EE100A0012187692ED160A096BBCEE2F
:100C5000C00A10EE100A48760A21014802F04AB98B
:100C6000E00400208802002098100020D1ED0F0A37
:100C7000C1ED100A427D037D42EA032200EE102AF4
:100C8000B8EE400A81ED1B0AC27D837D42EA032251
:100C900012B2A1F87020437E007E43EA0020A1F842
:100CA000720081ED0F0A01EE102AB8EEC11A81ED33
:100CB000021A70EE600A104A91ED111A10EE900AB5
:100CC000F7EE001A904204D971EE210AC1ED110A23
:100CD00008E010EE900A094A904203DD71EE610AC5
:100CE000C1ED110AD1ED110A9FED051A00EE810A3E
:100CF00081ED120A704700000080BBC50080BB4533
:100D000000000046114840F2FF11026B1160026BB7
:100D100000219160026BD160026B082111610C49C6
:100D2000036B91ED0B0ABDEEC00A10EE102A1212F1
:100D30009A7691ED0B0A006BBCEEC00A10EE101A09
:100D4000C1760A21014802F0D5B80000E004002075
:100D500010110020D1ED1B0AC1ED100A427D037D68
:100D600042EA032200EE102AB8EE400A81ED1B0A87
:100D7000C27D807D42EA002000B2A1F8700001EE41
:100D8000100AB8EEC11A81ED021A70EE600A104A1C
:100D900091ED111A10EE900AF7EE001A904204D964
:100DA00071EE210AC1ED110A08E010EE900A094A1D
:100DB000904203DD71EE610AC1ED110AD1ED110A15
:100DC0009FED051A00EE810A81ED120A70470000BE
:100DD0000080BBC50080BB450000004610B58021E7
:100DE000244802F001FD244CA07100F0B9F8206AFB
:100DF0002249032806DB012020729FED210A81EDA4
:100E0000060A01E000202072207A10B1012813D0D8
:100E100022E094ED040AB8EEC00A81ED000AA06950
:100E2000012803D1BBEE040A81ED000A12491348E0
:100E3000603107F032F90FE0607A38B991ED120AAB
:100E4000DFED100A30EE200A81ED0C0A0A490B484A
:100E50008831303005F088F9207A6072A079E0712D
:100E6000054906484C3107F018F9BDE81040FFF776
:100E7000BBBE00000020024080020020981000202D
:100E80000000000000000C4370B52F4800242F4DD7
:100E90000078012809D02C702C712C482C4E297810
:100EA000407896ED120A71B111E0287930B101282D
:100EB000F3D1E878012803D02C71EEE72C70ECE731
:100EC00001202870E9E7012801D186ED0C0A0129EB
:100ED00006D128B9DFED1F0A30EE600A86ED0C0A54
:100EE0001A491B487431303005F03EF996ED160A68
:100EF00086ED000A15491648603107F0CEF8FFF775
:100F000001FF2878687001281BD196ED0C0AD6EDF8
:100F1000120A30EE600A10EE100AFFF77DFB00EEB9
:100F2000100A21F0004210EE101A9FED0B1B42EC4C
:100F3000101B53EC112B51EC100BFFF781FB00D869
:100F40002C716C7170BD000028030020800200200D
:100F50001011002000606A47000000000040AF4010
:100F600010B51A4A107A00282FD11948194C0023BD
:100F700090ED000AB0F9700010EE101AA1420DD1E8
:100F800001280BDC5169491C5161462904DD01210E
:100F900091616E21516108E0936106E010EE101A34
:100FA0000D4CA14201D053619361B5EEC00AF1EE40
:100FB00010FA0AD2002808DC9069012805D150698E
:100FC000401E5061002800D1936110BD80020020B6
:100FD000981000200000A0410000A0C1FEE7000022
:100FE00010B5064800F0B6F8044801F023FDBDE84E
:100FF00010400021014801F033BF0000A004002090
:1010000010B5064800F0A6F8044801F013FDBDE84D
:1010100010400021014801F023BF0000E00400203F
:1010200010B54FF4D872036802EB01129B5803F01D
:101030000404436B9C60436B002C55D00468A45897
:10104000E4085C6003689A58436B02F00202DA60BD
:101050004FF4DA72036802EB01129B58446B03F001
:101060000F03236103689A58436BC2F30722DA61C6
:101070004FF4DC72036802EB01129B58446B23753A
:1010800003689B58446B1B0A637503689B58446B49
:101090001B0CA37503689A58436B120EDA754FF454
:1010A000DE72036802EB01129B58446B23760368DF
:1010B0009B58446B1B0A637603689B58446B1B0C5C
:1010C000A37603689A58436B120EDA76202281B118
:1010D00001680A6101684A6922F010024A6190F8C9
:1010E000381022290DD025E00468A458640D1C6036
:1010F000A8E70168CA6001684A6922F002024A61F1
:10110000EDE701684A6922F480724A6101684A6920
:1011100022F400724A6101684A6922F480624A61DD
:1011200001684A6922F400624A6101684A6922F44E
:1011300000424A6190F83810322906D0012180F827
:10114000381001F0D5FE002010BD122180F83810B3
:10115000F7E700001E4988421DD1486B0168A1F2E3
:101160000121082932D2DFE801F0040731310A0DEC
:101170001013184906F03AB8174906F037B817495E
:1011800000F00AB9164900F007B9164900F004B991
:10119000154900F001B91549884217D1486B01681B
:1011A000A1F50071053908D0012909D002290AD01A
:1011B00003290BD10E49FFF7CDBD0E4900F04ABD02
:1011C0000D4900F047BD0D49FFF750BD70470000C5
:1011D000A0040020A80F002020100020500D0020A7
:1011E000C80D0020400E0020B80E0020E0040020B2
:1011F00010110020340B0020BC0A002098100020A1
:1012000010B501684A6922F001024A6190F838106D
:10121000122918D101684A6922F480724A61016872
:101220004A6922F400724A6101684A6922F48062C4
:101230004A6101684A6922F400624A6101684A69A8
:1012400022F400424A6190F83810322906D0012178
:1012500080F8381001F026FF002010BD222180F810
:101260003810F7E730B5174C174D2146E369486B46
:10127000C978401C0022AB420BDD022901D060631B
:1012800000E06263606B322802DD0220E07062637E
:1012900030BD0E4DAB420BDD012901D0606300E093
:1012A0006263606B3228F3DD0120E070626330BD61
:1012B00009B1606300E06263606B3228F7DDE270C1
:1012C000626330BDF40100200000C4410000904181
:1012D0002C4840F2FF11026B1160026B00219160FB
:1012E000026BD160026B082111612749036B91EDFC
:1012F0000B0ABDEEC00A10EE102A12121A7591EDFB
:101300000B0A026BBCEEC00A10EE101A51751F4991
:10131000036B91ED0B0ABDEEC00A10EE102A1212FB
:101320009A7591ED0B0A026BBCEEC00A10EE101A12
:10133000D1751749036B91ED0B0ABDEEC00A10EE93
:10134000102A12121A7691ED0B0A026BBCEEC00A3B
:1013500010EE101A51760F49036B91ED0B0ABDEE9A
:10136000C00A10EE102A12129A7691ED0B0A006B49
:10137000BCEEC00A10EE101AC1760A21014801F035
:10138000B9BD0000A0040020500D0020C80D0020B1
:10139000400E0020B80E0020C27D837D42EA032269
:1013A00012B221F8702F00EE102AB8EEC00A01ED3B
:1013B0001A0A427E007E42EA002048807047000000
:1013C00000B500F045FD284A9FED281A92ED070A66
:1013D000B5EEC00AF1EE10FA01D282ED071A00F064
:1013E000BBFD82ED080A00F091FDD2ED070A20490D
:1013F000F5EEC00AF1EE10FA0ADDDFED1E1A70EE0E
:10140000E10AD2ED081A60EEA10AC1ED000A01E07E
:1014100081ED001A1848D0ED000AC0ED010A174A04
:101420009FED172A128801EE902AF8EE611A61EEFC
:10143000801A81EE820ADFED131A30EE210AD1ED17
:10144000001A30EE210A80ED000AF5EEC00A0E48BF
:10145000F1EE10FA02D280ED001A00BD30EE600A03
:1014600080ED000A00BD0000F40100200000000033
:10147000140000203333B33F080000202413002061
:1014800000007A449A9999401000002000B58BB072
:101490000020079001210891019002900390049090
:1014A0000690059009910E200A90064804490163B0
:1014B0001C31416301A901F047FA0BB000BD0000E7
:1014C00034150020A004002000B58BB00020079048
:1014D0000122089201900290039004900E2106913F
:1014E000059009920A910648044901631C31416341
:1014F00001A901F029FA0BB000BD0000741500200D
:10150000E004002070B55B485B4D007800284CD1AA
:101510005A4E96ED120ADFED5A0A30EEC00ADFEDA0
:10152000590A594C80EE201A84ED0F1A574904F1DC
:10153000300005F077FD94ED160A84ED000A54485A
:10154000006818B99FED530A84ED000A012803D101
:101550009FED510A84ED000A50480078012813D10C
:10156000E06DA84204DDB2EE0E0A84ED000A0BE045
:101570004B49884204D9BAEE0E0A84ED000A03E012
:101580009FED480A84ED000AB6F9700000EE100ADB
:10159000B8EEC00ADFED440A80EE201A84ED021A8C
:1015A0003A493948143105F091FD00F08BF805F007
:1015B0000FFF05F001FA354B9FED3C0A283B5878A8
:1015C00010B1012803D050E004F088FE4DE0384807
:1015D0000078012801D080B347E03648007848B948
:1015E000354908893C2802D14968A9421ADD197891
:1015F000032917D005F038FF022018702F4804F097
:101600000FFC2E48783004F00BFC1F48F03804F033
:1016100007FC1D48783804F003FC93ED030A04F03E
:101620005DFE22E00321197028280AD92448407A57
:10163000022803D083ED030AEFE705E083ED030AF8
:10164000EBE783ED030AE8E71C4804F0E9FB1B48DD
:10165000783004F0E5FB0C48F03804F0E1FB0A4870
:10166000783804F0DDFB04201870BDE87040FFF707
:101670002FBE0000F30100200000A041340B002029
:1016800000088645780BB641300F00205802002034
:10169000E001002000001643000016C324030020D0
:1016A0000000A0C100000000000070C20000A042C5
:1016B000F5010020F401002024130020500D00202B
:1016C0001C0D002010B53349334BB1F90020B1F99E
:1016D000020000EE102AB1F90410F8EEC00A93EDF2
:1016E000010A60EE801A00EE900AB8EEE01AD3ED1F
:1016F000020A2A4B41EE201A01EE101AB8EEC12A56
:10170000B1EE0C1A42EE011AC3ED001A534201EE7B
:10171000903A224CF8EEE11A783421EE802A01EE5C
:10172000900AF8EEE11A01EEA02A01EE901AF8EE06
:10173000E11A01EE812A84ED002A01EE903A04F1CB
:101740007803F8EEE11A21EE802A01EE900AF8EE15
:10175000E11A01EEE02A01EE901AF8EEE11A01EE2C
:10176000812A83ED002A01EE902AF8EEE11A61EE5B
:10177000801A00EE100A03F17800B8EEC00A40EEBD
:10178000601A00EE101AB8EEC00A40EE011AC0ED61
:10179000001A10BDEC01002030020020500D002086
:1017A00010B52D482D4C006820602D48006800EED3
:1017B000100AB8EEC00A10EE100A606029480068EE
:1017C000A0600D3C2848017820460129407E0DD0BC
:1017D000002106F0BBFE607624480078C0070AD0DE
:1017E000607E012106F0C0FE607609E0002106F06F
:1017F000BBFE6076F0E7607E012106F0A7FE607612
:101800001B48007828B1607E022106F0ADFE6076AC
:1018100004E0607E022106F099FE607615480078AB
:1018200068B1607E032106F091FE60761248007870
:1018300058B1607E042106F097FE607610BD607E90
:10184000032106F091FE6076F0E7607E042106F049
:101850007DFE607610BD00001002002025150020DE
:10186000A00200203003002083020020C1010020DC
:101870002E00002088020020F701002010B5FFF79D
:101880008FFF0F4800F5007109690160FF220421F4
:1018900000F094FB0B4C20711A2221460848FEF7F9
:1018A000D2FC4FF6FF721A21054800F06FFB6083EF
:1018B0002146BDE810401C220148FEF7C4BC0000D0
:1018C000081300201815002010B506F05BFEFFF786
:1018D000D5FF0A23BDE810401C220249024803F04C
:1018E00049B90000081300207406002005F0FABE74
:1018F000014801F0E1BC0000D4070020014801F0DC
:10190000DBBC0000B4060020014801F0D5BC00009B
:1019100014070020014801F0CFBC00004004002063
:10192000014801F0C9BC000034080020014801F062
:10193000C3BC000074070020014801F0BDBC0000DA
:10194000940800200168CAB2103A1823B2FBF3F2DF
:10195000064B9B5CC3656FF30901032A02D9091D7D
:10196000816500E08165806D704700003088000867
:1019700010B5014600208A6A8B694FF0C074002BB5
:101980000ED0B3F5005F1FD08AB3012A32D0022AED
:1019900030D0032A03D1C96AC90100D5012010BD86
:1019A00042B1012A0BD0022AF9D1C96AC901F6D580
:1019B000012010BDC96AC901FBD5012010BDC96A4B
:1019C000A142FBD1012010BD52B1012A0AD0022A46
:1019D0000ED0032AF7D1C96AA142F4D1012010BD6B
:1019E000012010BDC96AC901FBD5012010BD01E06D
:1019F0000120FBE70120F9E730B50468256825F4EC
:101A000080252560046863608368402B04D00368E8
:101A100099600068C26030BD03689A600068C16068
:101A200030BD000010B500F019F80B49182201F183
:101A30001A00FEF708FC08484FF6FF7218211A300A
:101A400000F0A4FA04490883BDE810401A2201F10D
:101A50001A00FEF7F8BB0000941100201648A521DB
:101A600001705A21417015498A68C0F80A200A6835
:101A7000C0F802204968C0F806101149097881733E
:101A80001049DFED110A91ED120A30EE601A9FED58
:101A90000F0AC1EE000A10EE901AC0F80F100C49A0
:101AA00091ED121AC1EE000A10EE901AC0F8131050
:101AB00008490978C175704794110020E11200208F
:101AC00051030020340B002000088645780BB641F6
:101AD000BC0A0020C101002010B5FFF7A3FF32238C
:101AE000BDE810401A220249024803F043B8000042
:101AF000AE110020740500207047000010B501F001
:101B000081FE0C4C206001210B4801F06DFE0B4959
:101B100040B920680A68801A1E2803D9084802685C
:101B2000521C026020680860BDE81040012001F0EE
:101B30005FBD00001C0300200000024020030020C5
:101B4000A002002010B54FF4804001F051FDBDE827
:101B500010404FF4004001F04BBD00000F4A1068E8
:101B6000012814D10E48002101700E4803685B1E45
:101B700003600368002B00DC016011600A48DFEDA0
:101B80000B0A90ED000A30EE200A80ED000A0849A9
:101B900001200870802001F02BBD0000E40100202E
:101BA00084020020A0020020300300200000C84270
:101BB00085020020FEE70000B7EE001A054831EE6E
:101BC000601A21EE000A90ED011A00EE810A80ED04
:101BD000010A70472C0000201B4840F2FF11026BE5
:101BE0001160026B00219160026BD160026B0821D1
:101BF00011611649036B91ED0B0ABDEEC00A10EEA0
:101C0000102A12121A7591ED0B0A026BBCEEC00A73
:101C100010EE101A51750E49036B91ED0B0ABDEED3
:101C2000C00A10EE102A121252429A7591ED0B0A58
:101C3000006BBCEEC00A10EE101A4942C1750A21B1
:101C4000014801F057B90000E0040020340B0020E7
:101C5000BC0A0020427D037D42EA032200EE102AE6
:101C6000B8EE400A81ED1B0AC27D837D42EA032261
:101C7000A1F87020427E007E42EA0020A1F87200A6
:101C8000D1ED1D0A70EE600A1A4A91ED111A10EE9C
:101C9000900AF7EE001A904204D971EE210AC1EDC4
:101CA000110A08E010EE900A134A904203DD71EE2B
:101CB000610AC1ED110AD1ED111ADFED100AB0EE83
:101CC000401A01EEA01A81ED121A81ED1D0A0C488E
:101CD000814208D110EE100AB0F18B4F04DB30EED8
:101CE000C00A81ED120A7047B1EE400A81ED120A76
:101CF000704700000080BBC50060EA450000004658
:101D0000BC0A002090ED000AD0ED030A30EE600A14
:101D100080ED0B0AD0ED090A70EE800AC0ED090AC9
:101D200091ED031AF4EEC10AF1EE10FA01DB80ED39
:101D3000091AD1ED030A90ED091AF1EE600AB4EE2A
:101D4000E01AF1EE10FA01D8C0ED090AD0ED0C0A44
:101D500070EE600AC0ED0D0A80ED0C0A91ED001ADC
:101D6000D0ED091A21EE000A91ED011A01EE210AC7
:101D700091ED021A01EE200A80ED0A0AD1ED040A63
:101D8000B4EEE00AF1EE10FA01DDC0ED0A0A91EDC1
:101D9000040AD0ED0A0AB1EE400AF4EEC00AF1EEF0
:101DA00010FA01D280ED0A0A704790ED000AD0EDDA
:101DB000020A30EE600A80ED070AD0ED060A70EEE6
:101DC000800AC0ED060A91ED031AF4EEC10AF1EEA5
:101DD00010FA01DB80ED061AD1ED030A90ED061A28
:101DE000F1EE600AB4EEE01AF1EE10FA01D8C0ED9F
:101DF000060AD0ED080A70EE600AC0ED090A80ED0F
:101E0000080A91ED001AD0ED061A21EE000A91EDB4
:101E1000011A01EE210A91ED021A01EE200A80ED6D
:101E20000B0AD1ED040AB4EEE00AF1EE10FA01DD7E
:101E3000C0ED0B0A91ED040AD0ED0B0AB1EE400A99
:101E4000F4EEC00AF1EE10FA01D280ED0B0A7047F1
:101E50002448006840F63401234A88420CD200EE40
:101E6000100A9FED221AF8EE400A9FED210A00EEBB
:101E7000810A82ED070A1BE000FB00F100EE101A58
:101E8000DFED1C0A9FED1C1AB8EE400A20EE200A76
:101E9000C0EE010A00EE100A9FED181AB8EE400AD3
:101EA00040EE410A9FED160A30EE800A82ED070AE5
:101EB00092ED070AB5EEC00AF1EE10FA01D8012042
:101EC00000E0002010EE101A0E4B994201DD0121B6
:101ED00000E00021084303D09FED0B0A82ED070AC2
:101EE00070470000D4030020F40100200AD7233CEF
:101EF0007B144E40F085993F0050C3479565083DDF
:101F000004A720429A990142000000000D48408831
:101F1000002813D00C4991ED020AF8EE400A00EEB9
:101F2000100AB8EE400A30EEC00ADFED080A20EED3
:101F3000200ADFED070A20EE200A70479FED050A10
:101F40007047000002000020EC0300200000044263
:101F500000008039000000000848DFED090A90ED1C
:101F6000010AB8EE400A20EE200ADFED060A20EE54
:101F7000200ADFED050A20EE200A7047EC0300205E
:101F80000000DC4200008039E17A943E10B503463F
:101F90001046002B01D0084C0AE04FF6FF7010BD30
:101FA00013F8012B4240D2B234F8122082EA1020FA
:101FB000491E4A1CF4D110BD3889000810B5054CE3
:101FC00003E010F8013B5340E25C491E4B1CF8D182
:101FD000104610BD3888000810B500F021F803F055
:101FE0009DFF06F04BF9BDE81040FFF7F5BD00007E
:101FF0000848094A0168914203DBB3EE0E0A80EDFE
:10200000000A064A0168914203D3BBEE010A80ED43
:10201000000A7047AC0B00200000F041000088C1AE
:102020002DE9F0412DED048BC34C9FEDC49AB0EE29
:10203000498AF0EE488AC24EC24896ED050AD0EDB4
:10204000000A30EE600A86ED090ABF48D0ED010AA9
:10205000C6ED0A0ABD480078012803D1BC480078C3
:1020600001283DD00120207284ED539A84ED549ACA
:1020700084ED550AC4ED560A01F0C4FB206060608F
:1020800084ED589A94ED570ADFEDB20A20EE200A4B
:1020900084ED570A10EE100AFEF7BEFA00EE100AA1
:1020A00021F0004210EE101A42EC101B9FEDAA1B0B
:1020B00051EC100B53EC112BFEF7C2FA01D284ED58
:1020C000579A002004EB800181ED039A81ED2B9A51
:1020D000401CC0B22828F5D3BDEC048BBDE8F081CC
:1020E000207A9F4D38B30020207284ED539A84EDFE
:1020F000549A686801EE100A31EE000A84ED550A20
:10210000286800EE100A30EE200A84ED560A01F02D
:1021100079FB2060606084ED589A84ED579A002026
:1021200004EB800181ED039A81ED2B9A401CC0B233
:102130002828F5D3D0E701F065FB60600020411C42
:102140000A4604EB810104EB800091ED030A80ED67
:10215000030A91ED2B0A80ED2B0AD0B22728EED38B
:10216000D4E90010401A00EE100AB8EE400ADFED84
:102170007D0A6968D6ED091A80EE201A00EE101A61
:1021800030EE210AD4ED551A30EE610AC0EE011A84
:10219000C4ED2A1A00EE100A2868B8EE400A80EE54
:1021A000201A00EE100AD6ED0A0A30EE200AD4ED0D
:1021B000560A30EE600AC0EE010AC4ED520A002051
:1021C00004EB800191ED030A30EE088A91ED2B0AB1
:1021D00070EE288A401CC0B22828F1D3DFED620AD5
:1021E00088EE200A84ED530A88EEA01A84ED541A72
:1021F000DFED5E0A06F004FB86ED080AB07808B948
:1022000084ED579A01286AD110EE100AFEF704FAFD
:1022100000EE100A21F0004210EE101A42EC101BE2
:102220009FED531B51EC100B53EC112BFEF720FAD2
:102230002DD2306A0746FEF7EFF908EE100A21F0BA
:10224000004218EE101A384642EC181BFEF7E4F96B
:1022500053EC182BFEF734F99FED471B53EC112B71
:10226000FEF7BCF8FEF71CFAC4F85C01444988424A
:1022700003DDB1EE040A84ED570A4249D4F85C014B
:1022800088422CD9B9EE040A84ED570A27E094ED70
:10229000570ADFED3D0AB5EEC00AF1EE10FA0BDB8E
:1022A00030EE600AB5EEC00AF1EE10FA02D284ED0B
:1022B000579A01E084ED570A94ED570AB5EEC00A2B
:1022C000F1EE10FA0BD830EE200AB5EEC00AF1EEAE
:1022D00010FA02DD84ED579A01E084ED570AB078D8
:1022E00002280CD1A868B2EE0C1A00EE100AC0EE5B
:1022F000010A96ED080A20EE800A84ED570A94ED53
:10230000570ADFED220AFFF757FC84ED570A606891
:1023100020606868D6ED090A00EE100A30EE200A47
:1023200084ED550A2868D6ED0A0A00EE100A30EE50
:10233000200A84ED560ACFE6B80B0020000000000A
:102340002C0000207C030020FC1200205003002001
:10235000240300203333733F9A9999999999C93F7F
:10236000D512002000007A4400002042CDCC4C3F22
:1023700000000000000020400000000000001440A9
:102380000000A0400000A0C0CDCCCC3D6666663FFA
:102390007047000078B50024009490F83C20012A92
:1023A00019D0012280F83C200A680725092A14D98F
:1023B0000368DE680A3A02EB42029540AE43DE60F3
:1023C0000A788B680A3A02EB420293400268D568A9
:1023D0002B43D36011E0022078BD03681E6902EB35
:1023E00042029540AE431E610A788B6802EB4202BE
:1023F0009340026815692B4313614A681F25072A19
:1024000013D203685E6B521E02EB82029540AE430C
:102410005E630A8893B20A79521E02EB82029340ED
:102420000268556B2B43536328E00D2A13D20368CF
:102430001E6BD21F02EB82029540AE431E630A88D8
:1024400093B20A79D21F02EB820293400268156BA5
:102450002B43136312E00368DE6A0D3A02EB82023B
:102460009540AE43DE620A8893B20A790D3A02EBD8
:10247000820293400268D56A2B43D362194B0268EB
:102480009A4208D10A68122A05D1D3F8042342F4EB
:102490008002C3F8042302689A421ED1124D0A68D2
:1024A000AA4201D0112A18D1D3F8042342F4000221
:1024B000C3F804230968A9420FD10C490C4A0968E2
:1024C000B1FBF2F101EB81014900009102E00099BA
:1024D000491E009100990029F9D180F83C40002064
:1024E00078BD0000002001401200001028000020EC
:1024F00040420F002DE9F05F2DED028B00682D4961
:10250000884253D12C4D2888401C87B22F80002050
:102510002A4E8346A6F1180808EBC00156F8203071
:10252000D1E90042E31842EB0B02C1E90032401C42
:102530000328F1DB642F39D90024204EDFED208AF7
:102540000C369FED208A06F1180906F10C0A08EBFB
:10255000C4053A46D5E900010023FDF743FE46F8DD
:10256000240000222A606A6059F824104AF82410D6
:1025700000EE100AB8EE400A60EE280A00EE101ACB
:10258000B8EE400A40EE080ABCEEE00A10EE100A6F
:1025900049F82400641C032CD9DB0748A0F800B0DC
:1025A000801C4188002901D131894180BDEC028B1A
:1025B000BDE8F09F0020014000000020C80300207B
:1025C0008FC2753DD7A3703F7047704770B5044602
:1025D00020680168C1F340014268C2F3401200293B
:1025E0002AD04AB3216CC90603D4216C41F400718E
:1025F0002164816811F0405F17D1A169A9B9C16A4E
:1026000011F4700F02D0816849050ED4416821F0A1
:1026100020014160206C20F480702064206CC00494
:1026200003D4206C40F0010020642046FFF762FFD5
:1026300021686FF01200086020680168C1F3800112
:102640004268C2F3C01289B382B3216CC90603D4B5
:10265000216C41F400512164816811F4401F1ED1A6
:10266000816B11F4401F02D08168490517D441687D
:10267000490514D4816811F0405F10D1A16971B986
:10268000416821F080014160206C20F4805020647A
:10269000206CC00503D4206C40F00100206420466B
:1026A000FFF776FE21686FF00C0008602068016873
:1026B000C1F300014268C2F3801271B16AB10068CF
:1026C000C0070AD0206C40F480302064204600F01F
:1026D00046F821686FF00100086020680168C1F3C6
:1026E00040114268C2F3806200290DD0002A0BD04D
:1026F000616C41F0020161646FF0200505602046C5
:10270000FFF763FF2068056070BD70B504460026C2
:10271000002C03D0206C002510B107E0012070BD13
:10272000656484F83C50204600F01AF8206CC0061E
:1027300010D4206C20F4885040F002002064204621
:10274000FEF714F96564206C20F0020040F00100EF
:10275000206400E0012684F83C50304670BD70478C
:1027600070B586B00646142101A8FDF785FD2949FC
:10277000306888424BD100252748016841F48071B8
:102780000160006800F480700090234914390868E3
:1027900040F004000860086800F004000090086839
:1027A00040F002000860086800F002000090032476
:1027B00001940294039501A9184800F025FF022016
:1027C00001900294039501A9154800F01DFF164CD5
:1027D000144820606560A560E560001520618000F8
:1027E00060618000A0618011E06125626562204621
:1027F00000F04EFE08B1FFF7DDF9B463A6630022D6
:102800000121122001F0A8F8122001F099F806B079
:1028100070BD000000200140443802400008024022
:10282000000402401064024040040020F8B5044651
:1028300013460022009294F83C00012807D00120A2
:1028400084F83C0020688568ED0702D014E002207F
:10285000F8BD856845F0010585603548354D00684F
:10286000B0FBF5F000EB4000009002E00098401E45
:10287000009000980028F9D120688568ED0754D0B1
:10288000256C40F20166B54345F4807525644068C7
:10289000400505D5206C20F4005040F480502064A1
:1028A000206CC00404D5606C20F00600606400E079
:1028B000626484F83C20A26B1F48D063A26B1F485F
:1028C0001064A26B1E48D06422686FF02200106072
:1028D0002068426842F0806242602068826842F468
:1028E0008072826020680A464C30A56B01462846FB
:1028F00000F036FE1349D1F80403C00607D0206863
:10290000884212D1816811F0405F0AD00DE0206842
:10291000816811F0405F08D1816841F08041816099
:1029200003E0816841F0804181600020F8BD000033
:102930002800002040420F00DF0800085709000867
:102940004109000800200140F0B50A7D01209040B7
:10295000354A136843F001031360136823F47C5372
:10296000136014684B6A44EA032313602E4D1C3530
:102970002B6883432B602C4BCE690C332B4C002EE1
:1029800014D11E6886431E608F894E6867F31F4608
:102990004F6904EBC707C7F840660F890E6867F3F5
:1029A0001F464F6904EBC707C7F84466CE69012E7E
:1029B00014D11E6806431E600E884B6866F31F43E1
:1029C0004E6904EBC606C6F840360E89CB6866F33E
:1029D0001F434E6904EBC604C4F84436124B8C699D
:1029E0001B1D3CB11C6804431C600F4B0C69143365
:1029F00024B106E01C6884431C60F6E71C6884432D
:102A00001C600C69012C02D11C6804431C60096A1B
:102A1000012902D1296801432960106820F00100D2
:102A200010600020F0BD0000006600400060004023
:102A30007047000010B5044620684169C943C907C2
:102A400014D182685A49914368D000218368594A59
:102A50009A4365D0002283685748984362D000208B
:102A60001143014302D02046FEF7CAFB2068C1682B
:102A700001F003014069C0F3400021B118B1002109
:102A80002046FEF7CDFA2068016901F00301406994
:102A9000C0F3001021B118B101212046FEF7C0FAA1
:102AA00020688169C1F300014269C2F300224369D1
:102AB000C3F3C03329B122B11BB1E16B41F0010175
:102AC000E1638169C1F340014269C2F34022436975
:102AD000C3F3C03329B122B11BB1E16B41F0020154
:102AE000E1638169C1F380024169C1F380214369D7
:102AF000C3F3C0332AB121B11BB1E16B41F0040132
:102B0000E163816911F0700F0ED000214269C2F3B8
:102B1000C0224369C3F3C03341B13CE0012195E7D2
:102B2000012298E701209BE70121EFE79AB393B3D5
:102B3000816901F0700140291BD006DC102909D001
:102B400020290CD0302922D10EE0502916D060293E
:102B50001DD118E0E16B41F00801E16317E0E16B82
:102B600041F01001E16312E0E16B41F02001E1630B
:102B70000DE0E16B41F04001E16308E0E16B41F001
:102B80008001E16303E0E16B41F48071E1638169FD
:102B900021F070018161E06B002808D021680420D9
:102BA0004860012084F838002046FFF741FF10BD3F
:102BB0000300000400030008000003102DE9F041A9
:102BC0000446002C04D094F83800002618B107E021
:102BD0000120BDE8F08184F83960204600F0B0F8AB
:102BE000022084F838002068016821F002010160A9
:102BF0002068016841F00101016000F003FE054614
:102C0000032709E000F0FEFD401B0A2804D904F860
:102C1000387F66700320DCE720684068C007F1D089
:102C200020684168C90743D0A169012942D00168E1
:102C300021F080010160E069012840D0206801682E
:102C400021F040010160206A01283ED0206801681F
:102C500021F020010160606A01283CD020680168F1
:102C600021F010010160A06A01283AD020680168B3
:102C700021F008010160E06A012838D0206801686D
:102C800021F004010160D4E902010843D4E90412EF
:102C9000114308436168491E08432168C8612068E0
:102CA000016821F00101016000F0ACFD05462EE055
:102CB000002037E0016841F080010160BBE7206837
:102CC000016841F040010160BDE72068016841F002
:102CD00020010160BFE72068016841F01001016038
:102CE000C1E72068016841F008010160C3E720687E
:102CF000016841F004010160C5E700F083FD401B5D
:102D00000A2804D904F8387F6670032061E7206838
:102D10004068C007F1D120684068C00701D000209A
:102D200000E00120012804D0042084F838000120AC
:102D30004FE7E663012084F83800002049E70000EF
:102D40002DE9F04186B00446142101A8FDF794FA5C
:102D50003D4B3E4ADFF8EC80186821683B4C032667
:102D60000227401C103200254FF0090C41452DD19F
:102D70001860012807D1106840F0007010601068DA
:102D800000F000700090206840F00800206020688B
:102D900000F0080000900196029703950496CDF884
:102DA00014C001A92A4800F02FFC002201211420A0
:102DB00000F0D2FD142000F0C3FD264800684169F0
:102DC00041F00201416106B0BDE8F081DFF8888082
:102DD0004145F8D1116841F080611160116801F03E
:102DE000806100911860012807D1106840F00070E0
:102DF0001060106800F000700090206840F0020041
:102E00002060206800F0020000904FF440500190D4
:102E1000029703950496CDF814C001A90F4800F05D
:102E2000F3FB01221146402000F096FD402000F007
:102E300087FD084840300068416941F00201416166
:102E4000C1E7000000640040180000203038024054
:102E5000000C0240A0040020006800400004024072
:102E600010B590F83820012A03D0122A01D0022090
:102E700010BD90F83920012A2DD0012280F8392088
:102E800090F83820122A28D0222280F838200023F7
:102E9000C3630268546944F48074546102685469DD
:102EA00044F4007454610268546944F480645461C9
:102EB0000268546944F4006454610268546944F43B
:102EC0000044546180F8393059B10068416941F0DB
:102ED000100141610AE0022010BD322280F8382042
:102EE000D5E70068416941F002014161002010BD51
:102EF000704700002DE9F05F04460E462268906896
:102F0000400105D49068000102D49068C00069D5E2
:102F100094F8390001280ED0012784F8397094F80C
:102F2000380022280AD0122084F838009068400126
:102F300008D500250CE00220BDE8F09F322084F87F
:102F40003800F3E79068000101D5012500E0022573
:102F50004FF4C07000EB0510115801F00101115041
:102F6000216B8B68EBB3226852F800C04CEA030C6B
:102F7000CB68496843EAC1014CEA010C42F800C041
:102F8000216B0A7C02F00F020A614FF4C2712268C1
:102F900001EB0511535823F00F0353502268535887
:102FA000D4F830C0DCF810C043EA0C035350216B56
:102FB0000A7DCB7D42EA03628B7D497D1B0443EA97
:102FC00001210A434FF4C473216803EB0513CA506F
:102FD000216B0A7ECB7E42EA03628B7E497E1B0414
:102FE00001E018E053E043EA01210A434FF4C673BD
:102FF000216803EB0513CA5021680A5842F0010208
:103000000A5000F0FFFB80464FF00009DFF888A06F
:10301000DFF888B019E022681358D1F80CC009888D
:1030200043EA0C0343EA41511150A9E7701C0CD04C
:103030002EB100F0E7FBA0EB0800B04205D9032059
:1030400084F8380084F8399076E785B1012D14D0E2
:103050002068816812488843E8D194F83800322803
:1030600011D084F8387084F83990002064E7206823
:1030700080683AEA0000F0D0D8E7206880683BEA30
:103080000000EAD0D2E7222084F83800EBE70420E1
:1030900084F8380001204FE7030000040003000813
:1030A00000000310704770B54379012B1AD0012638
:1030B00046710223037103681D6840F6FE74944054
:1030C000A543D1E900410C4394402C431C600168A6
:1030D0000B68C0249440A3430B600671002141712A
:1030E000002070BD022070BD70B50446002C03D0D6
:1030F0002079002510B105E0012070BD65712046E2
:1031000000F008F8022020712561012020710020C4
:1031100070BD000010B586B00446142101A8FDF76B
:10312000ABF81149206888421CD100210F48026881
:1031300042F000520260006800F0005000900B481E
:103140001038026842F001020260006800F00100DD
:1031500000901020019003200290039101A90448DF
:1031600000F052FA06B010BD007400404038024032
:103170000000024018B5046800940068002910445B
:1031800005D01430009000980360002018BD08306E
:103190000090F8E730B54279012A15D00124447136
:1031A000022202710268136804FA01F52B431360CE
:1031B00061B101680A6802F480220B6803F46013AD
:1031C000B2F5802F12D018E0022030BD01680A68E5
:1031D00002F004020B6803F03803042A0DD1382BE7
:1031E0000BD14A6842F001024A6006E0B3F5601F65
:1031F00003D14A6842F002024A6004710021417121
:10320000002030BD2DE9F0410446A76D00F0FAFA28
:10321000054694F835000026022806D08020606517
:1032200084F834600120BDE8F0812068016821F055
:10323000160101602068416921F080014161206C24
:1032400008B9A06C20B12068016821F00801016074
:103250002068016821F0010101600BE000F0D2FA62
:10326000401B052806D92020343420622670032014
:103270006070D8E720680068C007EFD134343F2081
:1032800094F828108840B8602670012060700020F3
:10329000C9E790F83510022903D08021416501204B
:1032A0007047052180F835100068016821F00101A0
:1032B00001600020704700002DE9F84304464FF0FC
:1032C0000008CDF8008070484FF416510068B0FB3C
:1032D000F1F7A56D2E6894F85C00082202FA00F15F
:1032E000314210D02068016849070CD5016821F0EF
:1032F0000401016094F85C0002FA00F1A960606DBD
:1033000040F00100606594F85C10604888403042ED
:1033100008D021684969090604D5A860606D40F0AD
:1033200002006065594894F85C10C01C8840304227
:1033300008D021680968890704D5A860606D40F04D
:103340000400606594F85C1010208840304220D062
:103350002168096809071CD5A8602068016849032D
:103360000CD50068000304D4216C91B12046884735
:103370000FE0A16C69B1204688470AE00168C905E1
:1033800003D4016821F008010160216C09B12046D5
:10339000884794F85C102020884030424FF00106A6
:1033A0004CD021680968C90648D5A86094F8350052
:1033B00005280BD020680168490330D50068000358
:1033C00028D4616C51B32046884737E020680168F3
:1033D00021F0160101602068416921F080014161FE
:1033E000206C08B9A06C20B12068016821F00801A8
:1033F000016094F85C103F208840A86084F8348015
:1034000084F83560216D00293BD001B02046BDE82D
:10341000F0430847E16B09B1204688470EE0016898
:10342000C90507D4016821F01001016084F83480D7
:1034300084F83560E16B09B120468847606D00284B
:103440001FD0606DC00714D0052084F835002068B7
:10345000016821F0010101600098401C0090B84211
:1034600003D820680068C007F6D184F8348084F857
:103470003560E16C002904D001B02046BDE8F0437E
:103480000847BDE8F8830000280000200100800004
:103490002DE9F041044600F0B5F905465CB100267F
:1034A00084F83460022084F835002068016821F037
:1034B000010101600DE00120BDE8F08100F0A2F9FA
:1034C000401B052805D920206065032084F83500BD
:1034D000F2E720680068C007F0D121680A681F4839
:1034E0000240D4E901031843D4E903352B431843C0
:1034F00063691843A3691843E3691843236A1843AF
:103500001043626A042A03D1D4E90B231A431043FF
:1035100008602068406920F00700656A2946054375
:10352000012704290BD1A06A05432046FEF720FAA3
:1035300028B14020606584F835700120BCE7206820
:1035400045612046FEF7FEF994F85C203F2191404A
:103550008160666584F835700020ADE73F8010F02B
:103560002DE9F04104460025A66D94F834000128A9
:103570000DD0012084F8340094F835700020012F1C
:1035800007D084F8340002252846BDE8F0810220E7
:10359000FBE7022784F8357060652046FEF72CFAB9
:1035A00094F85C103F208840B0602068016841F0CA
:1035B000160101602068416941F080014161206C81
:1035C00020B12068016841F00801016020680168AD
:1035D00041F001010160D7E731B500F013F904466D
:1035E00000F010F90099001B8842F9D338BD7047EC
:1035F00010B504490A68024202D00860FFF7F7FFDD
:1036000010BD0000143C01402DE9F84F0022DFF806
:10361000A491DFF8A08109F108094FF0010E4FF0E5
:103620000F0C09F1040A0EFA02F60B683340B3429C
:1036300071D14C68022C01D0122C11D1D40800EBAE
:1036400084073D6A5407E40E0CFA04FB25EA0B05D7
:10365000D1F810B00BFA04FB4BEA050BC7F820B009
:10366000076854000325A540AF4391F804B00BF060
:10367000030B0BFA04FB4BEA070BC0F800B04F68D2
:10368000012F05D0022F03D0112F01D0122F11D1FD
:103690008768AF43D1F80CB00BFA04FB4BEA070B79
:1036A000C0F808B04768B7430E79C6F300169640D5
:1036B0003E434660C668AE438D68A5403543C5604D
:1036C0004C68E4006FD53C4C256845F48045256086
:1036D000246804F480440094384C22F00305254407
:1036E000D5F808789407260F0CFA06F4A743344C53
:1036F000A04201D100242EE0324CA04201D101248D
:1037000029E0314CA04201D1022424E02F4CA042F8
:1037100002D103241FE046E02D4CA04201D1042435
:1037200019E02C4CA04201D1052414E02A4CA042FF
:1037300001D106240FE0294CA04201D107240AE060
:10374000274CA04201D1082405E0264CA04201D11B
:10375000092400E00A24B4403C43C5F80848D8F8DE
:1037600000409C434D68ED0300D51C43C8F8004061
:10377000104D2D1D2C689C434E68B60300D51C438C
:103780002C60D9F800409C434D68ED0200D51C43E5
:10379000C9F80040DAF800409C434D68AD0200D5FE
:1037A0001C43CAF80040521C102AFFF43CAFBDE88D
:1037B000F88F0000003C01404438024000300140D6
:1037C000000002400004024000080240000C0240D9
:1037D000001002400014024000180240001C024089
:1037E00000200240002402400069084201D001206C
:1037F000704700207047002A01D08161704709049A
:103800008161704701480068704700002400002073
:1038100002480168491C0160704700002400002034
:1038200010B50B48016841F400710160016841F472
:1038300080610160016841F480710160032000F043
:10384000ABF8002000F006F800F018F8002010BDDA
:10385000003C024010B5044607484FF47A720068F5
:10386000B0FBF2F000F06AFB00222146501E00F08F
:1038700073F8002010BD00002800002082B00B4823
:10388000016841F480410160006800F480400190CB
:103890000648001F016841F080510160006800F097
:1038A00080500190052002B000F076B84438024004
:1038B0002DE9F04104460E461746002C04D094F83A
:1038C0003900002518B107E00120BDE8F08184F837
:1038D0003850204600F0F4FE242084F83900206897
:1038E000C16821F40051C160204604F0D7F9206876
:1038F000016921F4904101612068416921F02A01A8
:1039000041612068016921F00F01016120680169AE
:10391000314301612068C16821F40061C160206801
:10392000C1683943C1602068C16841F40051C16079
:10393000E563202084F8390084F83A000020C4E7C9
:1039400000F01F02012191404009800000F1E020B9
:10395000C0F8001170470000F0B40D460D4B1B6815
:10396000C3F30223C3F10704042C00D90424191D56
:10397000072901D2002300E0DB1E012606FA04F12C
:10398000491E294099409E40761E16403143F0BCA6
:1039900002F09FBA0CED00E000F00701054A106844
:1039A0004FF6FF03184040EA012003490843106026
:1039B000704700000CED00E00000FA052DE9F0472B
:1039C00004460E46DFF86891D9F8000006F0FF08BB
:1039D00000F00F00B0420AD289F80080D9F8000048
:1039E00000F00F00B04202D00120BDE8F08720783F
:1039F000504F800705D53868A16820F0F0000843D3
:103A000038602078C0075BD04A49606808390128CF
:103A100008D002280BD0032809D0096889070BD4E5
:103A20000120E2E70968890306D40120DDE709687F
:103A3000890101D40120D8E7396821F0030101434D
:103A40003960FFF7DFFE0546606841F2883A0128D9
:103A50000BD0022816D0032821D02DE0FFF7D2FE8C
:103A6000401B504501D90320BFE73868C0F38100EF
:103A70000128F3D124E0FFF7C5FE401B504501D9D2
:103A80000320B2E73868C0F381000228F3D117E0C1
:103A9000FFF7B8FE401B504501D90320A5E7386861
:103AA000C0F381000328F3D10AE0FFF7ABFE401B0F
:103AB000504501D9032098E7386810F00C0FF4D175
:103AC000D9F8000000F00F00B04209D989F8008051
:103AD000D9F8000000F00F00B04201D0012084E7C7
:103AE0002078400705D53868E16820F4E0500843A5
:103AF00038602078000706D53868216920F46040D6
:103B000040EAC100386000F04DF83968F02292FABE
:103B1000A2F201F0F001B2FA82F2D140064A515C01
:103B2000C840064908600020FFF794FE00205CE7CB
:103B3000003C02400838024020880008280000208D
:103B400001480068704700002800002000B5FFF71A
:103B5000F7FF074909684FF4E05292FAA2F201F424
:103B6000E051B2FA82F2D140024A515CC84000BD35
:103B7000083802402088000800B5FFF7E1FF074938
:103B800009684FF4604292FAA2F201F46041B2FA7D
:103B900082F2D140024A515CC84000BD0838024060
:103BA0002088000830B51D48006810F00C011C4842
:103BB0001AD01C4C042916D0082915D1174A121FF7
:103BC000116801F03F0113685D0247F6C0730CD520
:103BD000B4FBF1F01168194093FAA3F3B3FA83F33D
:103BE000D94048430BE0204630BDB0FBF1F01168EE
:103BF000194093FAA3F3B3FA83F3D9404843116809
:103C00004FF4403292FAA2F201F44031B2FA82F259
:103C1000D140491C4900B0FBF1F030BD08380240EA
:103C20000024F400001BB7002DE9F84F0446DFF82C
:103C3000FC822078A8F10407C007A7F1040539D059
:103C4000D8F80000C0F38100012808D0D8F800009F
:103C5000C0F3810002280AD13868400207D52868DD
:103C6000800327D5606828BB0120BDE8F88FAF49E5
:103C70002079891F0870606870B1FFF7C3FD0646A0
:103C800006E0FFF7BFFD801B642801D90320ECE7A5
:103C900028688003F5D50DE0FFF7B4FD064606E081
:103CA000FFF7B0FD801B642801D90320DDE72868F9
:103CB0008003F5D42078DFF8789280074FF0000A6F
:103CC00052D5D8F800004FF0F80B10F00C0F08D0C8
:103CD000D8F80000C0F38100022816D138684002ED
:103CE00013D42868800704D5E068012801D001209A
:103CF000BBE728689BFAABF22169B2FA82F220F0A6
:103D0000F8009140084328602EE0E068E0B101200F
:103D1000C9F80000FFF776FD064606E0FFF772FDE2
:103D2000801B022801D903209FE728688007F5D56A
:103D300028689BFAABF22169B2FA82F220F0F8000F
:103D40009140084328600FE0C9F800A0FFF75AFD32
:103D5000064606E0FFF756FD801B022801D9032026
:103D600083E728688007F5D42078000729D5DFF895
:103D7000BCB1704861690BF16C0B89B10121016024
:103D8000FFF740FD064606E0FFF73CFD801B0228DA
:103D900001D9032069E7DBF800008007F4D510E0C3
:103DA000C0F800A0FFF72EFD064606E0FFF72AFD4B
:103DB000801B022801D9032057E7DBF800008007A9
:103DC000F4D4207840074CD558483830016841F089
:103DD00080510160006800F080500090DFF858B119
:103DE000DBF8000040F48070CBF80000FFF70AFD1C
:103DF000064606E0FFF706FD801B022801D90320D6
:103E000033E7DBF80000C005F4D5DFF820B1207AF5
:103E10000BF1680B8BF80000A06888B1FFF7F2FC8B
:103E2000064608E0FFF7EEFC811B41F28830814234
:103E300001D9032019E7DBF800008007F2D510E074
:103E4000FFF7E0FC064608E0FFF7DCFC811B41F2CF
:103E50008830814201D9032007E7DBF800008007A2
:103E6000F2D4A069F0B3D8F80010C1F3810102299F
:103E70005AD0022805D0C9F860A0FFF7C3FC044659
:103E80004DE0C9F860A0FFF7BDFC064606E0FFF76D
:103E9000B9FC801B022801D90320E6E628688001CE
:103EA000F5D4D4E90701084347F6C07292FAA2F2AA
:103EB000616AB2FA82F29140A26A4FF0FF3303EBDB
:103EC00052024FF4403393FAA3F3B3FA83F39A40C8
:103ED00011434FF07062084392FAA2F2B2FA82F2F2
:103EE000E16A00E01EE09140084338600120C9F813
:103EF0006000FFF787FC044606E0FFF783FC001B29
:103F0000022801D90320B0E628688001F5D509E030
:103F1000FFF778FC001B022801D90320A5E62868DA
:103F20008001F5D40020A0E601209EE6083802407A
:103F300000004742800E47420070004010B5401E0E
:103F4000B0F1807F01D3012010BD4FF0E02460610B
:103F50000F21601701F0BDFF0020A0610720206144
:103F6000002010BD7047704730B590F83820012A06
:103F700020D0012380F83830022280F839200268EE
:103F8000546824F070045460026854680D682C432F
:103F900054600268946824F0800494600268946815
:103FA00049680C43946080F83930002180F838105B
:103FB000002030BD022030BD10B50446002C03D0D7
:103FC00094F8390010B107E0012010BD002084F8FA
:103FD0003800204600F00CF8022084F83900211D3A
:103FE000206803F03FFC012084F83900002010BD58
:103FF00008B500684149B0F1804F14D0404A904262
:1040000023D1086840F002000860086800F0020050
:104010000090002201211D20FFF79EFCBDE8084012
:104020001D20FFF78DBC086840F00100086008689B
:1040300000F001000090012211461C20FFF78CFCCB
:10404000BDE808401C20FFF77BBC2E4A904211D1EE
:10405000086840F004000860086800F00400009060
:10406000002211461E20FFF777FCBDE808401E2005
:10407000FFF766BC244A904208D1086840F0080067
:104080000860086800F00800009008BD1F4A9042D0
:104090000AD11A48001D016841F002010160006860
:1040A00000F00200009008BD194A904211D1086842
:1040B00040F020000860086800F020000090002216
:1040C00001213720FFF748FCBDE808403720FFF703
:1040D00037BC104A9042E6D1086840F040000860C2
:1040E000086800F040000090002201212B20FFF71B
:1040F00033FCBDE808402B20FFF722BC40380240CB
:104100000004004000080040000C00400004014092
:1041100000140040001800400168CA6842F0010223
:10412000CA600068016841F0010101600020704729
:1041300070B5044694F83800012817D0012584F89A
:104140003850022084F839002068826822F0770213
:1041500022F47F428260086850283AD00DDC202883
:104160005FD005DCA0B3102864D155E0022070BDFB
:1041700030285BD040285DD13FE0602833D07028E4
:104180000CD0B0F5805F03D0B0F5005F52D113E0E2
:104190002068816821F0070181604BE0CB68D1E99C
:1041A0000121206803F0C0FB2068816821F07701BD
:1041B00041F0770181603DE0CB68D1E901212068C1
:1041C00003F0B2FB2068816841F48041816031E0F6
:1041D0001DE0CA684968206803F07CFC5021206813
:1041E00003F0ACFB26E0CA684968206803F083FC52
:1041F0006021206803F0A2FB1CE0CA6849682068BF
:1042000003F068FC4021206803F098FB12E00021D5
:10421000206803F093FB0DE01021206803F08EFB73
:1042200008E02021206803F089FB03E030212068AA
:1042300003F084FB383465700020207070BD704737
:1042400070B50446206801694FF00005C94389072D
:1042500016D4C168C943890712D4E91E016101203F
:10426000207620688069800703D02046FFF7E7FFAB
:1042700005E0204600F0E0F8204600F068F92576D9
:1042800020680169C943490718D4C168C94349076F
:1042900014D46FF004010161022020762068806947
:1042A00010F4407F03D02046FFF7C9FF05E0204609
:1042B00000F0C2F8204600F04AF92576206801692E
:1042C000C943090717D4C168C943090713D46FF05C
:1042D00008010161042020762068C069800703D0AE
:1042E0002046FFF7ACFF05E0204600F0A5F8204689
:1042F00000F02DF9257620680169C943C90618D454
:10430000C168C943C90614D46FF0100101610820C7
:1043100020762068C06910F4407F03D02046FFF764
:104320008EFF05E0204600F087F8204600F00FF9E8
:10433000257620680169C943C90708D1C168C94306
:10434000C90704D1891E0161204600F001F92068E7
:104350000169C943090609D4C168C943090605D4DE
:104360006FF0800101612046FFF7FCFD20680169C4
:10437000C943490609D4C168C943490605D46FF049
:1043800040010161204600F0E4F820680169C9435A
:1043900089060BD4C168C943890607D46FF0200190
:1043A00001612046BDE87040FFF7DDBD70BD000033
:1043B00010B586B00446142101A8FBF75DFF206804
:1043C000184C002218490223A04214D1086840F07A
:1043D00080000860086800F0800000904FF44060A2
:1043E0000190029303920492059301A90F48FFF7ED
:1043F0000BF906B010BD0E4CA042FAD1086840F48B
:1044000080700860086800F480700090602001905F
:104410000293039204920320059001A90548FFF737
:10442000F3F8E6E7000C004030380240001C024080
:104430000004014000200240704770B504460D465C
:1044400094F8380001280DD0012684F83860022045
:1044500084F8390042B1042A1AD0082A2DD00C2A37
:1044600053D13EE0022070BD2946206803F06EFA69
:104470002068816941F0080181612068816921F02B
:1044800004018161206881692A69114381613CE0EE
:104490002946206803F08AFA2068816941F40061A6
:1044A00081612068816921F480618161206881696E
:1044B0002A6941EA0221816127E02946206803F048
:1044C000ABFA2068C16941F00801C1612068C16987
:1044D00021F00401C1612068C1692A691143C161E9
:1044E00013E02946206803F0CBFA2068C16941F443
:1044F0000061C1612068C16921F48061C1612068E7
:10450000C1692A6941EA0221C1613834667000201C
:10451000207070BD10B50446002C03D094F839000B
:1045200010B107E0012010BD002084F838002046BB
:1045300000F00CF8022084F83900211D206803F0F7
:1045400091F9012084F83900002010BD70477047B0
:104550007047704710B5044620684169C1F3C01127
:1045600094F83920212A0BD151B1416921F0800101
:104570004161206B08B1FEF745FE204603F03BFB8E
:1045800020684169C1F3801194F83A20222A0BD1A6
:1045900051B1416921F040014161606B08B1FEF702
:1045A00031FE204603F00CFB002010BD70470000D8
:1045B00070B5044622681068D168526900F00F0394
:1045C000002B08D1850606D58D0604D52046BDE80A
:1045D000704003F019BB002B5ED002F0010301F420
:1045E00090752B4358D0C30705D0CB0503D5E36B9B
:1045F00043F00103E363430705D5D30703D0E36B1F
:1046000043F00203E363830705D5D30703D0E36BCD
:1046100043F00403E363030705D5D20703D0E26B3D
:1046200042F00802E263E26B002A2AD0800604D539
:10463000880602D5204603F0E7FA20684069C0F3F7
:104640008010E16B090700D400B3204603F0B8FAEC
:1046500020684169490615D5416921F04001416151
:10466000606B58B115490165606BFEF712FE0028BA
:1046700007D0606B016DBDE8704008472046FFF72A
:1046800095FF70BD2046FFF791FF70BD2046FFF7F4
:104690008DFF0020E06370BD020606D50A0604D532
:1046A0002046BDE8704003F083BC4006F3D54806C1
:1046B000F1D52046BDE8704003F090BA217B000898
:1046C0002DE9F04F87B00446142102A8FBF7D4FD72
:1046D000F448DFF8CCA31038D4F80090F14B022254
:1046E0000321DFF8C483002506154FF0080C4FF0B6
:1046F0002067D14548D1D3F8009049F08049C3F8EC
:1047000000901B6803F080430193036843F010039B
:104710000360006800F010000190C801029003924D
:1047200004950591CDF818C002A94046FEF76CFF2C
:10473000DFF87C83DD48C8F80000C8F80470C8F8CA
:104740000850C8F80C50C8F81060C8F81450C8F8E1
:104750001850C8F81C50C8F82050C8F824504046DB
:10476000FEF796FE08B1FDF725FAC4F83480C8F8C4
:104770003840002201215220FFF7EEF85220FFF7C7
:10478000DFF807B0BDE8F08FDFF828A3D1456BD183
:10479000D3F8009049F00049C3F800901B6803F07B
:1047A00000430193036843F010030360006800F0C6
:1047B000100001900291039204950591CDF818C064
:1047C00002A94046FEF720FFB848DFF8EC824838DF
:1047D000C8F80000C8F804704020C8F80800C8F8FD
:1047E0000C50C8F81060C8F81450C8F81850C8F831
:1047F0001C50C8F82050C8F824504046FEF748FE28
:1048000008B1FDF7D7F9C4F83080C8F83840DFF8B0
:10481000A082A64808F160084830C8F80000C8F82F
:104820000470C8F80850C8F80C50C8F81060C8F8F0
:104830001450C8F81850C8F81C50C8F82050C8F8D0
:1048400024504046FEF724FE08B1FDF7B3F9C4F842
:104850003480C8F83840022201215320FFF77CF849
:104860005320FFF76DF88CE7DFF850E2DFF834A251
:104870004FF0070B0AF1040A4FF00068F1453CD1F4
:10488000DAF8003043F01003CAF80030DAF80030EC
:1048900003F010030193036843F002030360006810
:1048A00000F002000190C02002900392049505914F
:1048B000CDF818B002A98248FEF7A6FE7C4F8148C9
:1048C000C0373860C7F80480BD60FD603E617D611F
:1048D000BD61FD613D627D623846FEF7D9FD08B1DC
:1048E000FDF768F96763BC63032201212520FFF708
:1048F00033F82520FFF724F843E7DFF8CCE1F14552
:104900001BD11C6844F400341C601B6803F40033A2
:104910000193036843F008030360006800F0080097
:10492000019060200290039204950591CDF818B093
:1049300002A96648FEF768FE23E7DFF894E1F14537
:104940003AD11F6847F480271F601B6803F4802357
:104950000193036843F008030360006800F0080057
:1049600001904FF440700290039204950591CDF8A8
:1049700018B002A95548FEF747FE4C48554F30384D
:104980003860C7F80480BD60FD603E617D61BD6137
:10499000FD613D627D623846FEF77AFD08B1FDF7A4
:1049A00009F96763BC63002211462720FEF7D4FF94
:1049B0002720FEF7C5FFE4E6474B99459CD1DAF87E
:1049C000003043F02003CAF80030DAF8003003F07A
:1049D00020030193036843F040030360006800F084
:1049E000400001904FF48440029003920495059199
:1049F000CDF818C002A93948FEF706FEDFF8D480CA
:104A0000304808F160081838C8F80000C8F8047089
:104A1000C8F80850C8F80C50C8F81060C8F814500E
:104A2000C8F81850C8F81C50C8F82050C8F82450CE
:104A30004046FEF72DFD08B1FDF7BCF8C4F8348000
:104A4000C8F83840DFF870801E48A8F16008603070
:104A5000C8F80000C8F804704020C8F80800C8F87A
:104A60000C50C8F81060C8F81450C8F81850C8F8AE
:104A70001C50C8F82050C8F824504046FEF708FDE6
:104A800008B1FDF797F8C4F83080C8F83840002224
:104A900001214720FEF760FF4720FEF751FF70E637
:104AA0000078004040380240001002405860024048
:104AB000B4060020007C0040F408002000100140F3
:104AC000000402404064024000440040000C0240E8
:104AD00000480040D40700200014014000180240A4
:104AE00037B50446134694F83A00202801D0022036
:104AF0003EBD019A8AB383B394F8380001282FD0C1
:104B0000012084F83800A262A3850025E5632220F5
:104B100084F83A00616B1348C863616B12480864FB
:104B2000616B1248C864606B05652168606B091D84
:104B3000FEF716FD2068C16841F48071C1602068ED
:104B4000416941F0010141612068416941F0400142
:104B5000416184F8385000203EBDFFE70120FBE7AB
:104B60000220F9E77B7B0008B77B0008317B000857
:104B7000704770472DE9F84304460D4691461E469E
:104B800094F83900202802D00220BDE8F883B5B19E
:104B9000B9F1000F13D094F83800012811D001208A
:104BA00084F838000027E763212084F83900FEF7F5
:104BB00029FE8046A4F82490A4F826902CE0012039
:104BC000E3E70220E1E7401EE084A068B0F5805FE3
:104BD00009D04346002280212046009603F01BFAAC
:104BE000B0B10320D1E74346002280212046009641
:104BF00003F011FA08B10320C7E728882168C0F341
:104C000008004860206908B16D1C05E0AD1C03E098
:104C1000216815F8010B4860E08C0028D3D1434689
:104C2000002240212046009603F0F5F908B1032048
:104C3000ABE720203834607027700020A5E770476C
:104C40002DE9F0430024804B9FED801A804FA3F1A3
:104C50000806015D5A293DD101194A78A52A39D1A2
:104C60008A78CD7842EA0528A6F806800A7949793B
:104C700042EA012171800025A8F1050821E00144E4
:104C800091F806C0BCF1C00F6DD00CDCBCF1900FE8
:104C900025D0BCF1A00F25D0BCF1A50F25D0BCF1CB
:104CA000B00F0CD124E0BCF1D00F5FD0BCF1D10F1C
:104CB0007DD0BCF1D90F7BD0BCF1F00F79D0B280A0
:104CC0006D1CB288A118294401F1060CC445D6DD3B
:104CD0000021B180641C282CBBDBBDE8F083521C92
:104CE000B280EDE7921DB280EAE7921DB280E7E75D
:104CF00091F807C083F800C091F808C083F801C09C
:104D0000B3F900C000EE10CADFF844C1B8EEC00A23
:104D1000ACF10C0C20EE010A8CED000A91F8099020
:104D200083F8009091F80A9083F80190B3F900900D
:104D300000EE109AB8EEC00A20EE010A8CED010ACE
:104D400091F80B9083F80090097B5970B3F900102B
:104D500000EE101AB8EEC00A20EE010A8CED020A2D
:104D6000921DB280ACE7921DB280A9E791F807C00E
:104D700083F800C091F808C083F801C0B3F900C0FF
:104D800000EE10CAF8EEC00A9FED320A60EE800A0B
:104D9000C7ED000A91F809C083F800C091F80AC075
:104DA00083F801C0B3F900C000EE90CA02E044E00D
:104DB00040E045E0F8EEE00A20EE800A87ED010AC7
:104DC00091F80BC083F800C0097B5970B3F900104B
:104DD00000EE101AB8EEC00A20EE010A921DB28051
:104DE000DFED1D0A30EE200A87ED020AD6ED030A38
:104DF0001A4A70EE600A10EE901A914203D9316996
:104E0000491C316107E010EE901A154A914202DD0B
:104E10003169491E3161D6ED040A9FED122AF8EE80
:104E2000E01AF0EE400A41EE820AC6ED050A86ED70
:104E3000030A45E70C32B28042E71032B2803FE706
:104E4000121DB2803CE7000070030020CDCCCC3DA9
:104E5000FC1200200AD7233C00003443000096C314
:104E6000000096430000B44308B519480068016883
:104E7000C943C9062AD40168406800901548164AFB
:104E80004FF000610068904203D913484C3801602C
:104E90000FE0124A904203D90F485038016008E0F1
:104EA0000E4B0E4A603BB83A984201D9D16000E0FF
:104EB00091600748FFF74EFB282209490448FFF795
:104EC0000FFEBDE808400648FFF7BABE08BD000067
:104ED00034050020B406002058640240B860024047
:104EE000AD120020FEE700002DE9F0412DED048B0E
:104EF00000251E4CA56125701D4EDFED1E9A9FED0D
:104F00001E9A9FED1E8B40F6B83796ED120A70EE92
:104F1000690A80EE890A10EE100AFBF77DFB00EEAD
:104F2000100A21F0004210EE101A42EC101B53EC54
:104F3000182B51EC100BFBF783FB03D2A069401C2C
:104F4000A06100E0A561A069B84207DB0D4890EDC3
:104F5000020A0D4880ED000A012020702078002808
:104F6000D3D0BDEC048BBDE8F081000068030020C5
:104F7000340B002000088645780BB6419A99999920
:104F80009999C93FFC1200204000002010B50C4840
:104F90000068C16841F01001C16028220949084831
:104FA000FFF79EFD08480068C16841F01001C1602C
:104FB00004492822BDE8104047310348FFF790BD5F
:104FC0007405002066120020340500202DE9F0470A
:104FD0002DED048BB2EE080ACF4880ED000ACF48D1
:104FE00080ED000ADFF83883CE4DB8F81290B5F99D
:104FF00000005FEAC9719FEDCC8BCD4E4FF4AF77C7
:105000004FF0000410D05FEAC9610DD4FBF7C7FA76
:1050100053EC182BFBF73BF9FBF7DFFA00B22880C3
:10502000B8421EDB2F801CE05FEA897110D55FEA71
:10503000C9610DD4FBF7B3FA53EC182BFBF7C8F991
:10504000FBF7CBFA00B22880B0420ADC2E8008E0E1
:10505000112131EA09010BD0122131EA090110D0E6
:105060002C80B44890F800A0BAF1000F11D068E08D
:105070000A3000B228804FF42F718842F1DB29807A
:10508000EFE70A3800B22880AB498842E9DC298082
:10509000E7E7A4485FEA4971B0F902000BD55FEA7F
:1050A000C96108D4801F00B26880A14932318842AA
:1050B00047DC698045E05FEA09710BD55FEAC961A9
:1050C00008D4801D00B268804FF49671884238DBA6
:1050D000698036E0142131EA09010DD0C9F3C1011C
:1050E000032917D0002823DDA0F1140000B2688046
:1050F000002826DC6C8024E0FBF751FA53EC182BD7
:10510000FBF766F9FBF769FA00B26880B04218DC79
:105110006E8016E0FBF743FA53EC182BFBF7B7F859
:10512000FBF75BFA00B26880B8420ADB6F8008E0E8
:1051300006DA143000B26880002802DB6C8000E0E0
:105140006C80B8F90C107D4800EE901A90ED000AC2
:10515000F8EEE00A9FED7A1A00EE810A80ED000A6F
:10516000B8F90A1090ED010A00EE901AF8EEE00A84
:105170009FED741A00EE810A80ED010A694E724AB1
:10518000A6F12C065FEA895170694FF0020302D53F
:10519000810500D413705FEAC9574FF0010102D5B1
:1051A000C70500D411705FEA494702D5470400D40F
:1051B00014705FEA096205D5020603D4727842F0E2
:1051C000010272705FEA894205D5820403D47278C5
:1051D00002F0FE0272705FEA094208D5B26A521C00
:1051E000B262C82A04DD594A1460B46200E0B462B5
:1051F000574A5FEA095700D511705FEAC94700D5E1
:1052000014705FEA49520AD5400508D4514A107813
:1052100010B1012802D002E0117000E0147098F87B
:105220001000012804D1F06810B94B480170716278
:1052300098F81100494F012811D03C70052070608A
:1052400047485FEA8962DFED470A90ED120ADFF80E
:10525000189130EEC09A1CD5B06820B105E03970C5
:105260001E207060ECE73462B160B068012816D18E
:105270003F4ADFED3E0A89EE200A10EE100A904206
:1052800000D9346210EE100A3A4A904207DD3162CA
:1052900005E0B4609FED380A89ED0C0A3362BAF17B
:1052A000000F1DD17068FBF77AF941EC180B19EE6D
:1052B000100AFBF7B1F900EE100A21F0004210EEDF
:1052C000101A9FED2E1B42EC101B53EC112B51ECCE
:1052D000100BFBF7F5F853EC182BFBF7C9F913D3B8
:1052E000B068012810D0387801280DD0AC8098F82B
:1052F0001000F06098F811003061B8F81200706189
:10530000BDEC048BBDE8F08799ED0B0ABDEEC00A39
:1053100010EE100AA880EAE73402002038020020CC
:105320001C0D0020EC0100200000000000001E40C9
:10533000A2FEFFFF2C0000206CFDFFFFAC0B002045
:10534000CDCC4CBDCDCCCC3D2E000020A002002009
:105350004003002083020020840200202403002058
:10536000340B002000088645300F0020780BB64132
:10537000000028C2000028420000000000000000D9
:105380006FC136407FB500210091019102910391D8
:105390001E481D4A02604FF40032426081600124C1
:1053A000046184610162C162194A8262C16003259D
:1053B000C56104634461FDF7A8F908B1FCF7FAFB85
:1053C0000920009001940720029069460F48FCF7DD
:1053D000E1FF08B1FCF7EEFB0A20009002200190EB
:1053E00069460A48FCF7D6FF08B1FCF7E3FB0B203F
:1053F0000090019569460548FCF7CCFF002801D0D4
:10540000FCF7D8FB7FBD000000200140F80300201E
:105410000100000F10B510480E49016003214160E2
:1054200000218160C1604FF4002202614FF44012FC
:1054300042618161C1610162416281620121C16297
:10544000FDF7BCFB002803D0BDE81040FCF7B2BB61
:1054500010BD000000640040A004002010B51048FA
:105460000E4901600321416000218160C1604FF459
:10547000002202614FF4401242618161C161016208
:10548000416281620121C162FDF798FB002803D0CF
:10549000BDE81040FCF78EBB10BD00000068004066
:1054A000E00400201CB50024009401940B490A4834
:1054B00008600846FDF718FE08B1FCF77BFB009476
:1054C00002200190002269460448FDF7ECFD002807
:1054D00001D0FCF76FFB1CBD0074004020050020CC
:1054E00008B52948016841F400110160016801F420
:1054F00000110091016841F480010160006800F42E
:1055000080000090002201210B20FEF725FA0B20DD
:10551000FEF716FA002201210C20FEF71DFA0C20DE
:10552000FEF70EFA002201210E20FEF715FA0E20DA
:10553000FEF706FA002201211120FEF70DFA1120D4
:10554000FEF7FEF9002201213820FEF705FA382087
:10555000FEF7F6F9002201213920FEF7FDF9392086
:10556000FEF7EEF9002201213A20FEF7F5F93A2084
:10557000FEF7E6F9002201214520FEF7EDF9BDE82E
:1055800008404520FEF7DCB9303802402DE9F04FE5
:1055900087B0142102A8FAF76FFE00259148016830
:1055A00041F001010160016801F001010191016810
:1055B00041F002010160016801F0020101910168FE
:1055C00041F040010160016801F040010191016872
:1055D00041F008010160016801F0080101910168D2
:1055E00041F080010160016801F0800101910168D2
:1055F00041F020010160016801F020010191016882
:1056000041F010010160016801F010010191016891
:1056100041F004010160016801F004010191016899
:1056200041F480710160006800F4807001900122F3
:10563000DFF8B4B1D70239465846FEF7DCF8DFF898
:10564000AC914FF4FF7A012251464846FEF7D3F859
:10565000002210216648FEF7CEF80022202164487F
:10566000FEF7C9F8002220216248FEF7C4F844F290
:1056700040000290012403940495059502A95E4818
:10568000FDF7C2FF30200290039404940226059691
:1056900002A95748FDF7B8FF4FF02008CDF8088061
:1056A00003940494059602A95248FDF7ADFF0297B2
:1056B00003940495059502A95846FDF7A5FFCDF87A
:1056C00008A003940495059502A94846FDF79CFFA0
:1056D0000122570339464846FEF78DF8DFF81CA132
:1056E000012202215046FEF786F8DFF814B10122AC
:1056F00004215846FEF77FF8012208215846FEF79C
:105700007AF8012210215846FEF775F8012220216F
:105710005846FEF770F8002201213548FEF76BF875
:10572000002202213248FEF766F80297039404949F
:105730000327059702A94846FDF766FF80200290DF
:1057400030480390049402A92F48FDF75DFF0297AB
:1057500003940494059602A92548FDF755FF029687
:1057600003940494059602A95046FDF74DFF029458
:1057700026480390049402A91E48FDF745FF042023
:1057800002900394049502A95846FDF73DFF0820B6
:1057900002900394049502A95846FDF735FF1020A6
:1057A00002900394049502A95846FDF72DFFCDF809
:1057B00008800394049502A95846FDF725FF0022AE
:1057C00001210620FEF7C8F80620FEF7B9F80022EE
:1057D00011461720FEF7C0F81720FEF7B1F807B002
:1057E000BDE8F08F3038024000100240001802403F
:1057F0000008024000000240001402400004024081
:10580000001C024000001110002002400000311076
:105810001FB5002000900190029003900E490D4AA0
:105820000A6053224A60886040F2E732CA60086129
:105830000846FEF7C1FB08B1FCF7BCF94FF48050F5
:10584000009069460448FEF773FC002801D0FCF77D
:10585000B1F91FBD00180040800A002010B586B0C5
:105860000024029403940494059400940194134832
:105870004FF08041016053214160846041F28731E3
:10588000C1600461FEF798FB08B1FCF793F94FF48F
:105890008050029002A90948FEF74AFC08B1FCF7C3
:1058A00089F90094019469460448FEF75DFB0028DD
:1058B00001D0FCF77FF906B010BD000054090020AC
:1058C00010B586B0002402940394049405940094C7
:1058D000019413481149016053214160846041F2F1
:1058E0008731C1600461FEF767FB08B1FCF762F91C
:1058F0004FF48050029002A90948FEF719FC08B144
:10590000FCF758F90094019469460548FEF72CFB12
:10591000002801D0FCF74EF906B010BD000400408D
:105920009009002010B586B00024029403940494DA
:10593000059400940194134811490160532141607A
:10594000846042F20F71C1600461FEF735FB08B15B
:10595000FCF730F94FF48050029002A90948FEF795
:10596000E7FB08B1FCF726F9009401946946054865
:10597000FEF7FAFA002801D0FCF71CF906B010BDBA
:1059800000080040CC09002010B58EB000240A9415
:105990000B940C940D94089409941C2101A8FAF717
:1059A0006BFC22482049016042F2CF0141608460D3
:1059B000C721C1600461FEF7FFFA08B1FCF7FAF8ED
:1059C0004FF480500A900AA91848FEF7B1FB08B1BD
:1059D000FCF7F0F81548FEF79DFD08B1FCF7EAF872
:1059E0000894099408A91148FEF7BEFA08B1FCF71B
:1059F000E1F86020019014200290039405940022A5
:105A000001A90A48FEF719FD08B1FCF7D3F80422F2
:105A100001A90648FEF711FD08B1FCF7CBF80348D1
:105A2000FEF7C6FC0EB010BD000C0040080A0020B6
:105A300010B586B000240294039404940594009455
:105A4000019414481249016042F2CF014160846020
:105A500040F2E731C1600461FEF7AEFA08B1FCF72D
:105A6000A9F84FF48050029002A90A48FEF760FBA3
:105A700008B1FCF79FF80094019469460548FEF7C9
:105A800073FA002801D0FCF795F806B010BD0000AD
:105A900000140040440A002010B50D480B49016075
:105AA0004FF4E131416000218160C16001610C224D
:105AB00042618161C16100221146FDF7F9FE0028B3
:105AC00003D0BDE81040FCF775B810BD0078004069
:105AD0003405002010B50D480B4901604FF4E13149
